:020000040002F8
:10700000F0350120657402006D740200018F0200EA
:1070100071740200737402007574020000000000B5
:1070200000000000000000000000000019720200D3
:1070300079740200000000005D720200F18F02000E
:10704000098F02007F740200A5910200C58F020023
:10705000D18F02007F7402005D8E02007F740200F7
:107060007F7402007F7402007F7402007F7402004C
:107070007F7402007F7402007F7402007F7402003C
:107080007F740200598F02007F7402007F74020037
:107090007F7402007F740200ED8F02007F74020093
:1070A0007F7402007F7402007F7402007F7402000C
:1070B0007F7402007F7402000000000000000000E6
:1070C0007F7402007F7402007F740200DD8F020073
:1070D0007F7402007F7402007F7402007F740200DC
:1070E0007F740200000000000000000000000000AB
:1070F000000000007F740200000000007F740200A6
:10710000000000000000000000000000000000007F
:10711000000000000000000000000000000000006F
:10712000000000000000000000000000000000005F
:10713000000000000000000000000000000000004F
:10714000000000000000000000000000000000003F
:10715000000000000000000000000000000000002F
:10716000000000000000000000000000000000001F
:10717000000000000000000000000000000000000F
:1071800000000000000000000000000000000000FF
:1071900000000000000000000000000000000000EF
:1071A00000000000000000000000000000000000DF
:1071B00000000000000000000000000000000000CF
:1071C00000000000000000000000000000000000BF
:1071D00000000000000000000000000000000000AF
:1071E000000000000000000000000000000000009F
:1071F000000000000000000000000000000000008F
:10720000DFF810D000F0FCFB00480047B1D00200CE
:10721000AFF30080F0350120264B19680868B0E80C
:10722000F04F80F30988BFF36F8F4FF0000080F3B9
:1072300011887047000000000748006880F3088844
:1072400062B661B6BFF34F8FBFF36F8F4FF4F0702C
:1072500080F3118800DF000000700200EFF3098066
:10726000BFF36F8F134B1A681EF0100F08BF20ED8D
:10727000108A20E9F04F106008B44FF0400080F30E
:107280001188BFF34F8FBFF36F8F0BF037F84FF0BC
:10729000000080F3118808BC19680868B0E8F04F56
:1072A0001EF0100F08BFB0EC108A80F30988BFF3FE
:1072B0006F8F7047342B002030B450E8012F93B209
:1072C000C48923448489A34228BF1B1B0489A34289
:1072D00002BFBFF32F8F002007E0C3EA020340E89C
:1072E0000134002CE9D14FF001000A6030BC704736
:1072F00050E8012FC2EA024240E801210029F7D1FB
:10730000704730B450E8022F1FFAA2F3C488A3429A
:1073100002BFBFF32F8F00200DE0C489234484896E
:10732000A34228BF1B1BC2EA034340E80234002CDF
:10733000E8D14FF001000A6030BC704750E8022FDE
:10734000C2EA224240E802210029F7D170470346F1
:1073500053E8022FD988B2EB324F4FF0000017BF2D
:1073600092B241EA014142EA014104E05A68B2EBBB
:10737000324F08BF012043E80212002AE8D17047CB
:1073800030B4044654E8000F0D4644E80053002B87
:10739000F8D1156030BC704730B4044654E8000F93
:1073A00040EA010544E80053002BF7D1156030BCDA
:1073B000704730B4044654E8000F00EA010544E881
:1073C0000053002BF7D1156030BC704730B4044631
:1073D00054E8000F80EA010544E80053002BF7D180
:1073E000156030BC704730B4044654E8000F00EB21
:1073F000010544E80053002BF7D1156030BC7047FD
:1074000030B4044654E8000FA0EB010544E80053F3
:10741000002BF7D1156030BC704770B404464FF0B4
:10742000000054E8006F0D68AE4207BF44E8002337
:10743000012044E800630E60002B1CBF0020F0E731
:1074400070BC704730B4044654E8000F88422CBF2B
:10745000451A054644E80053002BF5D1156030BCB1
:10746000704700000648804706480047FEE7FEE7F1
:10747000FEE7FEE7FEE7FEE7FEE7FEE7FEE7FEE7E4
:1074800015900200017202002DE9F05F0546002010
:1074900092469B4688460646814640241BE0284685
:1074A00041464746224600F0FCF953465A46C01A68
:1074B000914110D311461846224600F016F82D1AB5
:1074C00067EB01084F4622460120002100F00DF82D
:1074D00017EB00094E41201EA4F10104DFDC4846F1
:1074E00031462A464346BDE8F09F202A04DB203A75
:1074F00000FA02F1002070479140C2F1200320FA07
:1075000003F319439040704700487047103103005F
:1075100040EA01039B0703D009E008C9121F08C015
:10752000042AFAD203E011F8013B00F8013B521E95
:10753000F9D27047D2B201E000F8012B491EFBD20C
:1075400070470022F6E710B513460A46044619466E
:10755000FFF7F0FF204610BD421C10F8011B002968
:10756000FBD1801A70472DE9FE4F804681EA030067
:10757000C00F0C46009021F0004123F00045B8EB0D
:107580000200A94105D24046214690461C460B46C2
:10759000024623F00040104347D0270DC7F30A00EE
:1075A000C3F30A510290401A019040286BDAC3F3EA
:1075B000130040F4801B0098924620B10023D2EBC8
:1075C000030A63EB0B0B01985946C0F14002504689
:1075D000FFF78BFF06460D4650465946019A00F0CC
:1075E00070F910EB08006141002487EA115284EA27
:1075F000E7731A4340D0009A62B3019A012A4FEA16
:10760000075215DC001B61EB02014FF0004202EA59
:107610000752CDE90042001C41F5801132462B464D
:1076200000F070F903B0BDE8F08F40462146F9E75D
:10763000001B61EB0201001C41F5801300185B4147
:107640002018A2F5001747EB030140EAD570B619E0
:107650006D4111E06D084FEA360645EAC0754FEA04
:107660000752001B61EB0201001C41F58011490823
:107670004FEA30000019514132462B4603B0BDE8B5
:10768000F04F00F030B90098012240000023D0EB09
:10769000020263EBE073009821464FEAE074B8EB16
:1076A000000061EB0401E9E783F000435BE781F050
:1076B000004158E72DE9FE4F81EA030404F000443D
:1076C00021F0004100944FF0000B23F0004350EAFA
:1076D00001045ED052EA03045BD0C3F30A54C1F341
:1076E0000A552C44A4F2F3340194A0FB0254C1F3D4
:1076F000130141F48011C3F3130343F4801301FB1E
:10770000024400FB034E840A970A44EA815447EA84
:107710008357A4FB076802958D0A05FB07854FEA8E
:10772000932C04FB0C542705029D4FEA065847EAA8
:107730001637B5EB08056EEB070C870E920E47EA7D
:10774000811742EA8312A7FB0201B6EB0B0164EB3F
:1077500000042B0D43EA0C335E1844EB1C50DA4650
:107760005146E7FB0201C5F313044FEA0B3343EA2A
:1077700014534FEA0432019C43EA0603A4F10C04BB
:107780000294009CCDE900B400F0BCF803B0BDE861
:10779000F08F00200146F9E72DE9F04D81EA03045E
:1077A00004F0004B21F0004514464FF0000A23F08E
:1077B000004150EA050220D054EA01021DD0C5F371
:1077C0000A570246C5F31303C1F31300C1F30A5667
:1077D00040F4801543F48013A7EB0608101BD6462F
:1077E00008F2FD3873EB050002D308F1010801E04F
:1077F00092185B41B8F1000F03DA00200146BDE8A2
:10780000F08D00204FF48011064684460EE0171BD1
:1078100073EB050705D3121B63EB050306434CEA24
:10782000010C49084FEA300092185B4150EA010709
:10783000EDD152EA030012D082EA040083EA050186
:10784000084305D0101BAB4106D20122002306E0FD
:1078500000224FF0004302E06FF0010253101AEBD8
:1078600006004CEB085110EB0A0041EB0B01BDE8A0
:10787000F04D00F038B830B50B460146002020220C
:10788000012409E021FA02F59D4205D303FA02F52D
:10789000491B04FA02F52844151EA2F10102F1DC8D
:1078A00030BD202A04DB203A21FA02F00021704783
:1078B00021FA02F3D040C2F1200291400843194658
:1078C0007047202A06DBCB17203A41FA02F043EA40
:1078D000E07306E041FA02F3D040C2F12002914089
:1078E00008431946704710B5141E73F1000408DAF6
:1078F000401C41F1000192185B411A4301D120F074
:10790000010010BD2DE9F04D92469B4611B1B1FA30
:1079100081F202E0B0FA80F220329046FFF7E5FDF6
:1079200004460F4640EA0A0041EA0B0153465A4614
:10793000084313D0114653EA010019D0C8F14002A0
:107940005046FFF7AEFF05460E46504659464246A2
:10795000FFF7CBFD084305D0012004E0204639465F
:10796000BDE8F08D0020054346EAE0762C4337431E
:107970000A986305E40AA0EB08000022FD0A44EA25
:1079800047540A3002D500200146E9E701051019E5
:107990006941DDE9084500196941BDE8F04DA2E7FC
:1079A000C1F30A52C1F3130140F2FF3341F48011D5
:1079B0009A4202DA00200146704740F233439A426D
:1079C000A2F2334202DC5242FFF76BBFFFF78DBDDC
:1079D00030B5041E71F1000404DB4FF00044404256
:1079E00064EB0101141E73F1000405DB1C464FF02B
:1079F0000043524263EB0403994208BF904230BDFA
:107A0000064C074D06E0E06840F0010394E80700EB
:107A100098471034AC42F6D3FFF7F6FBB871040078
:107A2000D871040070B58C1810F8015B15F00703CD
:107A300001D110F8013B2A1106D110F8012B03E007
:107A400010F8016B01F8016B5B1EF9D12B0705D40F
:107A50000023521E0DD401F8013BFAE710F8013B58
:107A6000CB1A921C03E013F8015B01F8015B521E74
:107A7000F9D5A142D8D3002070BD0000B0B5E1B166
:107A80004FF0000C02EB4C0432F81C300CF1020CED
:107A900064888C4523F0030324F0030450F803E0CA
:107AA0000559C55040F804E003440444D3F804E009
:107AB00065685D60C4F804E0E4D3B0BD2DE9F04131
:107AC0000588984616460C460746012A0CD1E5B3B0
:107AD000201D294690ED000A0139B1EE400A80EDE3
:107AE000000A00F10800F5D1FF2D0CDDB5F5806F1F
:107AF00010DBB5F5805F22D0B5F5006F11D0B5F57C
:107B0000806F17D021E03F2D10DC102D12D0202DDA
:107B100007D01AE0B5F5807F03D0B5F5007F0ED011
:107B200013E03846214600F007F90EE0402D06D05C
:107B3000802D0AD13846214600F030F805E07A68F9
:107B400020462946012300F06DFCB8F1000F04D057
:107B5000BA68B9892046FFF791FF012E1CD100EECB
:107B6000105A002DB8EE400A08BFBDE8F081B7EE0C
:107B7000001A81EE000A00BF94ED001A94ED012A6C
:107B8000013D20EE011A20EE422A84ED001A84ED18
:107B9000012A04F10804EFD1BDE8F0812DE9F04796
:107BA0002DED088B804600880023D8F8042001EBD7
:107BB000800A4FEA5009B3EBD00F00F0AD80C70840
:107BC00001EB890C0AEB890E7C420027C8190AEBED
:107BD00007060CEB07030EEB0705013496ED000AD0
:107BE00090ED004A96ED011A90ED015A96ED022AA9
:107BF00090ED026A96ED033A90ED037AD5ED000A16
:107C0000D5ED011AD5ED022AD5ED033AD3ED004AA0
:107C1000D3ED015AD3ED026AD3ED037A34EE00BA04
:107C200037EE038A36EE029A35EE01AA34EE400AA8
:107C300035EE411A36EE422A37EE433A33EEE76A22
:107C400032EEE67A80ED00BA80ED01AA80ED029A6C
:107C500080ED038A34EEA0BA35EEA1AA37EEA38AEE
:107C600036EEA29A02EB070071EEE51A70EEE40A16
:107C700007F1100783ED00BA83ED01AA83ED029AA4
:107C800083ED038A90ED008A90ED019A20EE094A77
:107C900021EE085A21EE091A20EE080A35EE444A70
:107CA00030EE010A21EE891A20EE885A61EE881A18
:107CB00060EE890A86ED014A86ED000A35EE010A7A
:107CC00030EEE11A85ED010A85ED001A90ED020A09
:107CD00090ED031A22EE014A23EE005A23EE013AF8
:107CE00022EE002A35EE444A32EE032A26EE013A0D
:107CF00027EE005A26EE000A27EE011A86ED034A07
:107D000086ED022A35EE032A31EE400A85ED032A7C
:107D100085ED020A7FF45AAF08464946022300F077
:107D200081FBD8F80420504649460223BDEC088B5D
:107D3000BDE8F04700F076BB2DE9F04F81B02DEDA6
:107D4000088B92B0B0F800C00590406891ED000A31
:107D500091ED011A4FF000094FF0000B4FEA5C0261
:107D600006906FF001000F9101EB820300EB9C077E
:107D700003EB8205A9EB57006FF0030793ED004A70
:107D800093ED015A95ED002A95ED013A05EB820439
:107D9000119007EB820007EBC20E6FF0070794ED1E
:107DA000007AD4ED010A07EB0216109031EE036A57
:107DB00070EE021A31EE431A30EE420A0E9602EBD2
:107DC000420676EE052A71EE843A31EE442A30EE10
:107DD000053A31EE041A30EE450A36EE456A71EE88
:107DE000C41A07EB86004FEA9C074FEA860A73EE37
:107DF000873A72EEA02A32EE072A33EE603A31EE6D
:107E0000471A30EE200A0D900197029304959700CF
:107E10000394C1ED003AC1ED012A83ED003A83EDF0
:107E2000012A31EEC73A36EE602AD10085ED003ADC
:107E300085ED012A84ED000A84ED011A0024E0E0BA
:107E40000F98089407920B915A46CB46109900EB75
:107E50000E0400EB01090D990A97CDF830E0CDF83A
:107E600024A0D4ED002A14ED015ADDF838A0D9ED94
:107E7000001A59ED017A47180839D7ED010A00EBCD
:107E80000A0ED7ED006A0798AAF1080ADEED014A4A
:107E90009EED004A71EEA03A37EEA69A73EEA25A12
:107EA00075EEA45AC9ED005A54ED015A9EED008AB0
:107EB00079EE255A75EE885A49ED015AD94693460E
:107EC000D3ED035A93ED028A09F1080902F1180B68
:107ED00026EE25AA27EE08BA27EE257A26EE086AAE
:107EE0003BEE0AAA36EE476A32EEE47A85ED02AA44
:107EF00085ED036A31EEE06A77EEE60A76EE451A22
:107F000070EE876A71EE841A66EE887A21EEA5AA71
:107F100066EEA55A61EE881A7AEE677A71EEA51AB6
:107F2000C4ED007A44ED011A089CD6ED051AD6ED91
:107F3000045A103462EE216A63EE257A23EE213A68
:107F400022EE252A77EEA66A32EE432A33EEE23A93
:107F5000CCED026A8CED032A39EE452A33EE643A01
:107F600032EE442A63EE653A23EE213A62EE212A8C
:107F700022EE252A73EEE22A33EE422AC7ED012AC9
:107F800087ED002A0A9F90ED072A90ED063A109897
:107F9000083760EE021A61EE032A21EE021A20EE83
:107FA000030A083872EEA11A30EE410A37EE601A61
:107FB000C8ED021A88ED030A34EE450A21EE034AA1
:107FC00021EE021A30EE460A20EE025A20EE030A93
:107FD00035EE444A30EE010A8EED014A8EED000A7C
:107FE000DDF830E010901198AEF1080E01301190DC
:107FF0000D910B99CDF838A0DDF824A008310AF1D5
:10800000080A0F9B119803EB090203EB010CDD1921
:1080100003EB0A08069B00289CED020A92ED022A57
:1080200095ED024A98ED026A9CED031A92ED033A2F
:1080300095ED035A98ED037A03EB040672EE000AFD
:1080400073EE013A33EE411A32EE400A70EE841AB2
:1080500031EE042A70EEC40A30EE453A31EE444A5D
:1080600071EE861A33EE071A30EEC63AC2ED021AE6
:10807000D5ED031AD8ED032A73EEA11A71EEA21AF8
:10808000C2ED031A73EEC51A30EE055A32EE460AF7
:1080900003EB0B024B4434EE066A31EEC72A35EE91
:1080A000477A7FF4CDAE93ED024A93ED035A0F98D1
:1080B000042367EE050A66EE041A26EE055A27EE3B
:1080C000044A34EE054A31EEE06A85ED024A85ED58
:1080D000036A019D96ED044A96ED055A294623EE62
:1080E000056A22EE047A23EE043A22EE052A33EEE4
:1080F000022A37EE464A8CED022A8CED034A92EDB5
:10810000062A92ED073A069A21EE034A20EE025A19
:1081100021EE021A20EE030A31EE000A35EE442A5F
:1081200088ED020A88ED032A00F07CF9059C02988C
:1081300029460423626800F075F9626804982946AC
:10814000042300F06FF9626803982946042312B0F3
:10815000BDEC088B01B0BDE8F04F00F063B9000042
:108160009FED241AB5EE002A46F6B4630021B7EE5F
:10817000004AC0F2030320EE010A30EE020ABDEE0F
:10818000C01AB5EEC00A11EE100AF1EE10FA9FED1A
:108190001A1AB8BF013802EE100AB8EEC22A30EE41
:1081A000420A9FED162A20EE010ABDEEC01A11EE1A
:1081B000100A30EE021A0246B1EB502F18BF00220F
:1081C00002EE102A03EB8203B1EB502F18BFB0EE82
:1081D000410AB8EE421A93ED002A93ED013A30EECF
:1081E000410A34EE401A20EE030A21EE021A31EE63
:1081F000000A704783F9223E00000044000000C4DA
:10820000F0B54C1E4FF0000C90ED000A00F1040E8A
:10821000BCEB940F40D0A708012625464FF0000C78
:1082200066F301057E4204279EED001A9EED012AA9
:108230009EED023A9EED034A01360EF1100EB4EEA9
:10824000C10AF1EE10FABCBFA7F1030CB0EE410A6F
:10825000B4EEC20AF1EE10FABCBFA7F1020CB0EE08
:10826000420AB4EEC30AF1EE10FABCBFA7F1010C4A
:10827000B0EE430AB4EEC40AF1EE10FAB4EEC40A4A
:10828000B8BFBC460437F1EE10FAB8BFB0EE440AEE
:10829000002EC9D100EB850E14F0030012D040422D
:1082A0009EED001A0EF1040EB4EEC10AF1EE10FAC2
:1082B000B8BF01EB000C00F10100B8BFB0EE410AFD
:1082C0000028EDD182ED000AC3F800C0F0BD000027
:1082D0000023B3EB910F22D080B58B089FED1C0AD1
:1082E00021F0030CC3F1000E034600BF93ED001A0A
:1082F00093ED012A93ED023A93ED034A10331EF1F8
:10830000010E30EE010A30EE020A30EE030A30EEC2
:10831000040AEBD100EB8C00BDE8804001E09FED4A
:108320000C0A11F0030309D05B4200BF90ED001A64
:10833000013300F1040030EE010AF7D101EE101A0A
:10834000B8EE411A80EE010A82ED000A704700BFC4
:1083500000000000F0B54C1E4FF0000C90ED000A3C
:1083600000F1040EBCEB940F40D0A708012625466F
:108370004FF0000C66F301057E4204279EED001AC3
:108380009EED012A9EED023A9EED034A01360EF162
:10839000100EB4EEC10AF1EE10FAC4BFA7F1030C3F
:1083A000B0EE410AB4EEC20AF1EE10FAC4BFA7F172
:1083B000020CB0EE420AB4EEC30AF1EE10FAC4BFEA
:1083C000A7F1010CB0EE430AB4EEC40AF1EE10FAC4
:1083D000B4EEC40AC8BFBC460437F1EE10FAC8BFF9
:1083E000B0EE440A002EC9D100EB850E14F0030054
:1083F00012D040429EED001A0EF1040EB4EEC10AF6
:10840000F1EE10FAC8BF01EB000C00F10100C8BF8B
:10841000B0EE410A0028EDD182ED000AC3F800C099
:10842000F0BD00002DE9F04F81B02DED108BA0B014
:108430009FED050ACDE903328C46019004301B9173
:108440000290084602E000BFF304353F4FEADC0625
:108450004FEACC074FF0000BF30006EB8602350124
:108460000896A3EBDC00D100C0001A9006EB460092
:108470007601C40000012246029CCDE91E7CCDE9B4
:108480000C01CDE91C6500BF0C9804EB03091F46E5
:108490001A9B04EB01082644254404EB020E14ED5C
:1084A000017ADDF87CC0114656ED010A1EED012A65
:1084B00018ED013A19ED014A15ED016A04EB030AC2
:1084C00020443B46E3441AED011A10ED015A77EEC1
:1084D000204A74EE032A37EE607A72EE011A76EEC5
:1084E000053A32EE411A34EE432A36EE455A72EE20
:1084F000A15A74EEA36A34EEE33A72EEE11A76EE14
:10850000A57A76EEE55A44ED017A46ED015ADAEDA8
:10851000005ADEED006AD8ED007A99ED008A90ED00
:10852000009A95ED00AA96ED00BA94ED00CA36EED9
:10853000A5DA38EE27EA3AEE09FA7CEE0B8A36EE37
:10854000E54A78EE673A72EE415A32EE011A3CEE95
:108550004B6A7EEE0D9A78EE8FAA3EEE4DDA73EE00
:10856000842A78EECF6A65EE800A33EEC42A21EEC3
:10857000001A7AEEA9BA73EE0D4A7AEEE99A33EE52
:108580004D3A62EE802A76EEE15A71EEA61A22EE9C
:10859000002A37EE604AC4ED00BAC6ED009A45EDF8
:1085A000014A7AEE494A00ED013A37EE203AC5ED2C
:1085B000005AC0ED001A76EE021A36EE422A74EE28
:1085C000A27A34EEE27A73EE275A33EE673A74EE0B
:1085D000070A34EE474A49ED015A0AED013A35EEF1
:1085E000013A48ED010A0EED014A35EE411A31EE2D
:1085F000C37A33EE213A32EE414A31EE021A89ED66
:10860000007A8AED003ADDE91C651E9F1B980D99E2
:1086100088ED004A8EED001A3C448345FFF434AFE8
:10862000BCF1400FC0F0C9810398DDF8048000253B
:10863000012707920E9380B206900898C0EBC00005
:10864000C00005900698049CCDF824800A97DFEDC1
:10865000DE2A054405EB850305EB45020B95D900A1
:10866000D00004EBC3030431043004EB010E04EB2F
:10867000451104EB000CC5EBC50091ED000A04EBBD
:108680000511DCED006AC446DEED005ADDF81C8001
:108690008DED1A0A91ED000A04EBC5018DED190A62
:1086A00091ED000A04EBC001C00004308DED180A02
:1086B00091ED000A04EB021120448DED170A91EDB3
:1086C000000A110104EBC20204318DED160A93ED8C
:1086D000000AEB0004EB01096901043304318DED5C
:1086E000150A92ED000A2A012344043222440C4464
:1086F0008DED140A94ED000A8DED130A92ED000A37
:108700008DED120A93ED000A3B468DED110A90EDB6
:10871000000A8DED100A99ED000A8DED0F0ADDE9D2
:108720000C15059F1D980CEB060B0CEB01090CEBCF
:1087300005020CEB070E9CED02DA9CED03EADDED81
:108740001A3ADDED134A1C9E9BED02FADEED027A29
:1087500092ED029A99ED02BA0CEB000A0E989AED8E
:1087600002CA7DEE0FBA0CEB00040CEB080090ED92
:10877000028A94ED02AA7CEE0BAA7BEEAADA78EECE
:10878000278A7AEE099A78EE677A3AEE498A79EE84
:10879000A8CA38EE670A78EE277A79EEE88A7DEE85
:1087A000ACEA7DEEECCA20EE220A67EEA27ACCEDAE
:1087B00002EA63EEAC0A64EEACCADBED03DA9EEDCE
:1087C000039A90ED03AAD2ED03EAD4ED03FA99EDF2
:1087D000031A9AED032A32EE013A3EEE2D4A7AEE62
:1087E000099A3FEEAE8A32EE411A38EE295A34EE3B
:1087F000036A34EE433A38EE698A3BEEEA4A36EED3
:10880000457A36EE055A3AEE496A3FEEEE9A39EE6F
:1088100046AA64EE871A39EE066A23EE877ADDED02
:10882000124ADDED193A8CED035A34EE085A3DEE4A
:108830004F9A34EE484A26EE222A37EE6C6A30EE22
:10884000A17A73EE680A7CEE4B1A38EE833A3EEE5C
:108850006DCA2AEE22AA39EE008A39EE400A24EEC9
:1088600085BA23EEA0DA23EE855A64EEA00ADDED88
:108870000F4ADDED163A8BED027A8BED036A31EE8D
:1088800002EA31EEA77A31EE421A31EEE72A7CEEA7
:108890004A1A3DEE4B6A30EE855A3CEE0ABA38EE83
:1088A0000EFA38EE4E8A70EE017A30EE410A32EE60
:1088B000211A64EE840A23EE83DA8AED025A23EE4B
:1088C000844ADDED183A24EE833A7BEE478A8AED3E
:1088D000036A37EE0B7A3DEE605ADDED110A33EE96
:1088E000043A23EEA86A23EE8FDA89ED023ADDED31
:1088F000103A89ED035A20EE8F4A60EEA80A36EE50
:10890000443A3DEE204ADDED170A23EE885A84ED05
:10891000024A84ED033A20EE876A60EE880A23EE6D
:10892000877A31EEC28A30EE874ADDED150A36EEDF
:10893000453A25EEA75A25EE887A8EED024A8EED4D
:10894000033A26EE804A20EE886A60EEA70A36EEE9
:10895000452A9DED146A30EE873A82ED023A82EDA7
:10896000032A26EE015A26EE811A26EE000A30EE80
:10897000010A35EE442A80ED020A80ED032A1E9892
:1089800084441F9803441B988342FFF4CBAE0A9F94
:10899000DDF8248008980B9D013708F1080887420C
:1089A000FFF450AE0398DDF820C09FED070AC00029
:1089B00003901F983F283FF649AD20B0BDEC108BC7
:1089C00001B0BDE8F08F00BFF304353FC8B14FF4EC
:1089D00080614FF2384201824FF40071C0F203020D
:1089E00001804FF4E071818146F6343142614EF2EC
:1089F0003842C0F20301C0F20302C0E901210020A5
:108A000000E0FF2040B27047C8B14FF4006140F26F
:108A1000384201824FF48061C0F2040201804FF4B9
:108A2000E161818143F6CC11426147F2B862C0F244
:108A30000301C0F20302C0E90121002000E0FF2091
:108A400040B27047B8B14FF4807142F238420182AF
:108A50008021C0F204020180D021818144F2DC71C6
:108A6000426149F2B862C0F20301C0F20302C0E9F8
:108A70000121002000E0FF2040B27047B0B120216A
:108A800042F6380201821021C0F204020180142152
:108A9000818144F67C11426149F6B822C0F203019B
:108AA000C0F20302C0E90121002000E0FF2040B233
:108AB0007047C8B14FF4805142F6B80201824FF4BA
:108AC0000061C0F2040201804FF46E61818144F6BE
:108AD000A411426149F63832C0F20301C0F2030228
:108AE000C0E90121002000E0FF2040B27047C8B17A
:108AF0004FF4007146F6B80201824FF48071C0F263
:108B0000040201804FF4DC71818146F2647142619C
:108B10004DF63832C0F20301C0F20302C0E9012170
:108B2000002000E0FF2040B27047B0B1402147F282
:108B3000B80201822021C0F204020180302181812B
:108B400046F6D42142614EF23832C0F20301C0F23F
:108B50000302C0E90121002000E0FF2040B270477D
:108B6000F0B581B00546008A14460E46002B4FEA48
:108B7000500028800ED02846314622461F4600F07D
:108B8000B7F8284621463A46012301B0BDE8F04037
:108B9000FEF794BF2846314600220123FEF78EFFE0
:108BA00028463146224601B0BDE8F04000F0FAB850
:108BB000B1F5007F0DDBB1F5006F16DAB1F5007F7E
:108BC0001ED0B1F5806F2AD148F6CD11C0F2020156
:108BD0000847202919D0402924D0B1F5807F1ED123
:108BE00048F64521C0F202010847B1F5805F11D077
:108BF000B1F5006F13D148F60921C0F20201084710
:108C000048F6EF21C0F20201084748F67D21C0F284
:108C10000201084748F6B321C0F2020108474FF0AD
:108C2000FF30704748F62B31C0F2020108470000C0
:108C3000B0B52DED028B15460022B2EB910F25D079
:108C40008A089FED2A0A0446534221F0030200BF1E
:108C500094ED001A94ED012A94ED023A94ED034A42
:108C60001034013321EE011A22EE022A30EE010AFD
:108C700023EE031A30EE020A24EE042A30EE010A33
:108C800030EE020AE4D100EB820001E09FED170A0A
:108C900011F003020AD0524290ED001A013200F1A5
:108CA000040021EE011A30EE010AF5D101EE101A8E
:108CB000B8EE411A80EE018AB5EEC08AF1EE10FAE4
:108CC00002DA9FED0A0A0CE0B0EE480A00F000FB61
:108CD000B4EEC00AF1EE10FA03D7B0EE480A00F085
:108CE000F7FA85ED000ABDEC028BB0BD0000000074
:108CF00080B591ED001A91ED012A0388B6EE000AC5
:108D0000D0F814E031EE423A31EE021A581E21EE4C
:108D1000001A23EE002A82ED001A82ED012A08BF14
:108D200080BD01EBC000C3F1010C08320EF1080355
:108D30000831043010ED011A91ED003A90ED002A4F
:108D400091ED014A93ED005A93ED016A08381CF148
:108D5000010C03F1080301F1080133EE417A72EED0
:108D6000040A34EE422A31EE031A27EE053A27EEC2
:108D7000064A25EE205A32EE042A20EE864A31EECB
:108D8000431A32EE452A31EE441A21EE001A22EE41
:108D9000002A82ED001A82ED012A02F10802C9D1EF
:108DA00080BD000080B591ED011A91ED000A0388A5
:108DB000D0F814E030EE002A31EE011AB6EE000AC7
:108DC00001EBC300C3F1010C08310EF1080332EED0
:108DD000413A32EE011A043821EE001A23EE002A3D
:108DE00082ED001A82ED012A083200BF91ED001ACF
:108DF00010ED013A91ED012A90ED004A93ED005AF1
:108E000093ED016A1CF1010CA0F1080001F10801C9
:108E100003F1080333EE417A74EE020A32EE442A7B
:108E200033EE011A27EE053A27EE064A25EE205AC0
:108E300032EE042A20EE864A31EE031A32EE452A3B
:108E400031EE041A21EE001A22EE002A82ED001AF9
:108E500082ED012A02F10802C8D180BD2DE9FC4152
:108E60000025DFF8948000954FF4807601242F468A
:108E70000195304605F09AF938B1D8F8040320423C
:108E800003D0304605F088F92543361D64007F1C69
:108E9000B6B2082FEDD34FF4BE74204605F086F924
:108EA00048B1204605F078F945F000456A460221B0
:108EB000002005F067F815F0FF0F16D001260024FA
:108EC0002E420ED008EB8401D1F81005D1F8101510
:108ED000C0F30520094AC1F3014152F8242002B130
:108EE00090477600641C082CEAD3002D02DA68460D
:108EF00006F04AFEBDE8FC81006000400824012025
:108F0000A12003F077FE000070B54FF48076304664
:108F100004F036FD0F4DB40540B1304604F037FD86
:108F20000120C4F808032968002088474FF482769E
:108F3000304604F025FD00280AD0304604F027FD15
:108F40000220C4F808032968BDE8704001200847E2
:108F500070BD0000CC2C002002490248091F09689E
:108F600000680847442D002070B50E46144900EBF8
:108F7000400001EBC0051446E86A183520B101280D
:108F80000FD0022805D113E0284600F011F9A042C5
:108F900001D2002411E022463146284600F04DF966
:108FA0000BE0284600F004F9A042F4D20446F2E7B0
:108FB0003146284600F014F90446204670BD0000F2
:108FC000682B01200148006800470000D42C0020D5
:108FD0000148006800470000DC2C002001490248DD
:108FE00003F0A8BF282501200030024005F096BDFF
:108FF00010B5402080F3118809F0AAFC20B1044983
:109000004FF08050086040BF002080F3118810BDF1
:1090100004ED00E010B54FF080520023D2E94C106F
:109020000D2906D18C07C4F80C31C4F81031554C09
:1090300023600D2955D1544B1B68544C2360524B6F
:109040001B1D1B68241D23604F4B08331B68241D08
:1090500023604D4B0C331B68241D23604A4B103397
:109060001B68241D2360484B14331B68241D236098
:10907000454B18331B68454C20342360424B1C334E
:109080001B68241D2360404B20331B68241D236074
:109090003D4B24331B68241D23603B4B28331B6846
:1090A000241D2360384B2C331B68241D2360364B52
:1090B00030331B68354C40342360334B34331B68EA
:1090C000241D2360304B38331B68241D23602E4B36
:1090D0003C331B68241D23602B4B40331B68241D2D
:1090E00023600D2906D12A480168C90702D06FF014
:1090F000010101602748016841F470010160BFF37C
:109100004F8FBFF36F8FD2E94C104FF010220D2913
:1091100007D130B1012804D0D2F808021949203112
:109120000860D2F80C021C4BC0070CD0012006F0DE
:10913000A9FBD2F80C0220F00100C2F80C0218685A
:109140000028FCD015E0D2F80002002803DBD2F89A
:109150000402002812DA012006F094FB1220C2F863
:10916000000219680029FCD0C2F80402186800281F
:10917000FCD0002006F086FB00F098F8084907486C
:10918000086010BD380500400404001020C50040F0
:109190000004004088ED00E000E401400090D003AE
:1091A000B42D00200148006800470000E42C002096
:1091B0000269C1688A4203D88068401A104400E0FE
:1091C000501A401E7047002809DB00F01F020121E1
:1091D00091404009800000F1E020C0F88012704703
:1091E0002DE9F047C4681746894606464FF0000847
:1091F0003069A04201D9051B02E0B168201A0D1A9E
:10920000B0686D1E001BA84200D80546BD4200D3C1
:109210003D4670682A4620444946FEF779F9B06811
:109220007F1B2C44A844A944A04200D10024F46030
:10923000002FDDD14046BDE8F0872DE9F04104461E
:109240008846D4E90207C51BE168606816460844F1
:10925000B54206D94146FEF75BF9B819E060BDE8B2
:10926000F0812A464146FEF753F9761B08EB0501CB
:1092700032466068FEF74CF9E660F0E70FB4054B44
:1092800010B503A9044A029800F028F910BC5DF853
:1092900014FB000089CC02004C2D0020014B024A37
:1092A00000F01CB989CC02004C2D0020BFF34F8F79
:1092B00005480168054A01F4E06111430160BFF30C
:1092C0004F8F00BFFDE700000CED00E00400FA0541
:1092D00010B52DED028BB1EEC08A18EE100A20F009
:1092E0000040C0F1FF40C00F0AD010EE100A20F07D
:1092F0000040C0F1FF40C00F04BF012000F026F87D
:10930000B0EE480ABDEC028B10BD02E008C8121F87
:1093100008C1002AFAD170477047002001E001C15E
:10932000121F002AFBD170470121202803DA814057
:109330000548014003E0402802DA2038814009B1A5
:109340000120704700207047FC06FFBD01490860FE
:1093500070470000B82D00202DE9FF5F82B000218A
:10936000DDE90430020DDDF840B0034318D044F6C7
:109370001050A2F2FF3242431514119801281FD059
:10938000A5EB0B00401C5FEA000A4FF000064E4FB1
:10939000DFF83891B046504615D5CAF1000413E005
:1093A000119801244AA3012801D16FEA0B01029808
:1093B000119AC0E90031C0E9024206B0BDE8F09F51
:1093C000CBF10000DFE704460021404A491842EB98
:1093D0000450CDE9001012E0E00707D032463B46CA
:1093E00040464946FEF766F98046894632463B4686
:1093F00010461946FEF75EF906460F466410002C2B
:10940000EAD1DDE90401DDE90023BAF1000F06DA53
:10941000FEF750F942464B46FEF74CF905E0FEF7E1
:10942000BBF942464B46FEF7B7F904460E4600220A
:10943000284BFEF7CDFA03D84FF0FF30014607E086
:109440000022254B20463146FEF78DF8FEF7A8FA9C
:10945000102409E0002C0ADB0A220023FEF714F88E
:10946000039B30321A55641E50EA0102F2D1641C8B
:10947000039AC4F111031444119A012A03D0012262
:1094800008430DD10AE0084304D000204FF0110B2F
:10949000119072E7A3EB0B056D1E0DE05B4504DD3B
:1094A0004FF0000205F1010504E003DA4FF000027D
:1094B000A5F10105002AECD002981199C0E902310A
:1094C000C0E9004579E70000000014400000F03FCB
:1094D000300000000000F0430000E03F2DE9FF4FA6
:1094E00095B09A46884606460025EEE1252877D1B4
:1094F00000242746F94A0121039400E0044316F8AA
:10950000013F203B01FA03F01042F7D130782A28BE
:1095100011D06FF02F033078A0F13002092A16D84D
:10952000039A44F0020402EB820203EB420210446D
:10953000761C0390EFE758F8042B0392002A03DA15
:10954000504244F40054039044F00204761C3078F6
:109550002E2816D116F8010F44F004042A280DD045
:109560006FF02F023078A0F13003092B09D807EBF8
:10957000870302EB4303C718761CF3E758F8047B14
:10958000761C30786C280FD006DC4C2817D0682861
:109590000DD06A2814D104E0742810D07A280FD195
:1095A0000DE044F400140AE044F4801401E044F4B3
:1095B00040147278824202D104F58014761C761C25
:1095C000307866280BD013DC582877D009DC0028C7
:1095D00075D04528F6D04628F4D047281AD193E113
:1095E00018E0632835D0642879D0652812D18BE142
:1095F000702873D008DC6728F1D069286FD06E28F6
:109600000DD06F2806D1ACE073282CD0752874D00B
:10961000782853D05246179990476D1C54E1C4F3F3
:109620000250022809D003280DD0D8F800100428D1
:109630000DD00D6008F1040846E1D8F80010EA17D3
:10964000C1E90052F6E7D8F800100D80F2E70D707E
:10965000F0E718F8041B8DF8001000208DF80100C9
:10966000EB46012003E058F804BB4FF0FF306107E0
:109670004FF0000102D40DE009F101018946B94221
:109680000FDA8145F8DB1BF809100029F4D108E056
:1096900009F1010189468142FADB1BF80910002912
:1096A000F6D103985346A0EB090721463846179A8E
:1096B00000F080FA284400EB090507E044E008E1E7
:1096C0000DE01BF8010B524617999047B9F10109BB
:1096D000F7D2534621463846179AF2E039E00A217C
:1096E000C4F302524FF0000B0091022A06D058F842
:1096F000040BC117032A09D00AE023E008F1070090
:1097000020F00702F2E80201904605E000B2C1171E
:10971000042A01D140B2C117002906DA0A46002105
:10972000404261EB02012D2202E0220504D52B22EA
:109730008DF80420012203E0E20701D02022F7E7A0
:10974000914657E00A2100E010214FF0000B0091F4
:109750000BE010214FF0000B44F0040408270091A7
:1097600003E008204FF0000B0090C4F30252022ADD
:1097700005D058F8040B0021032A08D008E008F1AE
:10978000070020F00702F2E80201904603E080B2F1
:10979000042A00D1C0B24FF0000922072AD532783E
:1097A000702A07D0DDF800C08CF0100C5CEA0B0CBE
:1097B00005D00EE040228DF80420012208E050EA96
:1097C000010306D030238DF804308DF805200222E5
:1097D0009146009B83F0080353EA0B030AD150EA39
:1097E000010201D1620705D530228DF804204FF027
:1097F00001097F1E3278582A04D039A20C920CAA93
:1098000002920BE03BA2F9E75B46009AFDF73CFEB3
:109810000C9B9B5C029A521E0292137050EA01024A
:10982000F2D1029804A9081A00F1200B600702D5B2
:1098300024F4803400E001275F4502DDA7EB0B0034
:1098400000E0002000EB0B01009003984944401A0F
:109850000390E00306D453462146179A039800F07C
:10986000A9F90544002706E001A85246C05D1799F2
:1098700090476D1C7F1C4F45F6DBE0030CD553462B
:109880002146179A039800F095F9054404E030202A
:109890005246179990476D1C0099481E0090002968
:1098A000F5DC08E00298029952460078491C0291C2
:1098B000179990476D1CBBF10001ABF1010BF1DC76
:1098C0005BE100F065F90544761C307800287FF4F0
:1098D0000DAE19B02846BDE8F08F00000928010040
:1098E0003031323334353637383961626364656616
:1098F00000000000303132333435363738394142D8
:109900004344454600000000600700D4062708F1E4
:10991000070020F00700F0E80223804603F0004C27
:109920005FEA0C0001D097A009E0200501D596A0C0
:1099300005E0E00701D095A001E0AFF24C001390E4
:10994000307823F0004365280CD006DC452809D088
:1099500046281DD047287FD13BE0662818D06728CD
:109960007AD136E00021112F01DB112000E0781CB4
:10997000CDE9000104A90CA8FFF7EEFCDDE90D011B
:109980000C9A4FF0000B07F10109109200914EE084
:109990004FF000400097CDE9011004A90CA8FFF793
:1099A000DBFCDDE90D020C9B0F994FF0000B91469B
:1099B0001093009211B9791C00EB0109B7EB090073
:1099C00003D4C0F1FF3B07F10109A9EB07000190A7
:1099D00042E0012F00DA01270021112F01DD1120C3
:1099E00000E03846CDE9000104A90CA8FFF7B4FC5B
:1099F000DDE90D010C9A00914FF0000BB946109271
:109A000021070FD4009A4A4503DA914601E0A9F1F3
:109A10000109B9F1010F05DD109AA9F10101515CAD
:109A20003029F4D0B84202DA10F1040F03DA012130
:109A3000CDE9011010E0002803DC8344A9EB00010C
:109A400002E0411C494500DD8946A0EB0B00401CAB
:109A500001904FF000400290200705D4019848453E
:109A600002DB4FF0FF30019000208DF84B00029890
:109A70000DF14B07B0F1004F25D002200C902B20A8
:109A80000D90029800280CDA404202902D200D9093
:109A900007E00A210298FDF7EEFE3031029007F848
:109AA000011D0C99481E0C900029F2DC0298002838
:109AB000EFD1791E0D980870307800F0200040F04A
:109AC000450007F8020D11A8C01BC01D0290139895
:109AD000007800B1012000EB0901019801EBE07171
:109AE000029801440398401A401E0390E00306D4F4
:109AF00053462146179A039800F05CF805441398E2
:109B0000007818B15246179990476D1CE00323D591
:109B100053462146179A039800F04CF805441BE081
:109B2000BBF1000F07DB0098584504DD109817992A
:109B300010F80B0001E01799302052469047019829
:109B40000BF1010B401E05F10105019004D12E20FF
:109B50005246179990476D1CB9F10001A9F101090E
:109B6000DEDC05E017F8010B5246179990476D1C93
:109B70000299481E02900029F4DC53462146179AA8
:109B800003989EE62D0000002B000000200000003E
:109B90002DE9F041044600251E461746880404D4EA
:109BA00005E039462020B0476D1C641EF9D52846D3
:109BB000BDE8F0812DE9F041044600251E4690469F
:109BC000C80301D5302700E02027880404D505E02C
:109BD00041463846B0476D1C641EF9D52846BDE89D
:109BE000F0810000DFED0B0A81B100EE100A9FED5D
:109BF0000A1AB8EEC00A60EE200A00EE101AB8EE9B
:109C0000400A20EE011A80EE810A70479FED030A98
:109C10007047000080B4134A0000004B00000000B1
:109C200010B5074CA078002809D0112000F0A4FA44
:109C3000002804D10A2005F08FF80020A07010BD84
:109C4000A02B00203EB500204D4C8DF808008DF86B
:109C500000008DF804006070207818B902F0E4FD6F
:109C6000207828B1FFF7DCFF010003D045A076E0A3
:109C70004DA081E002A9002000F05EFA010001D0B1
:109C800050A06CE09DF8081057A002F0A1FD9DF8CF
:109C90000800732801D05BA06EE00121084600F0A7
:109CA000F3FA010001D060A059E0A021022000F0E9
:109CB000EBFA010001D065A051E0C82008F0D2F90C
:109CC0001021032000F0E0FA010001D068A046E076
:109CD0008121042000F0D8FA010001D06CA03EE000
:109CE0006021052000F0D0FA010001D071A036E01B
:109CF0002C21062000F0C8FA010001D076A02EE049
:109D00000021072000F0C0FA010001D07BA026E06E
:109D10000221092000F0B8FA010001D080A01EE065
:109D200003210A2000F0B0FA010001D084A016E05F
:109D30000C210B2000F0A8FA010001D088A00EE051
:109D40006946062000F0F8F9010001D08CA006E079
:109D500001A90A2000F0F0F9010003D094A002F05C
:109D600037FD3EBD9DF804209DF800109BA002F039
:109D70002FFD01206070A54802F02AFD3EBD0000C5
:109D8000A02B0020414453313239322053444154F6
:109D90004143206661696C65642C206572723D25C3
:109DA0006C750D0A000000004144533132393220F5
:109DB000535049206973206E6F7420726561647915
:109DC0000D0A000041445331323932204944207297
:109DD000656164206661696C65642C206572723D02
:109DE000256C750D0A000000414453313239322090
:109DF00049442076616C75653A20307825303258B8
:109E00000D0A000041445331323932204944206563
:109E100072726F722C20657870656374656420308F
:109E20007837330D0A000000414453313239322073
:109E3000434F4E46494731206661696C65642C206A
:109E40006572723D256C750D0A0000004144533166
:109E500032393220434F4E46494732206661696CA1
:109E600065642C206572723D256C750D0A0000003A
:109E700041445331323932204C4F464620666169A5
:109E80006C65642C206572723D256C750D0A0000AE
:109E900041445331323932204348315345542066CE
:109EA00061696C65642C206572723D256C750D0AC4
:109EB00000000000414453313239322043483253CC
:109EC0004554206661696C65642C206572723D257D
:109ED0006C750D0A000000004144533132393220C4
:109EE000524C445F53454E53206661696C65642C47
:109EF000206572723D256C750D0A00004144533196
:109F0000323932204C4F46465F53454E53206661EE
:109F1000696C65642C206572723D256C750D0A00B4
:109F20004144533132393220524553503120666119
:109F3000696C65642C206572723D256C750D0A0094
:109F400041445331323932205245535032206661F8
:109F5000696C65642C206572723D256C750D0A0074
:109F600041445331323932204750494F20666169AC
:109F70006C65642C206572723D256C750D0A0000BD
:109F80004144533132393220524C445F53454E5391
:109F90002066696E616C2072656164206661696C1F
:109FA00065642C206572723D256C750D0A000000F9
:109FB0004144533132393220524553503220666980
:109FC0006E616C2072656164206661696C65642CE9
:109FD000206572723D256C750D0A000041445320C6
:109FE000524C44205645524946593A20524C445FFF
:109FF00053454E533D30782530325820524553500A
:10A00000323D3078253032580D0A000014310300FB
:10A010002DE9FE4F040000D118A41B4806681A4819
:10A02000103005681948C6F34069C5F340680768F1
:10A03000192003F0DDFF8346032003F0D9FF824699
:10A040001F200090684603F0DFFFD0F8100500994C
:10A050005346C84000F0010221460DA0CDF800B0E3
:10A0600002F0B6FB0097CDE9016543464A4621461A
:10A07000134802F0ADFBBDE8FE8F000041445320C1
:10A080004750494F0000000004050050640700508D
:10A0900025733A20445244595F494E3D256C752042
:10A0A00053544152545F4F55543D256C75205245D1
:10A0B0005345545F4F55543D256C750D0A00000003
:10A0C000A031030010B586B004004FF000000590E9
:10A0D0000390049000900190029025D0144880785D
:10A0E00020B30922694603A800F05EF8002819D1C0
:10A0F000092269460F48FDF70BFA9DF800009DF80C
:10A100000110000440EA01209DF802106B4608434C
:10A110002060D81C00F039F86060981D00F035F818
:10A12000A060002006B010BD0E20FBE70820F9E774
:10A13000A02B0020747500207CB50C00054619D0BA
:10A14000FFF76EFD002814D105F01F0141F020013A
:10A150008DF800108DF8010001908DF802000322A7
:10A1600001A9684600F020F8002802D19DF80610E9
:10A1700021707CBD0E207CBD08B501228DF8000049
:10A180000021684600F010F808BD00280BD00178C7
:10A1900042780904807841EA02210143080201D58E
:10A1A00041F07F41084670477FB514460D460600D2
:10A1B00007D034B11C2003F0FDFE0E4825B1214626
:10A1C00003E0072004B070BD0021CDE90251CDE9C4
:10A1D000006400226946001D04F0C0FF04460A2006
:10A1E00004F0BAFD1C2003F092FF052004F0B4FD3A
:10A1F0002046E7E7782D030010B5114C6078E0B1F8
:10A20000032003F0D7FE142004F0A6FD0820FFF77A
:10A21000B3FF002810D1142004F09EFD1020FFF79A
:10A22000ABFF002808D10A2004F096FD0120A070A1
:10A2300004A0FFF7EDFE002010BD082010BD0000B7
:10A24000A02B002041667465722053544152542B58
:10A25000524441544143000038B50C460546FFF7CF
:10A26000DFFC00280FD105F01F0040F040008DF802
:10A27000000000208DF8010001468DF80240032205
:10A280006846FFF791FF38BD38B5054600208DF8C8
:10A2900000000C462846FFF7DFFF00280FD1694673
:10A2A0002846FFF749FF002809D19DF80030A34256
:10A2B00006D022462946034802F08AFA032038BD18
:10A2C000002038BD5C31030090F82400012801D043
:10A2D0001F207047EE20704710B501220221002098
:10A2E00001F0B4FE08B1072810D107220221012095
:10A2F00001F0ACFE08B1072808D100210A22084667
:10A3000001F0A4FE08B1072800D1002010BD000014
:10A3100000B5ABB0AC216846FDF713F902208DF80B
:10A32000000000218DF8021006208DF803000120A6
:10A330000F4A1492ADF84C004022229244F250622F
:10A3400023928DF87C000B4A29928DF87D004FF402
:10A35000C860CDE924016946074800F076FF08B1DE
:10A3600000F01DF80121044800F06CFF2BB000BD87
:10A37000042B00209DF80200DC2F002010B50321E3
:10A38000044801F00BF8002803D0BDE8104000F0AD
:10A3900006B810BDDC2F0020A22002F02BFC0EB569
:10A3A00000210091CDE901106A4644F20100FFF757
:10A3B000F3FF0EBD10B58268C368934203D002F06C
:10A3C00037FC002010BD052010BD29B112B1531E6D
:10A3D000134203D0092070470E207047016083802C
:10A3E00000218160C1600846704710B58268C3686B
:10A3F0009A1A83889A4203D802F024FC002010BDE8
:10A40000042010BD014802F0E2BA0000082D00202F
:10A4100010B55AB100684FF0FF3401294261C0E91C
:10A42000024400D000210161002010BD072010BDB2
:10A4300038B5114808235822416800910F49006837
:10A4400003F099F8002815D10D4A69460D4802F02D
:10A45000C3FA04000ED101210A4802F038FB01239F
:10A46000094A1946074802F08AFA064901200839C4
:10A470000870204638BD0000442E0300C42501208A
:10A4800029070300082D0020FFFF7F00F8B50446D0
:10A49000002617460D468DF80060684600F0D8F893
:10A4A000D4E90201C04370EA010005D09DF8000024
:10A4B00000F0F2F80020F8BD02F066FC401971418E
:10A4C000C4E902019DF8000000F0E6F8A7612069E8
:10A4D00000B125612146BDE8F840002006F0CEBE5F
:10A4E00038B5044600208DF80000684600F0B0F84A
:10A4F000D4E90201C04370EA01000DD04FF0FF30F3
:10A50000C4E902009DF8000000F0C6F82146BDE84D
:10A510003840012006F0B2BE9DF8000000F0BCF803
:10A52000002038BD70B50A4E01460A48B578FFF7DD
:10A5300041FF04464DB10020B070711C0122C81DBE
:10A5400003F006FB08B1FFF72AFF204670BD0000AC
:10A55000242D00201C260120F0B5244E89B01F4672
:10A560000D00044672603FD0A888296882B2204856
:10A57000FFF72BFF002835D1A889A96882B21C48B3
:10A580001030FFF722FF00282CD1202219496846FD
:10A59000FCF7BEFF60690690207C00B101208DF8B9
:10A5A00014008DF81C70607C00B10E208DF8150031
:10A5B000E0680290A06803902068019060680090B5
:10A5C0000A480D4A6946083003F08EFA002809D17E
:10A5D000B0702068401C05D004490122491CC81DE8
:10A5E00003F0B6FA09B0F0BD0720FBE7242D0020E8
:10A5F0001C260120582E03005118030010B50146F7
:10A600001048FFF7F2FE040019D10F480F4A0178F5
:10A61000515C19B1001D05F011F902E00C3004F095
:10A62000E7FF60B9084907480839FFF7C3FE30B9AA
:10A63000054901220839044803F09AFA04462046E5
:10A6400010BD00002C2601202C2D0020B82C00204D
:10A6500030B5EFF3108172B60D4A9468012324B12E
:10A660000370002900D162B630BD93604FF0E02343
:10A67000D3F88051074C25401560C3F88041D3F8CA
:10A68000844154605A17C3F8842100220270E8E71D
:10A690003C260120FC06FFBD0B498A68002A11D028
:10A6A00000280FD1EFF3108072B60B684FF0E02254
:10A6B000C2F800314B68C2F8043100228A600028D9
:10A6C00000D162B6704700003C26012070B50546F7
:10A6D00008680C46411C04D003F023FD206803F0F9
:10A6E0001AFC6068411C02D0002103F0F8FB2968C5
:10A6F000A069C1F82405607D227D29681043C1F856
:10A700006C05D4E900122868C0F81425C0F80C15AF
:10A71000207D012814D1A068411C02D0002103F043
:10A72000DEFBE068411C04D003F0FBFCE06803F0B2
:10A73000F2FBD4E902122868C0F80825C0F8101509
:10A7400070BD70B5054608680C46411C04D003F086
:10A75000F2FC206803F0E9FB6068411C02D0002194
:10A7600003F0C6FB2968A069C1F82405607D217D3E
:10A770002A680843C2F86C05D4E900122868C0F8BA
:10A780000C15C0F81425207D012814D1A068411CA7
:10A7900002D0002103F0ACFBE068411C04D003F0C0
:10A7A000CAFCE06803F0C1FBD4E902122868C0F8D3
:10A7B0000825C0F8101570BD002807D080EC050AE8
:10A7C0009FED030A80ED050A80ED060A7047000040
:10A7D00000000000F0EE400AF0B190ED050A90EDA7
:10A7E000001AD0ED031A01EE200A90ED011A21EEB5
:10A7F000201A01EEC01AD0ED061A31EE211AD0ED62
:10A80000021A61EEA00AD0ED041A80ED051A41EE9D
:10A81000C00AC0ED060A7047B0EE600A704700003B
:10A82000002805D09FED030A80ED050A80ED060A99
:10A830007047000000000000B4EEE00AF1EE10FAEC
:10A8400002D2B0EE600A7047B4EEC10AF1EE10FA1F
:10A85000F9DDB0EE410A70472DE9F041DFED3B0A2A
:10A860000D46C1ED000AC2ED000A39491F461646E1
:10A87000C3ED000A002401F500624FF4007300BF2D
:10A8800000EB840CDCED000A01EB840C70EEC00AD6
:10A890009CED001A02EB840C641C60EE810A9C4261
:10A8A000CCED000AECD32B4A0023A2F50061A1F6FF
:10A8B0001800FEF755F9DFED281A9FED282A284ADF
:10A8C000012000BF00EE100AB8EE400A20EE210A77
:10A8D00020EE020A10EE101A914234DA1D4901EB03
:10A8E000C001D1EC020A10EE101AA1F1814160EE14
:10A8F000A00AB1F5000F41EE010A06D295ED000A5B
:10A9000030EE200A85ED000A1AE010EE101AA1F1CF
:10A910008241B1F5A00F06D296ED000A30EE200A72
:10A9200086ED000A0CE010EE101A0E4B1944B1F53A
:10A93000200F05D297ED000A30EE200A87ED000ABD
:10A94000401CFF28BED9BDE8F081000000000000D7
:10A95000980A0120981A012000007A430000003B69
:10A960000000F0410000B0BE10B58478836800227A
:10A9700004B1012244780CB142F00202C4780CB157
:10A9800042F0040204790CB142F00802A5240C70D4
:10A990005A244C7001248C70CC7006240C714A71BE
:10A9A00000788871180EC871180C0872180A48725D
:10A9B0008B720B23002210460C5C401C624080B25C
:10A9C0009842F9D3CA7210BD154810B58179F0EEDE
:10A9D000400AE1B190ED0B0A90ED0A1AC0ED0A0AA7
:10A9E00030EE200A30EE410A9FED0E1A20EE010AE9
:10A9F00080ED0B0A0C48FFF7EDFE0B481C30FFF70B
:10AA0000E9FE0948BDE810403830FFF7E3BE9FED8E
:10AA1000070AC0ED0A0A80ED0B0A01218171E9E7FE
:10AA2000F42B00205EBA793F98220120000000003C
:10AA300010B504460748C0784042204009D007F0CE
:10AA400071FA302204492046FCF762FD07F074FADF
:10AA5000012010BDF42B0020EC2201202DE9F0474D
:10AA60005F4D2DED048B82B0E87828B1012002B053
:10AA7000BDEC048BBDE8F0874FF4006A514659489D
:10AA8000FCF75FFD30215848FCF75BFD00242C618A
:10AA90006C61AC61EC612C626C719FED542ADFED4E
:10AAA000540AF0EE601A9FED530A4F486C62B0EE04
:10AAB000401A5438FFF780FE9FED4F2ADFED4F1A02
:10AAC0009FED4F0AB0EE401ADFED4E0A4648383887
:10AAD000FFF772FE9FED4C2ADFED4C1A4248B7EEAD
:10AAE000001AF0EE000AB7EE000A1C38FFF764FE09
:10AAF0009FED478A3C4885ED0A8A85ED0B8AAC714B
:10AB00005438FFF78DFE38483838FFF789FE36484D
:10AB10001C38FFF785FE85ED0C8AB7EE000A85ED3F
:10AB20000D0A9FED3C0AAC6385ED0F0AEC713221F2
:10AB300029706C70AC702C480126DFED378A0170EB
:10AB400044708470C6709FED359ADFF8D48004712C
:10AB50000027B6EE008A4FF4007900BF00EE107AAD
:10AB6000B8EE400A60EE280A80EE890AFDF7F8FA8E
:10AB7000F0EE480A08EB870040EE480A7F1C4F457C
:10AB8000C0ED000AEAD3264849461838FEF710F807
:10AB9000C8B92E7100225146012007F025FCA8609B
:10ABA00088B10F4903200C31CDE90001C201002317
:10ABB0001CA1214807F086FE012807D0A86807F0ED
:10ABC00011FAAC60EC602C71002050E7EE700023AD
:10ABD00028224FF48061194801F0FAFD46E7000091
:10ABE000F42B002080F20020EC220120C2B1613F52
:10ABF0000CDA14BFE1D8703FAE0CFD3DD91E1ABF70
:10AC00004D5ABB3C4D5A3B3D8CF7023FE7584FBF76
:10AC10000000000000004842DB0FC9400080FF43F5
:10AC2000980A0120617474656E74696F6E5F746850
:10AC3000726561640000000025AF02003832030035
:10AC400070B504462DED048B8EB030216846FCF7BC
:10AC500078FC07F067F9302266496846FCF758FC33
:10AC600007F06AF902980025401C02908DF8045004
:10AC70000CA9204605AA06AB00F066F99DED0C0A6A
:10AC8000012628B103988DF80460401C039045E02C
:10AC9000204607A908AA09ABFFF7DEFD9DED070ACC
:10ACA000DDED080A30EE200A9FED531ADDED090AAA
:10ACB000524970EE011A30EE200A80EEA18A10EEA1
:10ACC000100A88428DED0A8ADCDD4D4CA06B062807
:10ACD0002BD294ED0C0A401C322170EE080A00EED3
:10ACE000100A0628C4ED0C0AB8EE401AA06380EEE4
:10ACF000810A84ED0D0A8DED0B0A8DF800108DF898
:10AD000001508DF802508DF8036007D39FED3D0A86
:10AD100084ED0F0A8DF802608DF80350684600F04C
:10AD200081F80EB0BDEC048B70BD606B884201DA17
:10AD300084ED0D1AD4ED0D0ADFED338A88EE200A7A
:10AD4000B0EE681ADFED310AFFF776FDB7EE001AB4
:10AD500060EE280A30EE011A9FED2D9A80EE810AEE
:10AD6000B0EE681AF0EE490AFFF766FDB0EE401A41
:10AD700094ED0F0AF6EE080A20EE200AF5EE000A1E
:10AD800001EE200AB0EE681AF0EE490A84ED0F0ACF
:10AD9000FFF752FD84ED0F0AE079002810EE100A4B
:10ADA00023D01C49884200DCE571F6EE000A30EE43
:10ADB000200ADFED190ABCEEC00A10EE100A8DF869
:10ADC0000000E0798DF801008DF802608DF80350E5
:10ADD00094ED0D0A8DED0B0A20EE200ADFED0F0A2F
:10ADE00008EE200A84ED0D0A98E70D498842DCDB65
:10ADF000E671DAE7EC220120CCBC8C2BCCBC8C2B8E
:10AE0000F42B0020000048420000C8420AD7233C2F
:10AE10000000000000004442EE7C7F3F6F12033BC5
:10AE200000004C4210B5040015D007F07BF830222A
:10AE300021460948FCF76CFB0848217801706178CD
:10AE400001B101214170A17801B101218170BDE8FA
:10AE5000104007F071B810BDEC220120F42B002047
:10AE600070B52C4CE07821790840A1684042084236
:10AE70000FD0E069401CE061FFF7A6FD206A4FF4A7
:10AE800080620121904205D2401C2062904200D194
:10AE9000617170BD607900B961711F4A20694FF41A
:10AEA000007302EB8001401C81ED000AC0F3080131
:10AEB000216160690025984204D2401C606198427B
:10AEC000E7D304E0A069401CA061FF28E1D9134E3C
:10AED0000020A5610D18C5F3080502EB850595ED69
:10AEE000000A06EB8005401C85ED000A9842F1D36C
:10AEF00000231A460949A06807F0CEFA0128C8D0F5
:10AF000007F010F806480169491C0161BDE870406E
:10AF100007F012B8F42B002080F2002080FA002005
:10AF2000EC220120064D4FF0FF3422460549A86867
:10AF300007F078FB0128F8D10248FFF781FEF4E71B
:10AF4000F42B0020800201202DE9F04186B01E463E
:10AF500014460F46050040D0F7B3ECB3E6B34FF408
:10AF6000007802AA4146FDF7B3F904AB6A464146B0
:10AF70002846FDF745F905AB01AA41462846FDF7ED
:10AF8000E9F9204A9DED020A0020414605EB8003C5
:10AF9000D3ED000A02EB8003401C70EEC00A884229
:10AFA000C3ED000AF2D303AA1648FDF741FE9DED5A
:10AFB000020A154987ED000A9DED030A84ED000A97
:10AFC0009DEC020A30EE600A10EE100A86ED000ACF
:10AFD000884206DD012005E0FFE7012006B0BDE85C
:10AFE000F0810020094A2168914201DD012200E040
:10AFF0000022074B994201DA012100E000211043B1
:10B000000843EBE79812012000401C450000E14393
:10B010000AD7A33C70B51500044609D0002028606B
:10B0200034B1206820B1A079800703D0072070BD1B
:10B030000E2070BD084600F0FDFAC0B2142804D0FE
:10B040002179814203D8042070BD052070BDE288BB
:10B05000216800FB02102860002070BD2DE9FC472C
:10B06000002517880646158090F82D00144689465D
:10B0700030B13A462146484600F0F0FA051E09D1A3
:10B08000B0784FF00C0A18B32088C846001DB842AB
:10B0900002D95046BDE8FC87684679DF0028F9D11F
:10B0A0002088032108F8001020881921401C80B254
:10B0B000208008F800102088401C80B2208000EB1F
:10B0C0000801BDF8000006F088FD218808442080B2
:10B0D000F0780222C8B1218896F9033001F1030CFF
:10B0E0004846BC45D5D8425421884FF0010C491C34
:10B0F00089B2218000F801C02188491C89B22180D1
:10B1000009F801302088401C20807068B8B121887F
:10B1100090F9003001F1030C4846BC45B9D84254BF
:10B1200021880A22491C89B2218042542188491C65
:10B1300089B2218009F801302088401C20803089A4
:10B1400050B1CDE900474B460622022106F1080026
:10B1500006F036FE051E9DD1308A50B1CDE900477C
:10B160004B460722032106F1100006F029FE051EBA
:10B1700090D1308B50B1CDE900474B4615221421B8
:10B1800006F1180006F01CFE051E83D1306A30B1AE
:10B190003B462246494601F028FA051EDBD1706A7B
:10B1A00030B13B462246494602F008F9051ED2D18D
:10B1B00096F82C0038B13B4622464946304605F009
:10B1C00027FC051EC7D1307838B13B462246494698
:10B1D000304602F07DF9051EBDD128465AE718B564
:10B1E00004460020ADF8000013466A46204600F0F1
:10B1F00006F8002802D0BDF80000204418BD70B544
:10B20000E0B1DAB1002402E0045D2C44A4B2651C74
:10B210008D4206D21688A642F6D8061976789E4246
:10B22000F2D18C420AD2A31C005D9BB200B1401E39
:10B230000004000C02D01C188C4201D9002070BD03
:10B24000138070BD80F8301070472DE9F0410D007B
:10B25000044606D02CB195F87A000026012803D0C8
:10B2600006E00E20BDE8F08195F89800012821D075
:10B270004FF00108A6702C2205F17801201DFCF783
:10B2800047F984F83060D5F8A4006063D5F8A800C9
:10B29000A0634FF6FF70A4F8240404F58260C4F89C
:10B2A0002004C4F82664A4F82A6484F82C64207866
:10B2B00010B104E00720D5E7FF2084F8540004F122
:10B2C00055072046C4F81074FEF7FEFFA4F81404D6
:10B2D00004F2144239462846FFF7C0FE0028C1D1C7
:10B2E00004F23120C4F818042046FEF7EDFFA4F85C
:10B2F0001C0404F21C4205F13C00D4F81814FFF7BA
:10B30000ADFE0028AED184F85180208BA4F848000F
:10B3100084F83C80266484F8506060690021606491
:10B32000454604F13C02781E72DF00289AD1257050
:10B3300098E710B50288102A1BD0112A20D0262A9F
:10B340001DD1007A0C46012801D0022817D1A0781F
:10B350000521401CB0FBF1F201FB1201204600F078
:10B360001DF800280BD0A16B002908D0BDE81040C3
:10B370000847C27B012A02D18088A1F8240410BDAD
:10B380000C46002184F82E148088B4F824148842D6
:10B39000F5D120790028F2D10121DFE72DE9F05F16
:10B3A000044600780F4698B1A7700025C4F82654CB
:10B3B000A4F82A5484F82C54A079012608B1012F4E
:10B3C00009D0E07980B1012F05D0022F03D00BE026
:10B3D0000820BDE8F09F616B21B184F82D6408203E
:10B3E000884701E084F82D5404F2274100200A5CCC
:10B3F0000AB1304603E0401C0628F8D300204FF085
:10B4000002084FF0030B012F06D0022F0CD0032FA0
:10B410000FD0042F15D110E0A17929B194F8241090
:10B4200011B908B130460DE0E17911B108B14046DB
:10B4300008E0207A08B1584604E0607A08B1042098
:10B4400000E02846A070616B41B1032801D00428B8
:10B4500004D1607910B194F82E0498B184F82F5477
:10B4600004F13C0018210746FCF76BF884F83C60B7
:10B4700004F12C0004F056FB58B194F82C0084F829
:10B48000510008E084F8305484F82F64072088477E
:10B49000E6E784F8516094F8240058B104F12800DC
:10B4A00004F040FB20B194F8280084F8520001E039
:10B4B00084F8526084F85050A27804F2264104F5D2
:10B4C00082694FF0060A052A64D2DFE802F07C03A5
:10B4D0000F22420084F83160C4F82054C4E91015EA
:10B4E00084F83C808020A4F8480055E084F831803E
:10B4F00094F82420384612B10722027001E080F847
:10B5000000B0228A8281C4F820544160E168B960A9
:10B5100042E06069B860208BB88194F824003D4611
:10B520000028204602D084F83CA001E084F83C606A
:10B5300006F028FC50B185F814800421204601F063
:10B540008FFB38BB052184F8311021E084F831B03D
:10B550001EE0E069B860208CB88194F824003D4674
:10B560000028204602D084F83CA001E084F83C602A
:10B5700006F008FC48B185F814800421204601F04B
:10B580006FFB38B984F831A002E0042084F8310060
:10B59000C4F82094A07878B13A4604F15400D4F865
:10B5A000201472DF00287FF414AF94F8301094F860
:10B5B000540073DF0028F6D1616B11B194F83100AB
:10B5C0008847002005E784F83150F5E770B504009E
:10B5D00012D001461C221448FBF79AFF1248134D63
:10B5E0000560206850B17ADF002806D12068016824
:10B5F00029604068686005E00E2070BD0B487BDF65
:10B600000028FAD108484FF6FF711438084A20F88C
:10B61000041B0549343901600021FEF7F9FE0028BA
:10B62000EBD0032070BD00005C230120B02C002073
:10B630001D1D030010B5044600F006F808B12046B1
:10B6400010BD142010BD0000142801D30020704745
:10B650000146014801F0D9BF7C2301207CB5054695
:10B6600008880C460930904201D90C207CBD684600
:10B670006DDF0028FAD121880820685420881B211A
:10B68000401C80B2208029542088401C80B2208039
:10B690002844DDF801100160BDF805108180208884
:10B6A000801D80B220809DF80010490800D0012143
:10B6B00029542088401C208000207CBD38B5314CA6
:10B6C0000188617022462129958840D018DC122912
:10B6D0000BD00BDC102926D0112906D10020A06048
:10B6E000A07020704FF6FF70A08038BD1329FCD1E8
:10B6F00000231A46852128467FDF014605200EE0FB
:10B700002229F2D03B2935D052292BD05629ECD111
:10B710008088132176DF01460828E6D00820BDE89E
:10B72000384000F053BA8088A080072000F0B0FCB9
:10B730000146022000F04AFAA188134802F0A8F856
:10B740000146032000F042FA0120A06038BD0F49F5
:10B7500009680091808869468FDF0146042000F067
:10B7600035FA38BD00231A4619462846B1DF01468E
:10B770000620D4E78088132176DF01460828F0D020
:10B780000720CCE7EC2A0020D02F0020082D030052
:10B7900010B51A4C0188606810290ED011292BD1E0
:10B7A000401E606028D1FEF797FD002824D0216854
:10B7B000002921D0BDE810400847D0B9002101225E
:10B7C000084600F043FC08B107280FD107220221E8
:10B7D000012000F03BFC08B1072807D10422022118
:10B7E000002000F033FC20B1072802D0216801B10D
:10B7F00088476068401C606010BD0000A82C0020D5
:10B800002DE9F04701883B4E40F2F3194FF6FF75E2
:10B8100010291BD011293ED0122954D0502946D1CD
:10B82000C188F289841D914241D1618902293ED1AA
:10B830008688304601F0C2FA050038D004F10C00C9
:10B8400000F00AFBA8B3294630464EE0C17B87884A
:10B85000044601292BD1A846284601F0AFFA05007D
:10B8600017D02F8000202872234843464A4601689B
:10B87000C5F80A104068C5F80E0004F1100105F182
:10B880000A0001F07CFB6872F08900280FD129467C
:10B890002AE0042013E0808801F090FA040006D02A
:10B8A0006068FEF71DFE08B105F082F82580BDE84E
:10B8B000F087FFE76868FEF713FE0028F7D0BDE8C1
:10B8C000F04705F075B887880646384601F076FAE5
:10B8D0000400ECD02B464A4606F1080104F10A00A8
:10B8E00001F04DFB607221463846BDE8F04700F09C
:10B8F000EBBE00005C230120B02C00202DE9F04FAE
:10B90000044686880188424897B0834610290CD0A7
:10B91000112950D0103019296AD01A2974D1217AEE
:10B920000C09042C4DD301224CE0394D083DA86888
:10B93000C0430B9069680BA801F088FE0B990CA816
:10B9400000F034FE2C220CA96846FBF7E1FD00272D
:10B95000E946A84610E000BF09EB47005FF000058C
:10B96000B0F804A008EB85005146001D01F042FE2E
:10B970006D1C1E2DF6D37F1C0098B842ECD8142EF7
:10B9800005D317B00420BDE8F04FFEF708BD3146DF
:10B99000584601F045FE314608F1040001F040FE32
:10B9A000E07B022830D117B03146BDE8F04F18488F
:10B9B000001D01F035BE17B03146BDE8F04F01F073
:10B9C00019BE0022314601F046F9032C01D30122B1
:10B9D00000E000220E4831460C3001F03CF9022C08
:10B9E00001D3012200E0002209483146083006E078
:10B9F000217A002908D1617AC1F3C002314617B01B
:10BA0000BDE8F04F01F027B917B0BDE8F08F000096
:10BA100080230120F0B585B016460F4604001D4670
:10BA200014D004AA19466069FFF7F4FA00280BD174
:10BA3000A5F57F40FF380BD0049848B1007848B195
:10BA40003088142808D9072005B0F0BD0E20FBE788
:10BA50000520F9E70820F7E7002000900190029008
:10BA60000390A088ADF8000001208DF80200CDE918
:10BA7000026769462846AEDFE6E7000070B5344D40
:10BA800004008EB02DCD08AE86E82D005DD0E9B360
:10BA90000868A061214608A862DF002853D12078F9
:10BAA0008DF832004FF6F170ADF83000A21C0CA9F1
:10BAB0000120A8DF002846D120216846FBF741FD80
:10BAC0000220ADF80000207801258DF802008DF8E5
:10BAD0000C509DF80D001426ADF8046040F00C00E9
:10BAE0008DF81150ADF806508DF80D008DF81250FC
:10BAF000608804F10C02694600F062FC002822D143
:10BB000020216846FBF71DFD032000E01DE0ADF895
:10BB1000000020788DF802008DF80C509DF80D0083
:10BB20008DF81150ADF8046040F010008DF81250FF
:10BB3000ADF806508DF80D008DF813506088221D69
:10BB4000694600F03DFC0EB070BD0E20FBE7000022
:10BB5000E42D030030B587B00446002928D0002C1E
:10BB600026D008462188102924D0502928D05729CA
:10BB70001ED10546A18840696A46FFF74BFA0028A6
:10BB800016D100980078002812D0A86900280FD09C
:10BB9000182101A8FBF7D5FC01208DF804000295BF
:10BBA000A088ADF80C0000980490A96901A8884706
:10BBB00007B030BD07B02146BDE8304003F090BE6D
:10BBC00007B02146BDE8304003F06ABF002905D028
:10BBD000034A1061D1605069401C506170470000F9
:10BBE000EC2A002073B5274C0546A088A0F57F41BC
:10BBF000FF3918D0A07800282BD002F0A1FFA0B107
:10BC0000BDF8040098B195B1A38801AA294604F1B2
:10BC10002000FFF7FFFE014607281DD009DC81B197
:10BC200004290AD123E018A011E01DA015E023A0EB
:10BC30000DE008290ED0132912D027A000F0C8FD6E
:10BC400008E02078002804D10120207028A000F00E
:10BC5000BFFD7CBD642007E02BA000F0B9FDF9E733
:10BC600035A000F0B5FD0A2006F0FCF97CBD37A038
:10BC700000F0AEFD06F07AFB014637A000F0A8FD0B
:10BC80007CBD0000EC2A00204E6F20616374697651
:10BC90006520636F6E6E656374696F6E0D0A0000D8
:10BCA0004E55532073657276696365206E6F7420FC
:10BCB000726561647979200D0A000000496E766131
:10BCC0006C6964206461746120706172616D657477
:10BCD0006572730D0A00000053656E642066616929
:10BCE0006C65643A2030782558200D0A0000000069
:10BCF000424C4520617474656E74696F6E205458AF
:10BD0000204F4B0D0A000000496E76616C6964207B
:10BD1000706172616D65746572732E20436865632E
:10BD20006B204E555320696E697469616C697A6144
:10BD300074696F6E200D0A00424C45207374616374
:10BD40006B2062757379200D0A0000004E4F204D64
:10BD5000454D2020202020004672656552544F53E7
:10BD6000206865617020667265653A20256C7520D3
:10BD70006279746573202020202020202020200D4F
:10BD80000A0000004FF00009204C90B0C8464F4612
:10BD9000A068012806D1A088A0F57F41FF3901D015
:10BDA000012600E00026A5786069E169884205D097
:10BDB0002169E268E06116A000F00AFD464504D062
:10BDC00031461CA000F004FDB046BD4204D0294617
:10BDD0001DA000F0FDFC2F46A068012811D185B1FF
:10BDE0006846FEF725FE60B10299494509D00CA9C5
:10BDF0006846FEF7B9FD0C210CA8FFF7F3FEDDF84D
:10BE00000890322006F02EF9C2E70000EC2A00204C
:10BE1000424C45204552522073746167653D256C44
:10BE20007520636F64653D30782530386C580D0A95
:10BE300000000000424C4520636F6E6E65637465C0
:10BE4000643D25750D0A0000424C45206E6F7469F3
:10BE500066793D25750D0A00007800F001007047F5
:10BE60003EB502F003FE08B1FEF799FA00246946D8
:10BE70000120009402F0A4FC08B1FEF790FA684695
:10BE800002F01EFD08B1FEF78AFA019402948DF8C3
:10BE9000044001A9022067DF002801D0FEF77FFAE5
:10BEA0003EBD000010B50DA000F092FC05F002FAB6
:10BEB000FFF7D6FF00F0F0FE00F04EFF04F0ECFDBF
:10BEC000FEF726FA00F0DAFBFEF758FA07A000F0BA
:10BED0007FFCBDE81040002006F0DEB8626C655FB4
:10BEE0007468726561640D0A000000006164766523
:10BEF00072746973696E672E2E2E0D0A00000000A1
:10BF0000094908B5085C0090684602F08BF8D0F843
:10BF10000425009B0121994021EA0203C0F808355D
:10BF20001140C0F80C1508BD982D03000249085CAB
:10BF3000012102F01EB90000982D03000249085C9F
:10BF4000002102F016B90000982D0300084908B539
:10BF5000085C0090684602F065F8D0F80405009986
:10BF6000C84010F0010000D0012080F0010008BDA1
:10BF7000982D030010B500242046FFF7D7FF641C5E
:10BF8000042CF9D310BD10B500242046FFF7D6FFCE
:10BF9000641C042CF9D310BD10B50246064B4FF0BB
:10BFA000FF3000215C5C944201D1084610BD491C61
:10BFB0000429F7D310BD00009C2D03002DE9F047A4
:10BFC0000D468146FFF7E8FF0446042836D2DFF825
:10BFD00074801B481C4EA8F10C0725B3012D0ED010
:10BFE000022D2BD104EB440030444578002D25D0A0
:10BFF000B968002922D02846BDE8F047084704EB7D
:10C000004401755C0E44717849B10E4A4FF4804189
:10C01000093A8068FEF73AFA08B987F80390B178D0
:10C0200008F80410E2E78068FEF75AFA04EB4401CE
:10C03000314418F804008D78A842D7D0BDE8F087C5
:10C04000A02D0300402C00201C23012070B50023EC
:10C05000042810D20D4D00EB4004012A02D1012921
:10C060000CD00022094E00EB4000304461B10129A0
:10C0700006D0022906D00723184670BD0E30C2B282
:10C080002A55F9E74270F7E78270F5E71C23012093
:10C09000044A014600201279D20702D0084600F077
:10C0A00003B87047342C00202DE9F05F6E4C054634
:10C0B00000266078B34618B184F801B000F082FF22
:10C0C0006A4F4FF47A694FF4C87A4FF00108182D7F
:10C0D00069D2DFE805F00C1313384754696E727BA0
:10C0E000727BC58484848484B3B6B9BCC5C500F0B2
:10C0F00069FF3868FEF7F4F906465CE00020FFF7B8
:10C1000025FF00284FF0000008D0FFF70FFF022D99
:10C1100002D14FF4E16008E0484606E0FFF70EFF69
:10C12000022D01D1C82000E05046410CC0034FF45D
:10C130007A72801841F10001257052000023FBF74C
:10C14000A3F901462AE00020FFF700FF00284FF086
:10C15000000004D0FFF7EAFE4FF44870E5E7FFF770
:10C16000EDFEDFE70020FFF7F1FE00284FF00000B2
:10C1700002D0FFF7DBFECFE7FFF7E0FED4E70020B9
:10C18000FFF7E4FE00284FF0000002D0FFF7CEFEDC
:10C1900001E0FFF7D3FE257040F6CD41002238685C
:10C1A000FEF774F9064646E00020FFF7A9FE257069
:10C1B00008E0002051E025703DE084F80180012076
:10C1C000FFF79EFE002240F26661E8E784F80180F6
:10C1D0000120FFF795FE00224FF40051DFE7786859
:10C1E000FEF77EF90646D5F1110000D02EB10220EF
:10C1F000FFF79CFE84F802B01DE0012816D980B23A
:10C20000C8214843C117C90341EA5041C0034FF454
:10C210007A72801841F1000152000023FBF734F9D3
:10C22000014600227868FEF731F906460220FFF742
:10C2300085FE84F802803046BDE8F09F00F0C2FE23
:10C24000B9E700F0BFFEB4E700F0BCFE04E000F088
:10C25000B9FE0020FFF772FE0120FFF76FFEAAE78C
:10C26000FFF791FEA7E70000342C0020A02D03006B
:10C270002DE9F84F0546861C00208DF800009146F8
:10C280000F464FF0010A6846FEF7E2F91B4C04F234
:10C290001C4860683860D4E90101194F401A3968B8
:10C2A000081A0EE00121404601F0CAF900F0AEFE86
:10C2B0000146404601F0C4F9D4E90101401A396849
:10C2C000081A401C8642EDD8B9F1000F03D00520B2
:10C2D00065F3891002E0062065F39F5061683A68B3
:10C2E000114004EB8101C8606068304460609DF8D3
:10C2F0000000FEF7D1F95046BDE8F88F482701202D
:10C300005C2D002070B50D4604460A2902D10D218E
:10C31000FFF7F8FFA0682268411CA1601554D4E91A
:10C320000101814204D32046BDE8704001F03DBCCC
:10C3300070BD0000044881684068814201D101203D
:10C3400070470020704700004827012005494FF042
:10C35000FF32082841F8202002D3084480F85220F8
:10C360007047000008240120F0B54FF0FF3512B1EE
:10C370000023082601E008230C260C4C05E000BF32
:10C3800054F823707F1C04D05B1CB342F8D32846BA
:10C39000F0BD26185DB286F8305044F82310002A0C
:10C3A000F5D1E11881F85200F1E7000008240120DE
:10C3B0000249084490F93000704700000824012029
:10C3C0002DE9F0438146887891B090460C4600B93B
:10C3D00001208DF83E002088ADF83C000025009536
:10C3E000607C694604F076FB6E46A07C711C04F00C
:10C3F00071FBE07B00289DF8020002D040F00800AD
:10C4000001E020F008008DF80200217C11B140F01D
:10C41000100001E020F010008DF80200217B11B126
:10C4200040F0010001E020F001008DF80200217DC4
:10C4300009B1022100E0012161F342008DF8020000
:10C440001C2102A8FBF77DF8607BC10601D48006A1
:10C4500017D50E950EAFE07C791C04F03BFB9DF8E0
:10C460003800079720F00F00401C20F0F00010303B
:10C470008DF838009DF83A0020F00600801C8DF8F9
:10C480003A00607B8DF80800A07B8DF8090014212C
:10C4900009A8FBF756F80FA8CDE90906A088ADF862
:10C4A0003000A06820B1E088ADF82C00A0680D90A5
:10C4B000A06998B301950088ADF81000A06901AD9E
:10C4C00001A94088ADF81200A06940680695039064
:10C4D000A069007B04F0FEFAA069691C407B04F0AF
:10C4E000F9FAA069807A00289DF8060002D040F091
:10C4F000080001E020F008008DF80600A169C97A63
:10C5000011B140F0100001E020F010008DF806009D
:10C51000A169097A19B140F0010002E00DE020F0B4
:10C5200001008DF80600A169897B09B1022100E0B4
:10C53000012161F342008DF80600E06900B1059029
:10C54000434609AA02A94846AADF11B0BDE8F08314
:10C5500070B5084C050009D010342168002907D0B7
:10C5600008682060496828468847F6E70834F4E7F9
:10C5700070BD0000F4230120054A012120B10128EB
:10C5800005D19170FFF7E4BF51700020FAE77047C2
:10C59000F423012010B5D0E90234D1E90220D11AE8
:10C5A000A04101D3012010BD002010BD73B58CB097
:10C5B0000646002000900D9880B100246D4621466B
:10C5C0000DA801F022F830B1009805EB40008480FE
:10C5D0000098401C0090641C142CF0D32C22694657
:10C5E0003046FAF795FF0EB070BD2DE9F04117887F
:10C5F0000646B81D14460D46984202D90C20BDE8E7
:10C60000F0813188072206290AD34FF4486C4FF68F
:10C61000FF73614501D9994202D17088062801D281
:10C620001046ECE7604501D99842F9D1994203D010
:10C63000984201D08142F3D80520E8552088122184
:10C64000401C80B2208029542088401C80B2208069
:10C650004119308805F0C1FA2188084480B2208051
:10C660004119708805F0B9FA21880844208000201B
:10C67000C5E701460920FFF7A9BA000000B587B059
:10C680001C216846FAF75DFF00204FF4A031CDE988
:10C6900000014FF4F021029103218DF80C10ADF848
:10C6A0000E008DF810000648059006480690684672
:10C6B000FEF78CFF002801D0FDF771FE07B000BD2A
:10C6C000C1F8020073C6020038B54A7A0F4B62B156
:10C6D00000220A725969002906D001228DF8002033
:10C6E000ADF802006846884738BD0A7A62B19B6897
:10C6F0004C68024619462046FDF7C8FE0028F3D0D4
:10C70000BDE8384004F054B95B68F1E75C230120D0
:10C7100070B588B00646002005900690ADF814105C
:10C72000ADF816100190029001AA05A9304690DFDD
:10C73000050021D002F09AFA034611481149324609
:10C74000401AC108012000EB014004460E4901F0E7
:10C75000E2FEBDF8042012B9BDF8060028B1BDF80C
:10C760000630204609A101F0D6FEBDF808201AB116
:10C770002046164901F0C8FE08B0284670BD0000EA
:10C78000E8710400E87104009432030054686520E5
:10C790007265717565737465642054582F52582002
:10C7A0007061636B6574206C656E67746820697373
:10C7B00020746F6F206C6F6E672062792025752F53
:10C7C0002575206F63746574732E0000E0320300DA
:10C7D0000FB4134870B500680024C00509D00020CC
:10C7E000104D296869B160B106F09EF8022802D0A8
:10C7F00007E00120F4E74FF0FF31286806F022F847
:10C80000044605A90498FCF749FD0646012C02D10F
:10C81000286805F0F1FE304670BC5DF814FB00009E
:10C8200004ED00E0E82A00207FB52C4B0FCB8DE80B
:10C830000F001C2001F065FB192001F062FB0320B2
:10C8400001F05FFB00211F2001F040FB1C2001F0E4
:10C850005EFC032001F0AEFB192001F058FC204CD7
:10C860000125207808BB02208DF8000025208DF8D6
:10C8700001001D208DF80200FF208DF80300A8069E
:10C880000290002615488DF80C508DF80D60334647
:10C8900032466946103801F0C7F8010004D011A0F3
:10C8A000FFF796FF26707FBD2570032001F082FB05
:10C8B000192001F02CFC642001F071F8192001F01E
:10C8C00079FB022001F06BF8192001F020FC4FF4F5
:10C8D000167001F064F8A5707FBD0000882D03007C
:10C8E000A02B00204144533132393220535049208B
:10C8F000696E6974206661696C65642C206572726A
:10C900003D256C750D0A000008B5002200921F2815
:10C9100014D1022912D10A48806800280ED0694635
:10C9200005F016FC0098002808D006494FF080500A
:10C93000086040BFBFF34F8FBFF36F8F08BD00008B
:10C94000A02B002004ED00E010B50021024800F00B
:10C9500088FE80F3100010BD642B01204FF480325C
:10C960008A400168C1F848230068C0F8082370476E
:10C970004FF4A07202EB810189B200F030B92DE9C9
:10C98000F04105460E464FF4A07000EB860081B2E0
:10C9900028684FF48034B440984622F07F47C0F8AE
:10C9A00008432868C0F84843286801F0F8FE286862
:10C9B00000EB8600C0F840752868C0F84443B8F121
:10C9C000000F02D02868C0F80443BDE8F081006879
:10C9D000D0F804057047000070B54379234C44F843
:10C9E00023204279231D03EBC202224C1579204AF1
:10C9F000121BD4082DB10825022000EB04401EA113
:10CA000030E005680A88C5F8082590F9042089787F
:10CA1000002A4FEA411104DB02F1E02282F80014FF
:10CA200005E002F00F0202F1E02282F8141D90F9F5
:10CA300004100122002909DB01F01F0502FA05F5A7
:10CA40004909890001F1E021C1F80051417900252F
:10CA500003EBC1010A71417943F83100032000EB77
:10CA600004400EA101F04CFD284670BD402D002071
:10CA700040720400E871040052544320696E7374DC
:10CA8000616E636520616C726561647920696E69AD
:10CA90007469616C697A65642E0000005254433AEF
:10CAA00020696E697469616C697A65642E000000A2
:10CAB00090F90400002809DB00F01F0201219140D9
:10CAC0004009800000F1E020C0F8001270470A46DB
:10CAD000022100F07BB84FF4827100F080B800684A
