:020000040002F8
:1070000090660020657402006D7402006F740200C7
:1070100071740200737402007574020000000000B5
:1070200000000000000000000000000019720200D3
:1070300079740200000000005D7202007D7402009D
:10704000117C02007F740200DD7E0200357D0200AB
:10705000417D02007F7402006D7B02007F7402009C
:107060007F7402007F7402007F740200617C020062
:107070007F7402007F7402007F7402007F7402003C
:107080007F740200717C02007F7402007F74020032
:107090007F7402007F7402004D7D02007F74020045
:1070A0007F7402007F7402007F7402007F7402000C
:1070B0007F7402007F7402000000000000000000E6
:1070C0007F7402007F7402007F7402007F740200EC
:1070D0007F7402007F7402007F7402007F740200DC
:1070E0007F740200000000000000000000000000AB
:1070F000000000007F740200000000007F740200A6
:10710000000000000000000000000000000000007F
:10711000000000000000000000000000000000006F
:10712000000000000000000000000000000000005F
:10713000000000000000000000000000000000004F
:10714000000000000000000000000000000000003F
:10715000000000000000000000000000000000002F
:10716000000000000000000000000000000000001F
:10717000000000000000000000000000000000000F
:1071800000000000000000000000000000000000FF
:1071900000000000000000000000000000000000EF
:1071A00000000000000000000000000000000000DF
:1071B00000000000000000000000000000000000CF
:1071C00000000000000000000000000000000000BF
:1071D00000000000000000000000000000000000AF
:1071E000000000000000000000000000000000009F
:1071F000000000000000000000000000000000008F
:10720000DFF810D000F074FC00480047F19F020046
:10721000AFF3008090660020264B19680868B0E83C
:10722000F04F80F30988BFF36F8F4FF0000080F3B9
:1072300011887047000000000748006880F3088844
:1072400062B661B6BFF34F8FBFF36F8F4FF4F0702C
:1072500080F3118800DF000000700200EFF3098066
:10726000BFF36F8F134B1A681EF0100F08BF20ED8D
:10727000108A20E9F04F106008B44FF0400080F30E
:107280001188BFF34F8FBFF36F8F06F0CBFC4FF029
:10729000000080F3118808BC19680868B0E8F04F56
:1072A0001EF0100F08BFB0EC108A80F30988BFF3FE
:1072B0006F8F7047202B002030B450E8012F93B21D
:1072C000C48923448489A34228BF1B1B0489A34289
:1072D00002BFBFF32F8F002007E0C3EA020340E89C
:1072E0000134002CE9D14FF001000A6030BC704736
:1072F00050E8012FC2EA024240E801210029F7D1FB
:10730000704730B450E8022F1FFAA2F3C488A3429A
:1073100002BFBFF32F8F00200DE0C489234484896E
:10732000A34228BF1B1BC2EA034340E80234002CDF
:10733000E8D14FF001000A6030BC704750E8022FDE
:10734000C2EA224240E802210029F7D170470346F1
:1073500053E8022FD988B2EB324F4FF0000017BF2D
:1073600092B241EA014142EA014104E05A68B2EBBB
:10737000324F08BF012043E80212002AE8D17047CB
:1073800030B4044654E8000F0D4644E80053002B87
:10739000F8D1156030BC704730B4044654E8000F93
:1073A00040EA010544E80053002BF7D1156030BCDA
:1073B000704730B4044654E8000F00EA010544E881
:1073C0000053002BF7D1156030BC704730B4044631
:1073D00054E8000F80EA010544E80053002BF7D180
:1073E000156030BC704730B4044654E8000F00EB21
:1073F000010544E80053002BF7D1156030BC7047FD
:1074000030B4044654E8000FA0EB010544E80053F3
:10741000002BF7D1156030BC704770B404464FF0B4
:10742000000054E8006F0D68AE4207BF44E8002337
:10743000012044E800630E60002B1CBF0020F0E731
:1074400070BC704730B4044654E8000F88422CBF2B
:10745000451A054644E80053002BF5D1156030BCB1
:10746000704700000648804706480047FEE7FEE7F1
:10747000FEE7FEE7FEE7FEE7FEE7FEE7FEE7FEE7E4
:10748000517D0200017202002DE9F05F05460020E7
:1074900092469B4688460646814640241BE0284685
:1074A00041464746224600F03CFA53465A46C01A27
:1074B000914110D311461846224600F016F82D1AB5
:1074C00067EB01084F4622460120002100F00DF82D
:1074D00017EB00094E41201EA4F10104DFDC4846F1
:1074E00031462A464346BDE8F09F202A04DB203A75
:1074F00000FA02F1002070479140C2F1200320FA07
:1075000003F31943904070470048704780E9020038
:1075100040EA01039B0703D009E008C9121F08C015
:10752000042AFAD203E011F8013B00F8013B521E95
:10753000F9D27047D2B201E000F8012B491EFBD20C
:1075400070470022F6E710B513460A46044619466E
:10755000FFF7F0FF204610BD421C10F8011B002968
:10756000FBD1801A70472DE9FE4F804681EA030067
:10757000C00F0C46009021F0004123F00045B8EB0D
:107580000200A94105D24046214690461C460B46C2
:10759000024623F00040104347D0270DC7F30A00EE
:1075A000C3F30A510290401A019040286BDAC3F3EA
:1075B000130040F4801B0098924620B10023D2EBC8
:1075C000030A63EB0B0B01985946C0F14002504689
:1075D000FFF78BFF06460D4650465946019A00F0CC
:1075E000B0F910EB08006141002487EA115284EAE7
:1075F000E7731A4340D0009A62B3019A012A4FEA16
:10760000075215DC001B61EB02014FF0004202EA59
:107610000752CDE90042001C41F5801132462B464D
:1076200000F0E7F903B0BDE8F08F40462146F9E7E6
:10763000001B61EB0201001C41F5801300185B4147
:107640002018A2F5001747EB030140EAD570B619E0
:107650006D4111E06D084FEA360645EAC0754FEA04
:107660000752001B61EB0201001C41F58011490823
:107670004FEA30000019514132462B4603B0BDE8B5
:10768000F04F00F0A7B90098012240000023D0EB92
:10769000020263EBE073009821464FEAE074B8EB16
:1076A000000061EB0401E9E783F000435BE781F050
:1076B000004158E72DE9FE4F81EA030404F000443D
:1076C00021F0004100944FF0000B23F0004350EAFA
:1076D00001045ED052EA03045BD0C3F30A54C1F341
:1076E0000A552C44A4F2F3340194A0FB0254C1F3D4
:1076F000130141F48011C3F3130343F4801301FB1E
:10770000024400FB034E840A970A44EA815447EA84
:107710008357A4FB076802958D0A05FB07854FEA8E
:10772000932C04FB0C542705029D4FEA065847EAA8
:107730001637B5EB08056EEB070C870E920E47EA7D
:10774000811742EA8312A7FB0201B6EB0B0164EB3F
:1077500000042B0D43EA0C335E1844EB1C50DA4650
:107760005146E7FB0201C5F313044FEA0B3343EA2A
:1077700014534FEA0432019C43EA0603A4F10C04BB
:107780000294009CCDE900B400F033F903B0BDE8E9
:10779000F08F00200146F9E72DE9F04D81EA03045E
:1077A00004F0004B21F0004514464FF0000A23F08E
:1077B000004150EA050220D054EA01021DD0C5F371
:1077C0000A570246C5F31303C1F31300C1F30A5667
:1077D00040F4801543F48013A7EB0608101BD6462F
:1077E00008F2FD3873EB050002D308F1010801E04F
:1077F00092185B41B8F1000F03DA00200146BDE8A2
:10780000F08D00204FF48011064684460EE0171BD1
:1078100073EB050705D3121B63EB050306434CEA24
:10782000010C49084FEA300092185B4150EA010709
:10783000EDD152EA030012D082EA040083EA050186
:10784000084305D0101BAB4106D20122002306E0FD
:1078500000224FF0004302E06FF0010253101AEBD8
:1078600006004CEB085110EB0A0041EB0B01BDE8A0
:10787000F04D00F0AFB80EB5C10F80EAE0700844DB
:10788000CA07002140F233438DE80E000A460B463A
:1078900000F0AFF803B000BD00F0004230F000404F
:1078A0000AD0C10D01F56071C0F3160042EA015122
:1078B000C20840071143704700200146704701F09D
:1078C000004330B421F0004150EA010206D00A0D15
:1078D000A2F56072C1F31301002A02DC30BC002063
:1078E0007047440F44EAC104C100E01830BC00EB0B
:1078F000C25000F038B830B50B46014600202022B7
:10790000012409E021FA02F59D4205D303FA02F5AC
:10791000491B04FA02F52844151EA2F10102F1DC0C
:1079200030BD202A04DB203A21FA02F00021704702
:1079300021FA02F3D040C2F12002914008431946D7
:107940007047202A06DBCB17203A41FA02F043EABF
:10795000E07306E041FA02F3D040C2F12002914008
:107960000843194670470029A8BF7047401C4900CA
:1079700008BF20F00100704710B4B0FA80FC00FA94
:107980000CF050EA010404BF10BC704749B1CCF1BF
:10799000200421FA04F411FA0CF118BF012121434B
:1079A0000843A3EB0C01CB1D4FEA00614FEA102006
:1079B00042BF002010BC704700EBC35010440029A8
:1079C000A4BF10BC7047401C490008BF20F0010054
:1079D00010BC704710B5141E73F1000408DA401C87
:1079E00041F1000192185B411A4301D120F00100DE
:1079F00010BD2DE9F04D92469B4611B1B1FA81F2CE
:107A000002E0B0FA80F220329046FFF76EFD0446A5
:107A10000F4640EA0A0041EA0B0153465A46084322
:107A200013D0114653EA010019D0C8F14002504664
:107A3000FFF777FF05460E46504659464246FFF788
:107A400054FD084305D0012004E020463946BDE836
:107A5000F08D0020054346EAE0762C4337430A9830
:107A60006305E40AA0EB08000022FD0A44EA47543B
:107A70000A3002D500200146E9E7010510196941E5
:107A8000DDE9084500196941BDE8F04DA2E7C1F301
:107A90000A52C1F3130140F2FF3341F480119A42BC
:107AA00002DA00200146704740F233439A42A2F2C4
:107AB000334202DC5242FFF734BFFFF716BD00002D
:107AC00030B5041E71F1000404DB4FF00044404265
:107AD00064EB0101141E73F1000405DB1C464FF03A
:107AE0000043524263EB0403994208BF904230BD09
:107AF000064C074D06E0E06840F0010394E80700FB
:107B000098471034AC42F6D3FFF77EFB70EF0200CB
:107B100090EF020070B58C1810F8015B15F00703A8
:107B200001D110F8013B2A1106D110F8012B03E016
:107B300010F8016B01F8016B5B1EF9D12B0705D41E
:107B40000023521E0DD401F8013BFAE710F8013B67
:107B5000CB1A921C03E013F8015B01F8015B521E83
:107B6000F9D5A142D8D3002070BD00002DE9FC4119
:107B70000025DFF8948000954FF4807601242F468D
:107B80000195304602F0A4FF38B1D8F80403204232
:107B900003D0304602F092FF2543361D64007F1C5F
:107BA000B6B2082FEDD34FF4BE74204602F090FF1A
:107BB00048B1204602F082FF45F000456A460221A6
:107BC000002002F0E1FE15F0FF0F16D00126002480
:107BD0002E420ED008EB8401D1F81005D1F8101513
:107BE000C0F30520094AC1F3014152F8242002B133
:107BF00090477600641C082CEAD3002D02DA684610
:107C000004F076F8BDE8FC81006000408855002053
:107C100070B54FF48076304602F036FC0F4DB40557
:107C200040B1304602F037FC0120C4F8080329684F
:107C3000002088474FF48276304602F025FC002869
:107C40000AD0304602F027FC0220C4F80803296855
:107C5000BDE870400120084770BD0000842C002062
:107C600003220021014802F0CDB8000000B000401E
:107C70002DE9F041164E4FF4A071304603F031FA71
:107C80000025EFF31184402080F31188D6F80475A5
:107C90008100304603F025FA06F0D0FA381A20F0B9
:107CA0007F46012E07D906F0BBFA022803D0002632
:107CB00006F0CAFA0543761EFAD225B105494FF0FF
:107CC0008050086040BFE0B280F31188BDE8F081C9
:107CD0000010014004ED00E070B50E46144900EBC1
:107CE000400001EBC0051446E86A183520B10128B0
:107CF0000FD0022805D113E0284600F0F5F8A04285
:107D000001D2002411E022463146284600F031F924
:107D10000BE0284600F0E8F8A042F4D20446F2E76F
:107D20003146284600F0F8F80446204670BD0000B1
:107D3000045C002001480068004700008C2C0020F3
:107D40000148006800470000942C002003F006BAA8
:107D500010B54FF080520023D2E94C100D2906D106
:107D60008C07C4F80C31C4F81031534C23600D2932
:107D700055D1524B1B68524C2360504B1B1D1B6846
:107D8000241D23604D4B08331B68241D23604B4B7F
:107D90000C331B68241D2360484B10331B68241DC3
:107DA0002360464B14331B68241D2360434B183358
:107DB0001B68434C20342360404B1C331B68241D3C
:107DC00023603E4B20331B68241D23603B4B243330
:107DD0001B68241D2360394B28331B68241D236036
:107DE000364B2C331B68241D2360344B30331B6807
:107DF000334C40342360314B34331B68241D2360E3
:107E00002E4B38331B68241D23602C4B3C331B68DE
:107E1000241D2360294B40331B68241D23600D293A
:107E200006D128480168C90702D06FF0010101603E
:107E30002548016841F470010160BFF34F8FBFF323
:107E40006F8FD2E94C104FF010220D2907D130B1BD
:107E5000012804D0D2F80802174920310860D2F86E
:107E60000002002803DBD2F8040200281FDA0120F8
:107E700003F004FE1221C2F8001214480368002B1C
:107E8000FCD0C2F8041201680029FCD0002003F0E5
:107E9000F5FDBFF34F8F0C487C3801680C4A01F4A4
:107EA000E06111430160BFF34F8F00BFFDE70A4956
:107EB0000848086010BD00003805004004040010A8
:107EC00020C500400004004088ED00E000E40140CF
:107ED0000400FA050090D003682D002001480068D6
:107EE000004700009C2C00200269C1688A4203D828
:107EF0008068401A104400E0501A401E7047002865
:107F000009DB00F01F02012191404009800000F1CF
:107F1000E020C0F8801270472DE9F047C46817468A
:107F2000894606464FF000083069A04201D9051B7A
:107F300002E0B168201A0D1AB0686D1E001BA8423D
:107F400000D80546BD4200D33D4670682A4620440D
:107F50004946FFF7DDFAB0687F1B2C44A844A944CA
:107F6000A04200D10024F460002FDDD14046BDE8DE
:107F7000F0872DE9F04104468846D4E90207C51B85
:107F8000E168606816460844B54206D94146FFF7E5
:107F9000BFFAB819E060BDE8F0812A464146FFF714
:107FA000B7FA761B08EB050132466068FFF7B0FAB6
:107FB000E660F0E70FB4054B10B503A9044A029838
:107FC00000F0DAF810BC5DF814FB0000499C0200D8
:107FD000002D002002E008C8121F08C1002AFAD1B3
:107FE00070477047002001E001C1121F002AFBD139
:107FF000704700002DE9FF5F82B00021DDE9043009
:10800000020DDDF840B0034318D044F61050A2F240
:10801000FF3242431514119801281FD0A5EB0B0025
:10802000401C5FEA000A4FF000064E4FDFF838911F
:10803000B046504615D5CAF1000413E0119801244A
:108040004AA3012801D16FEA0B010298119AC0E9F5
:108050000031C0E9024206B0BDE8F09FCBF100005C
:10806000DFE704460021404A491842EB0450CDE9BD
:10807000001012E0E00707D032463B464046494632
:10808000FFF718FB8046894632463B4610461946A4
:10809000FFF710FB06460F466410002CEAD1DDE91D
:1080A0000401DDE90023BAF1000F06DAFFF702FB55
:1080B00042464B46FFF7FEFA05E0FFF76DFB4246EE
:1080C0004B46FFF769FB04460E460022284BFFF79C
:1080D000F7FC03D84FF0FF30014607E00022254BA4
:1080E00020463146FFF73FFAFFF7D1FC102409E0A4
:1080F000002C0ADB0A220023FFF7C6F9039B30326B
:108100001A55641E50EA0102F2D1641C039AC4F1AC
:1081100011031444119A012A03D0012208430DD1FE
:108120000AE0084304D000204FF0110B119072E7D1
:10813000A3EB0B056D1E0DE05B4504DD4FF0000267
:1081400005F1010504E003DA4FF00002A5F1010595
:10815000002AECD002981199C0E90231C0E900452B
:1081600079E70000000014400000F03F30000000FC
:108170000000F0430000E03F2DE9FF4F95B09A4624
:10818000884606460025EEE1252877D100242746BB
:10819000F94A0121039400E0044316F8013F203B13
:1081A00001FA03F01042F7D130782A2811D06FF08D
:1081B0002F033078A0F13002092A16D8039A44F030
:1081C000020402EB820203EB42021044761C03908D
:1081D000EFE758F8042B0392002A03DA504244F4E4
:1081E0000054039044F00204761C30782E2816D1F7
:1081F00016F8010F44F004042A280DD06FF02F0266
:108200003078A0F13003092B09D807EB870302EB84
:108210004303C718761CF3E758F8047B761C3078C4
:108220006C280FD006DC4C2817D068280DD06A289F
:1082300014D104E0742810D07A280FD10DE044F452
:1082400000140AE044F4801401E044F4401472780D
:10825000824202D104F58014761C761C30786628A0
:108260000BD013DC582877D009DC002875D04528BE
:10827000F6D04628F4D047281AD193E118E06328B5
:1082800035D0642879D0652812D18BE1702873D05D
:1082900008DC6728F1D069286FD06E280DD06F28D0
:1082A00006D1ACE073282CD0752874D0782853D030
:1082B0005246179990476D1C54E1C4F302500228AE
:1082C00009D003280DD0D8F8001004280DD00D6077
:1082D00008F1040846E1D8F80010EA17C1E9005295
:1082E000F6E7D8F800100D80F2E70D70F0E718F807
:1082F000041B8DF8001000208DF80100EB460120D2
:1083000003E058F804BB4FF0FF3061074FF0000165
:1083100002D40DE009F101018946B9420FDA814525
:10832000F8DB1BF809100029F4D108E009F101017C
:1083300089468142FADB1BF809100029F6D103981F
:108340005346A0EB090721463846179A00F080FAF9
:10835000284400EB090507E044E008E10DE01BF8C4
:10836000010B524617999047B9F10109F7D25346CC
:1083700021463846179AF2E039E00A21C4F3025246
:108380004FF0000B0091022A06D058F8040BC117D9
:10839000032A09D00AE023E008F1070020F00702D1
:1083A000F2E80201904605E000B2C117042A01D1AB
:1083B00040B2C117002906DA0A460021404261EBAB
:1083C00002012D2202E0220504D52B228DF8042083
:1083D000012203E0E20701D02022F7E7914657E0AF
:1083E0000A2100E010214FF0000B00910BE010215A
:1083F0004FF0000B44F004040827009103E008202C
:108400004FF0000B0090C4F30252022A05D058F836
:10841000040B0021032A08D008E008F1070020F02F
:108420000702F2E80201904603E080B2042A00D17C
:10843000C0B24FF0000922072AD53278702A07D03F
:10844000DDF800C08CF0100C5CEA0B0C05D00EE0DF
:1084500040228DF80420012208E050EA010306D0F2
:1084600030238DF804308DF8052002229146009BC0
:1084700083F0080353EA0B030AD150EA010201D149
:10848000620705D530228DF804204FF001097F1EC8
:108490003278582A04D039A20C920CAA02920BE02E
:1084A0003BA2F9E75B46009AFEF7EEFF0C9B9B5C54
:1084B000029A521E0292137050EA0102F2D10298FF
:1084C00004A9081A00F1200B600702D524F48034B7
:1084D00000E001275F4502DDA7EB0B0000E0002074
:1084E00000EB0B01009003984944401A0390E0030D
:1084F00006D453462146179A039800F0A9F905447B
:10850000002706E001A85246C05D179990476D1CF0
:108510007F1C4F45F6DBE0030CD553462146179AE6
:10852000039800F095F9054404E03020524617996D
:1085300090476D1C0099481E00900029F5DC08E06A
:108540000298029952460078491C02911799904767
:108550006D1CBBF10001ABF1010BF1DC5BE100F044
:1085600065F90544761C307800287FF40DAE19B00B
:108570002846BDE8F08F0000092801003031323371
:10858000343536373839616263646566000000004F
:108590003031323334353637383941424344454639
:1085A00000000000600700D4062708F1070020F053
:1085B0000700F0E80223804603F0004C5FEA0C005D
:1085C00001D097A009E0200501D596A005E0E007BD
:1085D00001D095A001E0AFF24C001390307823F069
:1085E000004365280CD006DC452809D046281DD05C
:1085F00047287FD13BE0662818D067287AD136E03B
:108600000021112F01DB112000E0781CCDE90001D1
:1086100004A90CA8FFF7EEFCDDE90D010C9A4FF060
:10862000000B07F10109109200914EE04FF000405D
:108630000097CDE9011004A90CA8FFF7DBFCDDE9E8
:108640000D020C9B0F994FF0000B91461093009276
:1086500011B9791C00EB0109B7EB090003D4C0F193
:10866000FF3B07F10109A9EB0700019042E0012F50
:1086700000DA01270021112F01DD112000E038462A
:10868000CDE9000104A90CA8FFF7B4FCDDE90D0158
:108690000C9A00914FF0000BB946109221070FD4AD
:1086A000009A4A4503DA914601E0A9F10109B9F1BE
:1086B000010F05DD109AA9F10101515C3029F4D0B8
:1086C000B84202DA10F1040F03DA0121CDE90110FA
:1086D00010E0002803DC8344A9EB000102E0411C08
:1086E000494500DD8946A0EB0B00401C01904FF08E
:1086F00000400290200705D40198484502DB4FF066
:10870000FF30019000208DF84B0002980DF14B07CF
:10871000B0F1004F25D002200C902B200D90029834
:1087200000280CDA404202902D200D9007E00A212B
:108730000298FFF7E0F83031029007F8011D0C991C
:10874000481E0C900029F2DC02980028EFD1791E17
:108750000D980870307800F0200040F0450007F8D0
:10876000020D11A8C01BC01D02901398007800B123
:10877000012000EB0901019801EBE071029801442E
:108780000398401A401E0390E00306D45346214646
:10879000179A039800F05CF805441398007818B114
:1087A0005246179990476D1CE00323D55346214646
:1087B000179A039800F04CF805441BE0BBF1000F3A
:1087C00007DB0098584504DD1098179910F80B0046
:1087D00001E0179930205246904701980BF1010BA8
:1087E000401E05F10105019004D12E205246179933
:1087F00090476D1CB9F10001A9F10109DEDC05E02B
:1088000017F8010B5246179990476D1C0299481EA4
:1088100002900029F4DC53462146179A03989EE6FD
:108820002D0000002B000000200000002DE9F04189
:10883000044600251E461746880404D405E0394640
:108840002020B0476D1C641EF9D52846BDE8F08194
:108850002DE9F041044600251E469046C80301D587
:10886000302700E02027880404D505E0414638463B
:10887000B0476D1C641EF9D52846BDE8F08110B5DF
:1088800001220221002000F0FDFE08B1072810D1CE
:1088900007220221012000F0F5FE08B1072808D1C7
:1088A00000210A22084600F0EDFE08B1072800D199
:1088B000002010BD10B572B602F038FB02F098F936
:1088C0000028FBD111481249401AC408012000EBCE
:1088D000044010A102F0A6FA11480068C00700D0B9
:1088E00000BE022000EB04400EA102F09BFABFF391
:1088F0004F8F0B48E43801680E4A01F4E0611143E0
:108900000160BFF34F8F00BFFDE7000018F00200C9
:10891000A0EF0200466174616C206572726F720094
:10892000F0ED00E053797374656D207265736574C2
:10893000000000000400FA050EB500210091CDE909
:1089400001106A4644F20100FFF7B4FF0EBD10B5F6
:108950008268C368934203D001F04AF9002010BD39
:10896000052010BD29B112B1531E134203D00920B6
:1089700070470E2070470160838000218160C160D4
:108980000846704710B58268C3689A1A83889A426D
:1089900003D801F037F9002010BD042010BDF8B550
:1089A0000446002617460D468DF80060684600F024
:1089B000D9F8D4E90201C04370EA010005D09DF85E
:1089C000000000F0F3F80020F8BD01F045F940196F
:1089D0007141C4E902019DF8000000F0E7F8A761C9
:1089E000206900B125612146BDE8F840002004F06F
:1089F000D9B938B5044600208DF80000684600F06B
:108A0000B1F8D4E90201C04370EA01000DD04FF083
:108A1000FF30C4E902009DF8000000F0C7F82146CD
:108A2000BDE83840012004F0BDB99DF8000000F019
:108A3000BDF8002038BD000070B50A4E01460A4856
:108A4000B578FFF784FF04464DB10020B070711C6B
:108A50000122C81D01F0E8FD08B1FFF76DFF2046B7
:108A600070BD0000E42C0020B8560020F0B5244E64
:108A700089B01F460D00044672603FD0A88829685F
:108A800082B22048FFF76EFF002835D1A889A96877
:108A900082B21C481030FFF765FF00282CD120223D
:108AA00019496846FEF734FD60690690207C00B1E4
:108AB00001208DF814008DF81C70607C00B10E2030
:108AC0008DF81500E0680290A0680390206801907E
:108AD000606800900A480D4A6946083001F070FD50
:108AE000002809D1B0702068401C05D0044901223B
:108AF000491CC81D01F098FD09B0F0BD0720FBE737
:108B0000E42C0020B8560020D8E6020065D302000D
:108B100010B501461048FFF735FF040019D10F4882
:108B20000F4A0178515C19B1001D02F099FF02E073
:108B30000C3002F06FFE60B9084907480839FFF7AA
:108B400006FF30B9054901220839044801F07CFDCF
:108B50000446204610BD0000C8560020EC2C002022
:108B6000702C002030B5EFF3108172B60D4A946876
:108B7000012324B10370002900D162B630BD936097
:108B80004FF0E023D3F88051074C25401560C3F81F
:108B90008041D3F8844154605A17C3F884210022DD
:108BA0000270E8E7D8560020FC06FFBD0B498A6832
:108BB000002A11D000280FD1EFF3108072B60B6895
:108BC0004FF0E022C2F800314B68C2F804310022B5
:108BD0008A60002800D162B670470000D856002095
:108BE00070B5054608680C46411C04D001F034FFFE
:108BF000206801F09DFE6068411C02D0002101F058
:108C000085FE2968A069C1F82405607D227D296858
:108C10001043C1F86C05D4E900122868C0F8142587
:108C2000C0F80C15207D012814D1A068411C02D089
:108C3000002101F06BFEE068411C04D001F00CFF44
:108C4000E06801F075FED4E902122868C0F8082532
:108C5000C0F8101570BD70B5054608680C46411C7B
:108C600004D001F003FF206801F06CFE6068411C35
:108C700002D0002101F053FE2968A069C1F8240543
:108C8000607D217D2A680843C2F86C05D4E9001292
:108C90002868C0F80C15C0F81425207D012814D1CF
:108CA000A068411C02D0002101F039FEE068411C9F
:108CB00004D001F0DBFEE06801F044FED4E90212CA
:108CC0002868C0F80825C0F8101570BD70B51500EB
:108CD000044609D00020286034B1206820B1A07972
:108CE000800703D0072070BD0E2070BD084600F03D
:108CF00091F9C0B2142804D02179814203D804200C
:108D000070BD052070BDE288216800FB021028605C
:108D1000002070BD18B504460020ADF800001346D1
:108D20006A46204600F006F8002802D0BDF8000090
:108D3000204418BD70B5E0B1DAB1002402E0045D52
:108D40002C44A4B2651C8D4206D21688A642F6D8E1
:108D5000061976789E42F2D18C420AD2A31C005D9D
:108D60009BB200B1401E0004000C02D01C188C42C3
:108D700001D9002070BD138070BD10B50288102A83
:108D80001BD0112A20D0262A1DD1007A0C4601289A
:108D900001D0022817D1A0780521401CB0FBF1F2C8
:108DA00001FB1201204600F01DF800280BD0A16B3A
:108DB000002908D0BDE810400847C27B012A02D133
:108DC0008088A1F8240410BD0C46002184F82E14DC
:108DD0008088B4F824148842F5D120790028F2D193
:108DE0000121DFE72DE9F05F044600780F4698B1D6
:108DF000A7700025C4F82654A4F82A5484F82C54EB
:108E0000A079012608B1012F09D0E07980B1012FA6
:108E100005D0022F03D00BE00820BDE8F09F616B66
:108E200021B184F82D640820884701E084F82D548E
:108E300004F2274100200A5C0AB1304603E0401CDE
:108E40000628F8D300204FF002084FF0030B012F43
:108E500006D0022F0CD0032F0FD0042F15D110E015
:108E6000A17929B194F8241011B908B130460DE068
:108E7000E17911B108B1404608E0207A08B15846BE
:108E800004E0607A08B1042000E02846A070616B1D
:108E900041B1032801D0042804D1607910B194F8BD
:108EA0002E0498B184F82F5404F13C001821074691
:108EB000FEF747FB84F83C6004F12C0002F00CFF45
:108EC00058B194F82C0084F8510008E084F830542C
:108ED00084F82F6407208847E6E784F8516094F807
:108EE000240058B104F1280002F0F6FE20B194F8F5
:108EF000280084F8520001E084F8526084F8505051
:108F0000A27804F2264104F582694FF0060A052A88
:108F100064D2DFE802F07C030F22420084F8316063
:108F2000C4F82054C4E9101584F83C808020A4F8CB
:108F3000480055E084F8318094F82420384612B176
:108F40000722027001E080F800B0228A8281C4F812
:108F500020544160E168B96042E06069B860208BEC
:108F6000B88194F824003D460028204602D084F8B9
:108F70003CA001E084F83C6004F01AFC50B185F894
:108F800014800421204600F04BFE38BB052184F8F4
:108F9000311021E084F831B01EE0E069B860208C27
:108FA000B88194F824003D460028204602D084F879
:108FB0003CA001E084F83C6004F0FAFB48B185F87D
:108FC00014800421204600F02BFE38B984F831A02B
:108FD00002E0042084F83100C4F82094A07878B12D
:108FE0003A4604F15400D4F8201472DF00287FF4CC
:108FF00014AF94F8301094F8540073DF0028F6D1C1
:10900000616B11B194F831008847002005E784F8BE
:109010003150F5E710B5044600F006F808B12046D7
:1090200010BD142010BD0000142801D3002070478B
:109030000146014801F09BB8FC540020F8B5384CBB
:109040000546008800212688212830D00CDC122813
:109050005ED004DC102811D011280DD121E0132896
:1090600030D0202808D151E0222853D03B283DD0D1
:10907000522831D0562841D02AA04CE0012060600F
:10908000072000F021FB08B1FFF756FCA9882180DA
:10909000274801F093F9002813D0BDE8F840FFF706
:1090A0004BBC4FF6FF706160208022A033E000913E
:1090B000A88869468FDF08B1FFF73EFC21A0FEF7C4
:1090C00079FFF8BD00231A46852130467FDF08B1BD
:1090D000FFF732FC24A01EE000231A461946304652
:1090E000B1DF08B1FFF728FC28A014E0A8881321FD
:1090F00076DF08B1FFF720FC2DA00CE0A888132133
:1091000076DF08B1FFF718FC2FA004E034A002E0DE
:1091100037A000E03FA0BDE8F840FEF74BBF0000DD
:10912000EC2A002064656661756C740D0A0000000D
:10913000802F0020646973636F6E6E6563740D0A1F
:1091400000000000424C455F4741505F4556545F68
:109150005048595F5550444154455F52455155451B
:1091600053540D0A00000000424C455F4741505FD8
:109170004556545F5345435F504152414D535F52F2
:109180004551554553540D0A00000000424C455FBF
:1091900047415454535F4556545F5359535F4154AC
:1091A00054525F4D495353494E470D0A0000000089
:1091B000424C455F47415454435F4556545F5449C0
:1091C0004D454F55540D0A00424C455F474154549C
:1091D000535F4556545F54494D454F55540D0A0051
:1091E0007363616E207265706F72740D0A00000007
:1091F000424C455F4741505F4556545F434F4E4E8A
:109200005F504152414D5F5550444154452E0D0A27
:1092100000000000424C455F4741505F4556545F97
:109220005048595F5550444154452E2E2E2E2E0D38
:109230000A00000010B51A4C0188606810290ED091
:1092400011292BD1401E606028D1FFF718FB0028A0
:1092500024D02168002921D0BDE810400847D0B9AA
:1092600000210122084600F00DFA08B107280FD1AD
:1092700007220221012000F005FA08B1072807D1D2
:1092800004220221002000F0FDF920B1072802D0BD
:10929000216801B188476068401C606010BD000013
:1092A000602C00202DE9F04701883B4E40F2F31975
:1092B0004FF6FF7510291BD011293ED0122954D02A
:1092C000502946D1C188F289841D914241D16189DA
:1092D00002293ED18688304600F0D8FC050038D0FF
:1092E00004F10C0000F024F9A8B3294630464EE002
:1092F000C17B8788044601292BD1A846284600F067
:10930000C5FC050017D02F80002028722348434653
:109310004A460168C5F80A104068C5F80E0004F115
:10932000100105F10A0000F0BDFD6872F089002807
:109330000FD129462AE0042013E0808800F0A6FC23
:10934000040006D06068FFF754FB08B103F0A2FCEC
:109350002580BDE8F087FFE76868FFF74AFB002833
:10936000F7D0BDE8F04703F095BC8788064638463D
:1093700000F08CFC0400ECD02B464A4606F10801B4
:1093800004F10A0000F08EFD607221463846BDE807
:10939000F04700F073BB0000DC540020682C002074
:1093A0002DE9F04F044686880188424897B08346ED
:1093B00010290CD0112950D0103019296AD01A293F
:1093C00074D1217A0C09042C4DD301224CE0394D83
:1093D000083DA868C0430B9069680BA800F0E8FE40
:1093E0000B990CA800F02AFB2C220CA96846FEF76A
:1093F0008FF80027E946A84610E000BF09EB4700B8
:109400005FF00005B0F804A008EB85005146001D90
:1094100000F0A2FE6D1C1E2DF6D37F1C0098B842F2
:10942000ECD8142E05D317B00420BDE8F04FFFF799
:1094300083BA3146584600F0A5FE314608F10400D3
:1094400000F0A0FEE07B022830D117B03146BDE825
:10945000F04F1848001D00F095BE17B03146BDE82A
:10946000F04F00F079BE0022314600F0D4FB032C0F
:1094700001D3012200E000220E4831460C3000F0FA
:10948000CAFB022C01D3012200E000220948314628
:10949000083006E0217A002908D1617AC1F3C002C0
:1094A000314617B0BDE8F04F00F0B5BB17B0BDE8CE
:1094B000F08F00000055002030B587B00446002929
:1094C00028D0002C26D008462188102924D05029E5
:1094D00028D057291ED10546A18840696A46FFF762
:1094E000F5FB002816D100980078002812D0A86952
:1094F00000280FD0182101A8FEF723F801208DF8CD
:1095000004000295A088ADF80C0000980490A969A9
:1095100001A8884707B030BD07B02146BDE83040FC
:1095200002F0B8BA07B02146BDE8304002F092BB65
:10953000007800F001007047094908B5085C009008
:10954000684601F043FAD0F80425009B01219940B8
:1095500021EA0203C0F808351140C0F80C1508BD17
:1095600044E602000249085C012101F093BA0000C0
:1095700044E602000249085C002101F08BBA0000B9
:1095800044E60200084908B5085C0090684601F00E
:109590001DFAD0F804050099C84010F0010000D071
:1095A000012080F0010008BD44E6020010B500244F
:1095B0002046FFF7D7FF641C042CF9D310BD10B56B
:1095C00000242046FFF7D6FF641C042CF9D310BDFD
:1095D00010B50246064B4FF0FF3000215C5C944210
:1095E00001D1084610BD491C0429F7D310BD000065
:1095F00048E602002DE9F0470D468146FFF7E8FFF7
:109600000446042836D2DFF874801B481C4EA8F1AB
:109610000C0725B3012D0ED0022D2BD104EB4400F5
:1096200030444578002D25D0B968002922D028463D
:10963000BDE8F047084704EB4401755C0E447178BF
:1096400049B10E4A4FF48041093A8068FFF7A7F903
:1096500008B987F80390B17808F80410E2E7806849
:10966000FFF7C7F904EB4401314418F804008D7882
:10967000A842D7D0BDE8F0874CE60200F82B0020C6
:109680009854002070B50023042810D20D4D00EB33
:109690004004012A02D101290CD00022094E00EB1E
:1096A0004000304461B1012906D0022906D00723C9
:1096B000184670BD0E30C2B22A55F9E74270F7E77E
:1096C0008270F5E798540020044A01460020127980
:1096D000D20702D0084600F003B87047EC2B0020F8
:1096E0002DE9F05F6E4C054600266078B34618B150
:1096F00084F801B000F004FC6A4F4FF47A694FF42B
:10970000C87A4FF00108182D69D2DFE805F00C1374
:1097100013384754696E727B727BC5848484848459
:10972000B3B6B9BCC5C500F0EBFB3868FFF761F90B
:1097300006465CE00020FFF725FF00284FF0000000
:1097400008D0FFF70FFF022D02D14FF4E16008E0CF
:10975000484606E0FFF70EFF022D01D1C82000E0C9
:109760005046410CC0034FF47A72801841F1000159
:10977000257052000023FDF787FE01462AE00020F5
:10978000FFF700FF00284FF0000004D0FFF7EAFECB
:109790004FF44870E5E7FFF7EDFEDFE70020FFF745
:1097A000F1FE00284FF0000002D0FFF7DBFECFE70C
:1097B000FFF7E0FED4E70020FFF7E4FE00284FF0BB
:1097C000000002D0FFF7CEFE01E0FFF7D3FE2570C8
:1097D00040F6CD4100223868FFF7E1F8064646E042
:1097E0000020FFF7A9FE257008E0002051E0257059
:1097F0003DE084F801800120FFF79EFE002240F248
:109800006661E8E784F801800120FFF795FE0022F9
:109810004FF40051DFE77868FFF7EBF80646D5F123
:10982000110000D02EB10220FFF79CFE84F802B098
:109830001DE0012816D980B2C8214843C117C903C9
:1098400041EA5041C0034FF47A72801841F100019F
:1098500052000023FDF718FE014600227868FFF74A
:109860009EF806460220FFF785FE84F80280304607
:10987000BDE8F09F00F044FBB9E700F041FBB4E71E
:1098800000F03EFB04E000F03BFB0020FFF772FE1F
:109890000120FFF76FFEAAE7FFF791FEA7E70000A0
:1098A000EC2B00204CE602002DE9F84F0546861C03
:1098B00000208DF8000091460F464FF0010A6846DF
:1098C000FFF750F91B4C04F21C4860683860D4E97B
:1098D0000101194F401A3968081A0EE0012140466B
:1098E00000F060FC00F032FB0146404600F05AFCFC
:1098F000D4E90101401A3968081A401C8642EDD8A3
:10990000B9F1000F03D0052065F3891002E00620AD
:1099100065F39F5061683A68114004EB8101C860AB
:109920006068304460609DF80000FFF73FF95046E2
:10993000BDE8F88FE4570020102D002070B50D46CB
:1099400004460A2902D10D21FFF7F8FFA06822681A
:10995000411CA1601554D4E90101814204D3204681
:10996000BDE8704000F08DBE70BD00000448816805
:109970004068814201D101207047002070470000FB
:10998000E45700200249084490F930007047000075
:109990008855002010B5054801F0AAFD08B104A0C3
:1099A00000E009A0BDE81040FEF704BBE02B00205A
:1099B0006572726F723A20716D69207477692062E6
:1099C0007573790D0A000000716D69207477692044
:1099D0006973206E6F7420627573790D0A00000040
:1099E00070B5084C050009D010342168002907D053
:1099F00008682060496828468847F6E70834F4E795
:109A000070BD000074550020054A012120B10128D5
:109A100005D19170FFF7E4BF51700020FAE770475D
:109A20007455002010B5D0E90234D1E90220D11AD2
:109A3000A04101D3012010BD002010BD73B58CB032
:109A40000646002000900D9880B100246D46214606
:109A50000DA800F08CFB30B1009805EB400084802D
:109A60000098401C0090641C142CF0D32C226946F2
:109A70003046FDF74DFD0EB070BD000038B54A7A96
:109A80000F4B62B100220A725969002906D00122E7
:109A90008DF80020ADF802006846884738BD0A7A84
:109AA00062B19B684C68024619462046FEF777FF74
:109AB0000028F3D0BDE8384003F0ECB85B68F1E76C
:109AC000DC54002070B588B0064600200590069052
:109AD000ADF81410ADF816100190029001AA05A976
:109AE000304690DF050021D001F0B2FB034611485B
:109AF00011493246401AC108012000EB01400446DA
:109B00000E4901F09AF9BDF8042012B9BDF806001B
:109B100028B1BDF80630204609A101F08EF9BDF844
:109B200008201AB12046164901F080F908B02846ED
:109B300070BD0000A0EF0200A0EF0200BCE902002F
:109B40005468652072657175657374656420545836
:109B50002F5258207061636B6574206C656E67745A
:109B60006820697320746F6F206C6F6E6720627954
:109B70002025752F2575206F63746574732E000082
:109B800008EA020010B50021024800F01CFB80F337
:109B9000100010BD005C00200068D0F8040570477C
:109BA00090F90400002809DB00F01F020121914018
:109BB0004009800000F1E020C0F80012704700006A
:109BC00009490120096809B1002070470749CA699D
:109BD000002AF9D1044A283212688968491E8A424B
:109BE000F3D102207047000024340020202B0020F5
:109BF000826883881A4003689A5C0A708168491CED
:109C000081607047C26883881A4003689954C168AC
:109C1000491CC16070470AB100F0B4BA00F09CBAA8
:109C200070B50D460446B0F81414D0F810040122A3
:109C3000FFF770F800B1057004F13C0204F5826191
:109C400004F1540072DF70BD10B50446C0B2FEF7D7
:109C50005FFF204610BD000010B50B48FFF79CFFCA
:109C6000094A083AD2E90434C018D2E9063244F16C
:109C70000001C31A71EB020204D24FF08072801807
:109C800041F1000110BD0000C82C0020014603482E
:109C900002888A4200D0002070470000C85400208B
:109CA0002DE9FC5F0E008346DDE90C47C6F100009C
:109CB00098469246814600D40846012503E000BF3D
:109CC00090FBFAF06D1C5045FADAA84500D94546DC
:109CD00024B1002E01DB780700D5641EB80702D539
:109CE000B8F1000F0AD0F80708D13CB1A54205D25F
:109CF00020215846641EFFF721FEF6E7002E02DA07
:109D00004E462D2102E0780703D52B215846FFF758
:109D100015FE07F0030002280BD1B8F1000F08D19F
:109D20003CB1A54205D230215846641EFFF706FE1D
:109D3000F6E7CDE90047434652463146584603F020
:109D4000DDFCBDE8FC9F000070B50D4604460068D0
:109D50004FF4887101F0A7FA4FF49071206801F078
:109D6000A2FA4FF49271206801F09DFA4FF4A271AB
:109D7000206801F098FA4FF4AC71206801F093FA72
:109D800020681249C0F804132068690740F30730BF
:109D9000090E002804DB00F1E02080F8001405E043
:109DA00000F00F0000F1E02080F8141D206840F35F
:109DB0000730002809DB00F01F0201219140400913
:109DC000800000F1E020C0F8001170BD10034200D7
:109DD000024600201268530713D502F00300012841
:109DE00002D002280CD105E0C2F383100B68801C5E
:109DF000184404E00223086803EB92521044086000
:109E0000012070472DE9F0479146884604464FF4FB
:109E100080354FF4A0760027DFF884A016E000BF5D
:109E2000D4F8040328420DD0A05958B1C4F84853BF
:109E3000C4F808533146204601F059F95AF8281061
:109E4000F8B28847361D6D00B6B27F1C4F45E7D388
:109E5000D4F804034FF4807110F0010F09D0D4F846
:109E6000000130B1204601F042F95AF828100420D0
:109E70008847D4F804034FF4827110F0020F0CD01D
:109E8000D4F80401002808D0204601F030F95AF82F
:109E90002810BDE8F04705200847BDE8F08700001E
:109EA000B82C0020F0B58488A518944200D822462A
:109EB000A41AC288D6189A4200D81346D21A4B88E0
:109EC0000788BB420CD34088834209D88888A042C7
:109ED00006D3A84204D8C888904201D3B04201D921
:109EE0000020F0BD0120F0BD0268134602E08A4266
:109EF00004D01268002AFAD10B600160704700009C
:109F00000A4810B5807860B1002401E0022C06D028
:109F10002046FFF727FB641C042CF7D310BD032455
:109F2000F6E7BDE81040FFF741BB0000EC2B002036
:109F3000F721018017214180002101714171FB212E
:109F400081711B21C1717047704700002DE9FF41ED
:109F50000026244800F023F92248001F074600F09D
:109F60001EF9214C2149A06800900D6800E000987E
:109F70006946284004EB80000C30FFF729FF0028D9
:109F8000F5D101AA009901EA050304EB8303491CFA
:109F9000DB6842F82030401C00910228F2D301987F
:109FA00000F0030001280BD0022810D101980321F2
:109FB00001EB90500099BDF80A6001EB900005E0BC
:109FC0000198BDF80A60C0F3831008440090384639
:109FD00000F0E2F808B10098A06004B03046BDE897
:109FE000F0810000FC5B0020E4570020102D0020D1
:109FF0001CB503F021FA0FA0FDF7DCFF012003F0F0
:10A0000091FE11494FF40072086000210520CDE94E
:10A0100000010B460DA1114804F0D6F8012805D027
:10A020000FA0FDF7C7FF0420FEF786FC03F0C2FD7A
:10A0300000201CBD656E74657220696E74206D61B0
:10A04000696E200D0A000000E82A0020716D693851
:10A05000363538635F746872656164004DC902000B
:10A060000D0A65727237207461736B206E6F7420F5
:10A07000637265617465642E0D0A00002DE9F04776
:10A08000C5881E1DB6FBF5F78946B6FBF5F10446FB
:10A0900005FB176C407916686843DDF820A0F718B7
:10A0A000001F874200D9C61A166001E02468491EC5
:10A0B0000029FBD1A5EB0C078846B74216D818E05B
:10A0C00004EB0C00001D09EB0803BAF1000F3A463F
:10A0D00002D00146184600E01946FDF719FA246837
:10A0E000F61B4FF0000CB844B54201D9374600E0EA
:10A0F0002F46002EE4D1BDE8F087000030B50246BF
:10A1000051B100F0FBFE0021074C08E034F821308B
:10A110001568AB4202D11160002030BD491C81425C
:10A12000F4D3052030BD00000000000070B50C46DF
:10A130000546FDF7C1F8002802D0218828680844A8
:10A1400070BD10B50A8849888A4203D1FDF7D0F85E
:10A15000012010BD002010BD01F01F0301229A4014
:10A16000D243490900EB8100114600F021B84A09A9
:10A1700050F8220001F01F0201219140084000D058
:10A180000120704701F01F0301229A40490900EBAA
:10A190008100114600F01CB8002100F00FB8012129
:10A1A00000F016B808B56A46FDF71DF9009808BD1D
:10A1B00008B56A46FDF7FDF8009808BD08B56A467F
:10A1C000FDF7F7F808BD08B56A46FDF7D9F808BDF0
:10A1D00008B56A46FDF7E0F8009808BD08B56A467C
:10A1E000FDF70EF9009808BD38B5044600258DF836
:10A1F00000506846FEF7B6FC216862680868904225
:10A200000ED9401E08600178238AE26801FB03250D
:10A21000227A2168101AC0B20A79824200D20871EB
:10A220009DF80000FEF7C2FC284638BD38B505464B
:10A2300000208DF800000C466846FEF793FCE868A5
:10A24000298A201AB0FBF1F12A681068431C1360B8
:10A2500001709DF80000FEF7A9FC38BDC20800F0AF
:10A2600007030120895C984008407047F0B5858855
:10A2700093B00C46002D39D1018800263F4F242988
:10A280003BD006DC102909D011290CD0232958D144
:10A290004FE03A290BD0552953D129E001462046F9
:10A2A00001F02EFC4DE0A01DFFF742FE49E02246E2
:10A2B000408934F8061F814200D80846608017287C
:10A2C00000D217206080106970B1607960B1D7E961
:10A2D0000001CDE90301ADF80E506088ADF8100023
:10A2E000136903A9104698476671267113B0F0BD33
:10A2F0000146204601F058FC23E0011D2C2206A84F
:10A30000FDF706F9BDF81800BDF81C2004EBC001EC
:10A310004A732269AAB1D7E90423CDE90423ADF831
:10A320001200487B8DF814002269204604A990474A
:10A3300007E0017A207B884200D201462846FFF7D9
:10A34000C1FBA07A0028D1D0E1882846A5DF0125ED
:10A3500080B11128CAD000F07BFF024608480949A5
:10A3600013B0401AC00805EB0040BDE8F04006A15C
:10A3700000F05CBDA672E572B8E7000078E6020066
:10A38000A0EF0200A0EF020073645F626C655F677C
:10A39000617474635F65786368616E67655F6D742F
:10A3A000755F72657175657374282920726574759F
:10A3B000726E65642025732E0000000020B10278C3
:10A3C000DE2A03D0082070470E207047418000200D
:10A3D00070477FB5054600294DD0002D4BD0087839
:10A3E0000C46DE2847D1A8886188884202D12046E1
:10A3F00003F0EAF92888012825D002283BD011284B
:10A400003AD0512837D135F8040F6188884232D1CB
:10A41000A978A81C02292ED1017A042903D0062983
:10A4200001D0052927D10021009102228DF80020BA
:10A4300001914FF4C07202910391ADF80420007AAB
:10A4400005280FD010E0297A2046012913D1A988C8
:10A45000428891420FD10121017204B0BDE87040E1
:10A4600003F0B2B9ADF8041028886946B0DF0028BF
:10A4700001D0616888477FBDA88861888842FAD189
:10A480004FF6FF7060807FBD00F1804000680028BB
:10A4900000D00120704708B500F180400021016024
:10A4A0000068009008BD000070B50D4C01252078B3
:10A4B00008B185260EE00020A06060602061E060A9
:10A4C000084800F015FF064600F05AFE08B900F0F3
:10A4D000F9FE257000F0EEFE00B1A570304670BDAB
:10A4E00074550020099A020038B500258DF80050F7
:10A4F0006846FEF737FB084CE068401EE060E06805
:10A5000028B900F0D7FE10B900F010FFA5709DF833
:10A510000000FEF74BFB38BD74550020F8B5134D15
:10A520000446A878002648B114B161680120884724
:10A530008DF800606846FEF715FB0EE08DF80060B0
:10A540006846FEF70FFB24B1084821461030FFF79C
:10A55000CBFCE86808B900F0D9FEE868401CE86068
:10A560009DF80000FEF722FBF8BD000074550020A6
:10A570002DE9F041064604780B4815460F4640F891
:10A580002420083040F82430487B10B1084602F0FF
:10A5900025FC0DB1054A00E0002223463946301D56
:10A5A000BDE8F04100F032BFA42C002081CE0200B3
:10A5B00038B5001D049C009400F0C0FF38BD0000B9
:10A5C000F0B505460478154889B0164640F82420B1
:10A5D000124A08690832A2F10C0742F82400487FA9
:10A5E000385520226846FCF793FF04942878385C9D
:10A5F00048B10EB10A4A00E000226946281D01F068
:10A6000021F909B0F0BD0EB1064A00E0002269460A
:10A6100005F10C0000F0CAFFF3E70000742C0020E5
:10A62000ADD5020009D4020030B40378054CE35CD8
:10A630001BB130BC001D01F03BB930BC0C3001F047
:10A640001FB80000702C002030B40378054CE35C88
:10A650001BB130BC001D01F0ADB930BC0C3001F0B5
:10A6600085B80000702C00200FB408B503990029AC
:10A6700004D004AA00926A4600F00FF801B05DF819
:10A6800014FB10B582680446002A05D0D4E90403FF
:10A69000216898470020A06010BD2DE9FC47914635
:10A6A0000C00804676D014F8011B39B125290ED054
:10A6B0004046FFF743F920780028F4D198F80C00C1
:10A6C000002867D04046BDE8FC47FFF7DABF00200E
:10A6D000012221782B291BD02D2902D0302908D125
:10A6E00002E040F0010001E040F00200641C002A9A
:10A6F000EFD100252A290ED02178A1F130020A2AB3
:10A7000011D205EB850201EB4205641C303DF1E7F7
:10A7100040F00400EAE7D9F800100B1DC9F800303A
:10A720000968641C0D44217800232E290BD114F8EC
:10A73000011FA1F130020A2A05D203EB830201EBCB
:10A740004203303BF3E76C290DD068290BD069290F
:10A7500021D00BDC252918D0582931D063290ED0FF
:10A76000642915D117E014F8011FECE7702969D0AE
:10A77000732932D075291BD0782909D120E0D9F866
:10A780000000011DC9F8001001784046FFF7D6F817
:10A79000641C90E76CE0D9F800100A1DC9F800208D
:10A7A0000968CDE900500A224046FFF779FAEFE741
:10A7B000D9F800100A1DC9F8002009680A2206E02D
:10A7C000D9F800100A1DC9F8002009681022CDE947
:10A7D0000050404602F092FFDAE7D9F80010002757
:10A7E0000A1DC9F800200E68C00705D112E04046D6
:10A7F000761C7F1CFFF7A2F831780029F7D104E01E
:10A80000202140466D1EFFF799F8BD42C0D9002DAA
:10A81000F6D1BDE74EB13046FCF79EFE074604E098
:10A82000202140466D1EFFF789F8BD4206D9002D54
:10A83000F6D103E04046761CFFF780F83178002916
:10A84000F8D1A5E7D9F80000011DC9F80010056886
:10A8500030214046FFF772F878214046FFF76EF846
:10A8600008200021CDE90001034610222946B0E767
:10A87000BDE8FC872DE9FF411C46DDE90A78154655
:10A880000E46684600F0BEF846EA450141EA8401FA
:10A8900041EA072242EA0841009A00EB8200C0F830
:10A8A0000017BDE8FF812DE9FF411C46DDE90A786C
:10A8B00015460E46684600F0B3F846EA450141EAFF
:10A8C000840141EA072242EA0841009A00EB820033
:10A8D000C0F80017BDE8FF8170B52028DDE90465E8
:10A8E00002D24FF0A04402E0074C00F01F0041EA02
:10A8F000420141EA830141EA062104EB800041EA7A
:10A900000541C0F8001770BD000300501CB50022BF
:10A910000B46009211460192FFF7ACFF1CBD1CB51F
:10A9200000220B46009211460192FFF7BCFF1CBDAE
:10A930001CB5002100910B46012201911146FFF741
:10A9400099FF1CBD1CB5002100910B46012201910D
:10A950001146FFF7A8FF1CBD13B50C46684600F072
:10A9600043F8009900EB8101D1F8002722F440322E
:10A97000C1F80027009900EB8100D0F8001741EAE8
:10A980000441C0F800171CBD3CB50A4CD4E90034A2
:10A99000CDE900346B46441808E000BF53F820109E
:10A9A000D1F8205520C2C1F82055401C8442F5D86A
:10A9B0003CBD000090E6020001B5684600F03EF89C
:10A9C000009A01219140C0F80C1508BD01682029AA
:10A9D00002D24FF0A040704701F01F010160014812
:10A9E00070470000000300500168202902D24FF098
:10A9F000A040704701F01F0101600148704700004E
:10AA0000000300500168202902D24FF0A040704797
:10AA100001F01F0101600148704700000003005071
:10AA20000168202902D24FF0A040704701F01F01B9
:10AA300001600148704700000003005001682029B0
:10AA400002D24FF0A040704701F01F0101600148A1
:10AA5000704700000003005001B56846FFF7D2FFC1
:10AA6000009A01219140C0F8081508BD01B568465B
:10AA7000FFF7D6FF009A01219140C0F8081508BDE4
:10AA800001B56846FFF7DAFF009A01219140C0F84E
:10AA9000081508BD38B501240090684631B1FFF7AC
:10AAA00095FF00998C40C0F8084538BDFFF78EFF30
:10AAB00000998C40C0F80C4538BD0000034908B52A
:10AAC0000844002101600068009008BD006000405B
:10AAD00002494058012800D0002070470060004023
:10AAE0007047704708B5034A00924023024A00F0BD
:10AAF00005F808BDA5CC0200E4560020F0B595B0DD
:10AB00001C4615460E4608461A9F00F0C7FA182143
:10AB100009A8FCF716FD0E97CDE909540023082279
:10AB200003A9304600F0CDFA05980690BDF8100054
:10AB3000ADF81C00BDF81200ADF81E0000208DF825
:10AB400021000399082501F00300012802D0022802
:10AB500016D02FE0C1F3C200C1F383178C0A8DF821
:10AB60002000BA002B460FA9304600F0AAFA09A827
:10AB7000009006AB3A460FA9204600F0EBF919E029
:10AB8000C1F3C2008C0D8DF82000082C01D227469D
:10AB900000E008272B463A460FA9304600F091FA0C
:10ABA0003D44E41B09AB06AA39460FA800F04EF954
:10ABB000002CEAD1304600F075FA15B0F0BD000067
:10ABC0000A4A012902EBC00007D0022907D0032955
:10ABD00007D0042907D000207047022070470420C6
:10ABE000704700797047407970470000A0EF02007D
:10ABF0002DE9F04F8DB0FEF7B9FE18B100200DB071
:10AC0000BDE8F08F7D4C4FF0000BC4F818B4BFF3D3
:10AC10004F8F7B49A06802900D68D846284004EB0E
:10AC200080000BE0D4F8180470B961680298814282
:10AC300001D8A160E2E7284004EB80000C3002A9B3
:10AC4000FFF7C6F80028EDD1002009AA029901EA11
:10AC5000050304EB8303491CDB6842F82030401CE9
:10AC600002910228F2D3099800F00301022902D0D0
:10AC700001294DD0A8E0810D50228946B2EB905FAA
:10AC800000D850210E4666F39F50099008315D4868
:10AC900000F0BBF9070077D000F000FA4346082225
:10ACA00009A9384600F015FA029908F1080A294066
:10ACB000681A8000001D864223D9504D0C3530B1F2
:10ACC000C2B204EB8101301A90460C3104E02946EF
:10ACD000F2B2002590462846C6B25346384600F0E8
:10ACE000F8F90AEB08032DB1324629464FEA07006E
:10ACF00000F0EFF9029909F1030001EB90000290D6
:10AD000039E004EB81015346324638460C31EFE717
:10AD1000C0F38311062900D3062161F3891009903D
:10AD2000C0F38310801C8100364800F06EF90700E4
:10AD30004AD000F0B3F94346082209A9384600F08A
:10AD4000C8F908F1080800260FE00298434600EA17
:10AD50000501401C04EB81010290042238460C31AD
:10AD600000F0B7F908F10408761C0998C0F38310C5
:10AD7000B042EAD847B1D4F81054D4F8180478B1E6
:10AD8000384600F08FF934E01EE0E8684079012889
:10AD900004D12A682846394612689047E868056851
:10ADA000002DF2D1384600F07DF98DF800B06846EC
:10ADB000FDF7D8FED4F8180408B90298A0609DF8F1
:10ADC0000000FDF7F3FE14E0D4F8104405E021681C
:10ADD000204689688847E0680468002CF7D10A4853
:10ADE0000A49401AC008022101EB004008A100F006
:10ADF00019F8FEF7BBFD80F0010000E7E4570020E2
:10AE0000102D002038F0020018F00200A0EF020020
:10AE10004261636B656E647320666C75736865640C
:10AE20000000000000231A4601F070BF08B501239E
:10AE300000926A4601F06AFF08BD1CB5CDE9002307
:10AE400002236A4601F062FF1CBD00002DE9F047B5
:10AE50000E4680461C469246082940D894F80C902D
:10AE6000002020731946104600F0D0FF0025B5429F
:10AE700006D218F805201BA12046FFF7F5FB03E0DA
:10AE80001AA12046FFF7F0FB6D1C082DEFD318A187
:10AE90002046FFF7E9FB0025B54212D218F80570ED
:10AEA0007E2F08D8FCF730FB0068C05D10F03E0F25
:10AEB00001D03A4600E02E220EA12046FFF7D4FB37
:10AEC00003E00DA12046FFF7CFFB6D1C082DE3D357
:10AED00001222146504600F07BFF84F80C90BDE82B
:10AEE000F08700002025303278000000202020006C
:10AEF0007C00000025630000200000000248034998
:10AF0000401AC0087047000038F00200A0EF0200AD
:10AF100013B56846FFF7F2F808B100201CBD0248DF
:10AF2000009950F831001CBDA0EF020070B5084830
:10AF30000125D0F81044057007E0E06845712168EC
:10AF4000204649688847E0680468002CF5D170BD48
:10AF5000E45700202DE9FF4781460C9D00200C4658
:10AF60002F7B2873984616462946184600F04EFF58
:10AF7000072E42D2DFE806F004090F161F2A36001A
:10AF800049462846FFF770FB37E0494628462268C5
:10AF9000FFF76AFB31E0D4E9002349462846FFF772
:10AFA00063FB2AE0A0680090D4E9002349462846C4
:10AFB000FFF75AFB21E0D4E90201CDE90001D4E911
:10AFC000002349462846FFF74FFB16E004F108002E
:10AFD00007C88DE80700D4E9002349462846FFF753
:10AFE00043FB0AE004F108000FC88DE80F00D4E924
:10AFF000002349462846FFF737FB002229464046F2
:10B0000000F0E6FE2F73BDE8FF872DE9F041058AC9
:10B0100080462D1F4819C01CB0FBF5F0C6B2404653
:10B02000FFF7E2F8041E19D00020207101206071A2
:10B03000E58000272546761EC4F800800BE04046D8
:10B04000FFF7D2F860B16179491C6171286005464B
:10B050007F1CC0F80080B742F1D32046BDE8F081E4
:10B06000204600F002F80020F8E72DE9F04145798C
:10B0700001466B1E002201E00968521C9A42FBD374
:10B080000F680146002605E038460C68FFF7CEF849
:10B090002146761CAE42F7D3BDE8F0810121001DA8
:10B0A000FFF780B810B504460121001DFFF796F8A0
:10B0B00010F0FF0F04D12046BDE81040FFF7D5BFC8
:10B0C00010BD1CB501920122009201AAFEF7D6FF25
:10B0D0001CBD1CB501920022009201AAFEF7CEFF12
:10B0E0001CBD08B5002242504058009008BD08B56C
:10B0F000002242504058009008BD000030B515486D
:10B10000ADF5017D0078002821D04FF4FA7500BF1D
:10B11000ADF8005280A9684661DF38B1052816D025
:10B120000DF5017DBDE83040FDF706BC6C460A49CF
:10B130007DA800F049F806E0D0E9002120469047BC
:10B140007DA800F058F87F980028E1D0F4E70DF5CD
:10B15000017D30BD672D0020D4E802000EB50749FF
:10B16000684600F031F805E0D0E9001088476846ED
:10B1700000F041F802980028F6D10EBD84E80200E4
:10B180000148007870470000642D00201FB5684614
:10B190004BDF30B1052814D004B0BDE81040FDF7F6
:10B1A000CBBB084901A800F00FF806E0D0E9002168
:10B1B0000098904701A800F01EF803980028E6D0F8
:10B1C000F4E71FBDF0E80200016009684160AFF3D9
:10B1D000008010B5D0E900215368994201D10021C7
:10B1E00004E0D1E90034A34202D01946816010BDC9
:10B1F00008314160F0E7816800290BD0026892684D
:10B200000A44826041684B689A4203D10831416028
:10B21000FFF7DFBF704700000C4A10B502F59473CA
:10B220000EE0991AC91001EBD171491002EBC1016E
:10B230000C68844201D90B4602E005D201F10802F4
:10B240009A42EED3002010BD486810BD1CE70200F2
:10B2500000B5FFF7E1FF002800D1014800BD000064
:10B2600008E702004058002800D00120704708B5C8
:10B27000002242504058009008BD4058002800D09D
:10B280000120704708B5002242504058009008BD88
:10B29000D0F80403084000D001207047405800282F
:10B2A00000D00120704708B500224250405800905D
:10B2B00008BD000002480068002800D00120704747
:10B2C0000004014008480068012110F0010F06D178
:10B2D0004FF0E020C02280F800248430C167034989
:10B2E000012008607047000000E100E01805004000
:10B2F0000549024600200B790BB1852070470A6092
:10B3000001220A7170470000842C002010B54FF410
:10B310008270FFF7C0F802204107C1F80403024918
:10B320000120086010BD000008000040022010B598
:10B330004107C1F808034FF48270FFF7ACF80549E4
:10B340000120086004480168C1F300410029FAD1D6
:10B3500010BD00000C00004018040040002802D07E
:10B360000149800108477047A1E602000121B1EBC5
:10B37000507F01D101207047002070470121B1EBBF
:10B38000507F01D1012070470020704738B50D462D
:10B3900000F088FD040014D000208DF800006846FD
:10B3A000FDF7E0FB207928B19DF80000FDF7FEFBDA
:10B3B000112038BD0120256020719DF80000FDF7A7
:10B3C000F5FB002038BD00000149024801F078BDBE
:10B3D000405600200030004002494FF0402001F06C
:10B3E0006FBD0000745600200179006801EB8102F6
:10B3F00002EBC101044A02EB81010622C0F80025DC
:10B40000022081F82D007047405600202DE9FC41B4
:10B410000646007917460D4600EB8001324A01EBE3
:10B42000C00102EB8104984694F82D1011B1082058
:10B43000BDE8FC812D4951F820103068FFF7A6FFC8
:10B4400008B11120F4E7C4E900780027A76084F868
:10B45000307084F82F70687B84F832004FF0060853
:10B46000CDE9008703233A4601212868FFF734FA23
:10B47000CDE900870323002201216868FFF72CFA39
:10B48000D5E900123068C0F80815C0F80C25A96885
:10B49000C0F824152068012208B3306840F3073152
:10B4A000287B00294FEA401004DB01F1E02181F8FC
:10B4B000000405E001F00F0101F1E02181F8140D15
:10B4C000306840F30730002809DB00F01F0102FA62
:10B4D00001F14009800000F1E020C0F8001184F87B
:10B4E0002D200020A4E7000040560020A8E602001E
:10B4F000007900EB800101EBC000034901EB800003
:10B5000090F82F007047000040560020F0B585B03D
:10B5100015460E4607461C46142207496846FBF7A7
:10B52000F7FF8DF8016000226946384603950194C3
:10B5300000F020F805B0F0BDB0E602002DE9F041C2
:10B5400086B00E4680461C461546142168460C9F60
:10B55000FBF7F7FF8DF80160039501940FB12022EE
:10B5600000E000226946404600F004F806B0BDE85D
:10B57000F081000030B40379006803EB830404EB2E
:10B58000C303054C04EB830413460A4601462046D8
:10B5900030BC01F05FBD0000405600200149024868
:10B5A00001F06EBFF0550020002000402DE9F04171
:10B5B0000546007916460F4600EB40012D4A01EB87
:10B5C000C00102EB810494F82A1011B10820BDE8F3
:10B5D000F081294951F820102868FFF7D7FE08B1FB
:10B5E0001120F4E739462846FDF7FAFA6660386913
:10B5F000206030004FF001062FD03F7F4FF48E7156
:10B600002868FFF73FFE4FF4A2712868FFF73AFE63
:10B6100028681A49C0F8041328684FEA471140F314
:10B620000730002804DB00F1E02080F8001405E07A
:10B6300000F00F0000F1E02080F8141D286840F3AE
:10B640000730002809DB00F01F0106FA01F140096C
:10B65000800000F1E020C0F8001128680421C0F843
:10B6600000150020A061E06184F8290044F8140F5F
:10B67000A675ACE7F055002098E6020080000200B5
:10B680002DE9F05F054600794FF4017600EB4003A9
:10B6900003EBC000344B03EB80040020636813B15C
:10B6A0002B68C3F80863A3694FF000096BB1E06928
:10B6B00038B1606810B12868C0F804631120BDE893
:10B6C000F09FE2610120216105E0C4F82490A261AD
:10B6D000E160C4F81C9094F82910014302D1284677
:10B6E00001F09BFA60680028286803D0C0F8046362
:10B6F0000020E4E74FF4A2763146FFF7C3FDB246DF
:10B700004FF4927B59462868FFF7B7FD06464FF481
:10B7100084712868FFF7B1FD804651462868FFF71D
:10B72000ACFD074648EA07003043EBD056EA070075
:10B7300007D12146286801F041FAA169606A814277
:10B74000E0D8C4F818900EB10320B8E70FB10F206D
:10B75000B5E794F8291001200029296801D0086074
:10B76000C6E74860C4E70000F05500202DE9F05F0F
:10B77000054600790B4600EB400101EBC00024496F
:10B7800001EB8004284600F045F810B11120BDE817
:10B79000F09F62614FF00009C4F82090A36084F824
:10B7A00028904FF48E784E4641462868FFF76AFD90
:10B7B00028684FF0010AC0F808A02146286801F067
:10B7C00095FD606808BBD5F800B067690FE000BF61
:10B7D00094F8280008B10F2615E041465846FFF7B7
:10B7E0004CFD0028F4D02146584601F07FFD206A28
:10B7F000B842F2D3574641462868FFF73EFD00287D
:10B80000F9D02868C760C4F814903046BFE700003C
:10B81000F0550020007900EB400101EBC000044925
:10B8200001EB80004069002800D001207047000033
:10B83000F05500200149024801F0D0BE1C560020FE
:10B84000002000402DE9F0410546164600790F46DC
:10B85000154A00EBC00102EB810494F8201011B1ED
:10B860000820BDE8F081114951F820102868FFF741
:10B870008DFD08B11120F4E739462846FDF7EBF9B4
:10B880006660386920601EB1397F2846FEF75CFA91
:10B8900028680821C0F800150020A061E0616061FF
:10B8A000012184F82010DCE71C5600209CE60200F1
:10B8B0002DE9F05F044600790E4600EBC001DFF889
:10B8C000F0A017460AEB81053046FFF74FFDB0B1F7
:10B8D00068684FF000084FF4047910B12168C1F88E
:10B8E0000893A8694FF0000B80B1E86948B1686817
:10B8F00010B12068C0F804931120BDE8F09F10201B
:10B90000FBE7EF614FF001082E6102E0EE60C5E950
:10B91000067B00254FF488712068FFF7C4FC4FF4C4
:10B92000A2712068FFF7BFFC2068C0F83465C0F83A
:10B9300038752068B8F1000F12D0D0F8001241F02D
:10B940002001C0F800122079D04600EBC0010AEBBC
:10B950008100406838B12068C0F804932846CCE7DD
:10B9600001210160EFE74FF4887A4FF4A279514644
:10B970002068FFF793FC074649462068FFF78EFCD6
:10B9800006464FF492712068FFF788FC014647EAAB
:10B9900006000843EBD0227902EBC20308EB8302D6
:10B9A000C2F818B001B10325002ED7D00F25D5E776
:10B9B0001C5600202DE9F04704460E460079274921
:10B9C00000EBC00001EB800517463046FFF7CEFCC8
:10B9D00030B1204600F044F820B11120BDE8F087D6
:10B9E0001020FBE76F61AE604FF490774FF00008D6
:10B9F00039462068FFF757FC4FF4AC763146206893
:10BA0000FFF751FC2068AA686969C0F84425C0F8AE
:10BA1000481520684FF00109C0F808906868D0B94F
:10BA2000BA4651462068FFF739FC07463146206880
:10BA3000FFF734FC0743F4D010B14FF00F0808E0D3
:10BA40002068C0F80C9031462068FFF727FC0028DA
:10BA5000F9D0002068614046C0E700001C56002075
:10BA60000079054900EBC00001EB80004069002827
:10BA700000D00120704700001C56002003490860D8
:10BA8000034801680029FCD07047000004E501402C
:10BA900000E40140F0B58BB0002601960D46044647
:10BAA0008988406901AAFDF711F90AA8CDE9086063
:10BAB0000227ADF82070ADF822602189A88808AA75
:10BAC000ADDF002819D1A069002816D00998FDF72C
:10BAD0002FFD002811D0019E0EB1012030701821D9
:10BAE00002A8FBF72EFD8DF808700394A888ADF826
:10BAF00010000596A16902A888470BB0F0BD0000B0
:10BB000070B58D88027900EBC5042273C97BA41D32
:10BB1000012902D0022904D101E0008800E0408818
:10BB2000208021886088814211D92846A5DF01261E
:10BB3000B0B1112816D0FFF78BFB02460B480C4919
:10BB4000401AC00806EB00400AA1FFF76FF9A1797F
:10BB5000E079814208D92846BDE87040FDF7B2BFC0
:10BB60006671F4E72671F2E770BD0000A0EF0200F5
:10BB7000A0EF020073645F626C655F676174746359
:10BB80005F65786368616E67655F6D74755F726528
:10BB9000717565737428292072657475726E656499
:10BBA0002025732E000000007CB506468D88C888CD
:10BBB00006EBC504A41D172800D217202188814256
:10BBC00000D8084660800020207121882846B5DF13
:10BBD00060B1FFF73DFB02460F481049401AC0080C
:10BBE000012101EB00400EA1FFF720F96079002848
:10BBF00010D1306900280DD01549D1E90201CDE9F5
:10BC00000001ADF802506088ADF804003269694661
:10BC1000304690477CBD0000A0EF0200A0EF02007C
:10BC200073645F626C655F67617474735F6578638A
:10BC300068616E67655F6D74755F7265706C792899
:10BC4000292072657475726E65642025732E00005C
:10BC500078E60200F0B587B00C4605468E1D89884F
:10BC6000406906AAFDF732F818216846FBF769FC1F
:10BC70000195A088069AADF80800039231882B89B7
:10BC8000002704F11200994202D17389022B0DD0D2
:10BC9000AA8991421ED1A96900291BD08DF8007094
:10BCA00004907089ADF81400A96911E0002A11D040
:10BCB000FDF73EFC20B1069901200870022002E049
:10BCC0000698077003208DF80000A969002901D0AB
:10BCD0006846884707B0F0BD0068012805D00228F3
:10BCE00003D0042801D000207047012070470000D5
:10BCF0002DE9F84F314F05464FF00109002438195E
:10BD000090F95A10491C46D090F85A00294620F064
:10BD1000C0063046FEF7A2FA70B3204600F050F895
:10BD2000824668460096FEF75FFE009900EB8100B0
:10BD3000D0F80007C0F30148B8F1020F1DD002216E
:10BD40003046FEF709FE68460096FEF74DFE009A63
:10BD500009FA02F1C0F820153046FDF713FE57F836
:10BD600020204AB15046BAF1030F11D0B8F1020FAA
:10BD700005D0B8F1030F07D00DE00321E0E75046EE
:10BD8000BAF1010F04D006E05046BAF1020F02D119
:10BD9000014630469047641C042CB0D32A46022149
:10BDA0000020FEF7F1FD002055F820100029A5D154
:10BDB000401C0228F8D3BDE8F88F00008855002009
:10BDC0000249084490F85A008009704788550020BD
:10BDD00010B50C46017A052908D0407A38B10848D8
:10BDE00008A102682046FEF73FFC00E01AB106A158
:10BDF0002046FEF739FC2046BDE81040FEF741BC66
:10BE0000402D0020257300000D0A000038B5C388BE
:10BE10000D46044633B114A0009015A216A1284681
:10BE2000FEF722FC217A05291CD0607A48B1A0884F
:10BE3000FEF7C6FE164951F8202016A12846FEF747
:10BE400013FCA0880021FFF763F803461049207A0D
:10BE5000143951F8202001B02846BDE830400EA129
:10BE6000FEF702BC38BD00001B5B306D0000000017
:10BE70001B5B313B33316D0025734C6F677320645E
:10BE8000726F70706564202825642925730D0A007F
:10BE9000402D0020257300003C25733E2025733A79
:10BEA000200000000949884201D109487047B0F1DB
:10BEB000402F05D00749884205D10548103070470A
:10BEC00003480830704700207047000000300040F1
:10BED0008C2C0020002000402DE9F041184C0F462A
:10BEE0000546E6682068001D01F080FC38B920682E
:10BEF00090F82C1001208840216981432161681C41
:10BF000007D137B12168BDE8F0410E48091D01F0A5
:10BF1000A6BC20683544B5424560216805D2A06BB7
:10BF2000BDE8F041091D01F082BC606B091D01F004
:10BF30007EFCA06A854200D2A562BDE8F0810000C7
:10BF4000202B00204C3400202DE9F041054601F063
:10BF500093FC2E4CA068401CA06020682C4F10B1B0
:10BF6000606940B32DE02560A068012829D1002632
:10BF700006EB860007EB800001F04BFC761C032EDD
:10BF8000F6D323483C3001F044FC2148503001F006
:10BF900040FC1F48643001F03CFC1D48783001F043
:10BFA00038FC1B488C3001F034FC19483C3060638D
:10BFB0001430A06305E02068E96AC06A884200D8AE
:10BFC0002560606A401C6062E96A0120226988403D
:10BFD0001043206101EB810007EB8000291D01F077
:10BFE0003EFC01F053FC606900280DD02068E96A2E
:10BFF000C06A884208D207494FF08050086040BFAD
:10C00000BFF34F8FBFF36F8FBDE8F081202B00206F
:10C01000C033002004ED00E010B501F02DFC0E4C03
:10C020002068A0B90D4801F0F4FB0C48143001F071
:10C03000F0FB0A48E060143020610022102120202B
:10C0400001F082FE206010B105A101F0F1FCBDE815
:10C05000104001F01BBC0000602B00207034002059
:10C06000546D72510000000030B4026C0B46002A7F
:10C070000BD0C1681144C1604468A14201D301687A
:10C08000C16030BC1846FBF743BA30BC70472DE99D
:10C09000F041856B174604460026026C82B1C7B199
:10C0A000E068FBF735FAE168206C091AE160226864
:10C0B000914202D26168081AE060022F16D017E0A0
:10C0C0002068A8B9606802F00FF906460020606099
:10C0D0000EE0A068FBF71CFA216CA0680844A06081
:10C0E0006168884204D32068A06001E005B16D1E3C
:10C0F0006D1CA5633046BDE8F08110B50446006BA9
:10C1000001F0CEFB2046BDE8104001F0C9BB0000A5
:10C110000A4800210269012A00D901210268D26A75
:10C120000AB100207047064A1268012AF9D800298E
:10C13000F7D1816AC068081A70470000202B0020E0
:10C14000C033002010484FF40051420706D0C01DF4
:10C150000D4920F00700411AC1F500510B4A002398
:10C160000144C2E900030839103A21F007011160C7
:10C170004B600B600B1AC0E9001393604FF0004056
:10C180005360D0607047000098340020842B00205A
:10C190001A4C1B4E12E000BF01F06EFBF068C56840
:10C1A000281D01F023FBA068401EA0606068401EAF
:10C1B000606001F06BFB2846FFF79FFF6068002876
:10C1C000EAD10F4878380068012808D90D494FF0A6
:10C1D0008050086040BFBFF34F8FBFF36F8FFFF7F2
:10C1E00097FF0228D5D301F015FDFFF791FF022834
:10C1F00001D301F095FB02F02FF9CAE7202B0020B4
:10C200003834002004ED00E02DE9F0470E46DDE96A
:10C2100009841746824691009946089DA522206B05
:10C22000FBF788F96FF00301206B01EB87010844ED
:10C2300020F0070700202218315C82F83410315CAE
:10C2400011B1401C0428F6D3002684F83760032D72
:10C2500000D30225E562C4E90E56201D01F0E4FA80
:10C2600004F1180001F0E0FA2461C5F103006462F2
:10C27000A061266484F844604A465146384600F07E
:10C28000F1F92060B8F1000F01D0C8F80040BDE816
:10C29000F087000030B5114900E011460A6882427B
:10C2A000FBD34B685C18844203D140681844486053
:10C2B000084643681C18944209D1084C103C246875
:10C2C000A24209D052681A4442600A6812680260A9
:10C2D000814200D0086030BD0460F9E7842B002063
:10C2E00070B5002441600B4D0061914206D8D11A0F
:10C2F0008269914206D2011D286907E09A4203D261
:10C30000994201D3012403E0011DE86801F08FFA8E
:10C31000204670BD602B002010B5044601F0ACFA39
:10C32000A06B28B15FF0000401F0B0FA204610BD08
:10C330000124F9E730B589B0264D41E00498002882
:10C3400006DADDE90601059A90470498002837DBF4
:10C35000069C606910B1201D01F048FA02A800F0A7
:10C360009DF8024604980A282AD2DFE800F0050565
:10C3700005291E260505291E0598A16903460144C5
:10C380002046FFF7ADFFD8B1616A20468847E069D3
:10C39000012815D1002000900598A16900234218BA
:10C3A0001946204602F0D0F80AE00598A0618118ED
:10C3B00013462046FFF794FF02E0204601F070FA92
:10C3C000002204A9286801F0C7FD0028B6D109B0F1
:10C3D00030BD0000602B00202DE9FC410F460546D2
:10C3E00001F018FC01A800F059F80446019818B1B2
:10C3F00002F032F8BDE8FC811E4EB7B1306900682A
:10C40000A8B30027291B3A46306801F025FB02F04B
:10C4100023F80028EED118494FF08050086040BF43
:10C42000BFF34F8FBFF36F8FE4E7A542EAD802F066
:10C4300013F8F0682746C068C468201D01F0D6F9DB
:10C44000E06901280FD1A0692B4641193A462046E0
:10C45000FFF746FF38B100200346014600902A4608
:10C46000204602F071F8616A20468847C2E7FFE77C
:10C470000127C7E7602B002004ED00E00648416B70
:10C48000096829B1416BC968C96849688162704708
:10C490004FF0FF31FAE70000202B002070B5054671
:10C4A00001F0CCFE064E0446B068844203D200F090
:10C4B00009F8012000E0002028602046B46070BD2B
:10C4C000602B0020F8B5144D1EE0C068C4680668F3
:10C4D000201D01F08BF9616A20468847E069012838
:10C4E00012D1A0693044B04206D924616060211D98
:10C4F000E86801F09CF907E000200346014600903F
:10C500003246204602F020F8E86801680029DCD1B4
:10C510002969C5E90310F8BD602B0020402080F395
:10C520001188FEE7074CE068016841B1C06800214E
:10C53000D0F80000FFF750FFFFF7FCFEF3E7012102
:10C540000020F7E7602B00202DE9F041044601F0C0
:10C5500093F994F9455004F1240609E0606A48B162
:10C56000304601F043FF08B101F0BAFA6D1E6DB21A
:10C57000002DF3DC4FF0FF3684F8456001F086F9BA
:10C5800001F07AF994F9445004F1100709E02069A8
:10C5900048B1384601F02AFF08B101F0A1FA6D1E3A
:10C5A0006DB2002DF3DC84F84460BDE8F04101F089
:10C5B0006DB900002DE9F0410546002701F02AFB86
:10C5C000214E306808B9FFF7BDFDF068054236D14D
:10C5D000ADB30835680704D005F00700C0F10800C6
:10C5E000054465B37068854229D817481030014664
:10C5F0000C6801E020460C466168A94202D221681D
:10C600000029F7D131688C4219D007682168016090
:10C6100060680837411B102904D9601941606560C2
:10C62000FFF738FE61687068401A7060B268904227
:10C6300000D2B060F06801430020C4E9000101F0BD
:10C640000BFF3846BDE8F081742B002004490868D0
:10C6500018B10868C26B521CC263086870470000BA
:10C66000202B002010B5084C031F24681C601B1FE2
:10C670001960191F054B0B6014390A60091F6FF010
:10C68000020244380A6010BD14E602001DC5020013
:10C690002DE9F741214C81B0002690460D462670C9
:10C6A00001200346009001AA6B21201DFDF780FFA9
:10C6B00000282AD101F0C2FD00F5A05708E00120B2
:10C6C00001F0ECF901F0BAFDB84201D914A019E06B
:10C6D00020780028F3D0267010486B2108302A46B5
:10C6E0004346FEF713FF00280FD101F0A7FD00F528
:10C6F000A0550DE0012001F0D1F901F09FFDA84205
:10C7000006D910A0FBF756FC0D2004B0BDE8F0815F
:10C7100020780028EED00020F7E70000D82B00207A
:10C72000545749202074696D656F757420696E20B7
:10C730007478213D3D3D3D3D3D3D3D3D3D3D3D3DD3
:10C740000D0A0000545749202074696D656F757497
:10C7500020696E207278213D3D3D3D3D3D3D3D3D92
:10C760003D3D3D3D0D0A00007CB5134D8DF80400A4
:10C770008DF80510002028700090022301AA6B217B
:10C78000281DFDF715FF00280FD101F057FD00F51A
:10C79000A0540BE0012001F081F901F04FFDA0420F
:10C7A00004D906A0FBF706FC0D207CBD28780028E4
:10C7B000F0D000207CBD0000D82B00205457492029
:10C7C0002074696D656F7574213D3D3D3D3D3D3D76
:10C7D0003D3D3D3D3D3D0D0A000000007CB5202162
:10C7E0006020FFF7C1FF04464FF4A05001F056F956
:10C7F00024B1214631A0FBF7DDFB02E035A0FBF7B9
:10C80000D9FB012269460020FFF742FF012201A95E
:10C810001046FFF73DFF4FF48064204601F03EF9DB
:10C82000651005E030A0FBF7C5FB284601F036F99E
:10C830009DF80000052803D09DF804007B28F1D165
:10C840009DF804209DF8001031A0FBF7B3FB602198
:10C850000220FFF789FF204601F020F9B5210320CF
:10C86000FFF782FF204601F019F9D5210420FFF7D8
:10C870007BFF204601F012F902210520FFF774FF2B
:10C88000204601F00BF900210620FFF76DFF20463E
:10C8900001F004F906210720FFF766FF204601F0AA
:10C8A000FDF803210820FFF75FFF4FF4006001F05F
:10C8B000F5F81EA0FBF77EFB7CBD00004661696CAD
:10C8C000656420746F2072657365743A2030782532
:10C8D000580D0A007375636365737320746F20725B
:10C8E000657365740D0A00004661696C65642074A7
:10C8F0006F206964656E746966792074686520517B
:10C9000053542073656E736F72210D0A000000008E
:10C9100069643A307825782C56455253494F4E5F1A
:10C9200049443A307825780D0A000000716D693865
:10C93000363538632072656769736974657220697A
:10C940006E6974206F7665720D0A00002DED028B02
:10C95000624A90B00FCA8DE80F000023604A694612
:10C960006048FDF705FE18B95E48001DFEF73CFD66
:10C970005DA0FBF71FFB4FF48064204601F08EF8AA
:10C98000FDF708F8204601F089F8FFF727FF204659
:10C9900001F084F801F068F9204692E059A0FBF715
:10C9A00009FB8DE05D4842F2117242F2107301689A
:10C9B0000A44B2FBF3F103FB112101600C220BA925
:10C9C000B520FFF765FEBDF92C00FAF754FF9FED87
:10C9D000548B53EC182BFAF76DFEFAF770FF0E909C
:10C9E000BDF92E00FAF747FF53EC182BFAF762FE59
:10C9F000FAF765FF0090BDF93000FAF73CFF53EC01
:10CA0000182BFAF757FEFAF75AFF8146BDF93200A4
:10CA1000FAF731FF9FED448B53EC182BFAF74AFEDF
:10CA2000FAF74DFF8046BDF93400FAF724FF53ECC6
:10CA3000182BFAF73FFEFAF742FF0446BDF936001D
:10CA4000FAF719FF53EC182BFAF734FEFAF737FF11
:10CA5000054637484FF0FF31006801F0F7FA01282A
:10CA60002ED12846FAF718FF06460F462046FAF759
:10CA700013FF04460D464046FAF70EFFCDE90401C8
:10CA80004846FAF709FF82468B460098FAF704FFFA
:10CA9000804689460E98FAF7FFFE41EC100B06A976
:10CAA00053EC102B81E8F0008DE8000F21A0FBF77C
:10CAB00081FA1F4800231A461946006801F09CF9C4
:10CAC000042000F0EBFF01220AA92E20FFF7E0FD71
:10CAD0009DF8281003293FF465AF5FE718E60200D0
