:020000040002F8
:10700000182A0120657402006D7402006F7402007A
:1070100071740200737402007574020000000000B5
:1070200000000000000000000000000019720200D3
:1070300079740200000000005D7202007D7402009D
:10704000317D02007F74020011800200597E02002F
:10705000657E02007F7402008D7C02007F74020056
:107060007F7402007F7402007F740200817D020041
:107070007F7402007F7402007F7402007F7402003C
:107080007F740200917D02007F7402007F74020011
:107090007F7402007F740200817E02007F74020010
:1070A0007F7402007F7402007F7402007F7402000C
:1070B0007F7402007F7402000000000000000000E6
:1070C0007F7402007F7402007F740200717E0200F0
:1070D0007F7402007F7402007F7402007F740200DC
:1070E0007F740200000000000000000000000000AB
:1070F000000000007F740200000000007F740200A6
:10710000000000000000000000000000000000007F
:10711000000000000000000000000000000000006F
:10712000000000000000000000000000000000005F
:10713000000000000000000000000000000000004F
:10714000000000000000000000000000000000003F
:10715000000000000000000000000000000000002F
:10716000000000000000000000000000000000001F
:10717000000000000000000000000000000000000F
:1071800000000000000000000000000000000000FF
:1071900000000000000000000000000000000000EF
:1071A00000000000000000000000000000000000DF
:1071B00000000000000000000000000000000000CF
:1071C00000000000000000000000000000000000BF
:1071D00000000000000000000000000000000000AF
:1071E000000000000000000000000000000000009F
:1071F000000000000000000000000000000000008F
:10720000DFF810D000F0C8F900480047F9B40200D8
:10721000AFF30080182A0120264B19680868B0E8EF
:10722000F04F80F30988BFF36F8F4FF0000080F3B9
:1072300011887047000000000748006880F3088844
:1072400062B661B6BFF34F8FBFF36F8F4FF4F0702C
:1072500080F3118800DF000000700200EFF3098066
:10726000BFF36F8F134B1A681EF0100F08BF20ED8D
:10727000108A20E9F04F106008B44FF0400080F30E
:107280001188BFF34F8FBFF36F8F0AF07DF84FF077
:10729000000080F3118808BC19680868B0E8F04F56
:1072A0001EF0100F08BFB0EC108A80F30988BFF3FE
:1072B0006F8F7047B82B002030B450E8012F93B285
:1072C000C48923448489A34228BF1B1B0489A34289
:1072D00002BFBFF32F8F002007E0C3EA020340E89C
:1072E0000134002CE9D14FF001000A6030BC704736
:1072F00050E8012FC2EA024240E801210029F7D1FB
:10730000704730B450E8022F1FFAA2F3C488A3429A
:1073100002BFBFF32F8F00200DE0C489234484896E
:10732000A34228BF1B1BC2EA034340E80234002CDF
:10733000E8D14FF001000A6030BC704750E8022FDE
:10734000C2EA224240E802210029F7D170470346F1
:1073500053E8022FD988B2EB324F4FF0000017BF2D
:1073600092B241EA014142EA014104E05A68B2EBBB
:10737000324F08BF012043E80212002AE8D17047CB
:1073800030B4044654E8000F0D4644E80053002B87
:10739000F8D1156030BC704730B4044654E8000F93
:1073A00040EA010544E80053002BF7D1156030BCDA
:1073B000704730B4044654E8000F00EA010544E881
:1073C0000053002BF7D1156030BC704730B4044631
:1073D00054E8000F80EA010544E80053002BF7D180
:1073E000156030BC704730B4044654E8000F00EB21
:1073F000010544E80053002BF7D1156030BC7047FD
:1074000030B4044654E8000FA0EB010544E80053F3
:10741000002BF7D1156030BC704770B404464FF0B4
:10742000000054E8006F0D68AE4207BF44E8002337
:10743000012044E800630E60002B1CBF0020F0E731
:1074400070BC704730B4044654E8000F88422CBF2B
:10745000451A054644E80053002BF5D1156030BCB1
:10746000704700000648804706480047FEE7FEE7F1
:10747000FEE7FEE7FEE7FEE7FEE7FEE7FEE7FEE7E4
:10748000857E0200017202002DE9F05F05460020B2
:1074900092469B4688460646814640241BE0284685
:1074A00041464746224600F067F853465A46C01AFE
:1074B000914110D311461846224600F016F82D1AB5
:1074C00067EB01084F4622460120002100F00DF82D
:1074D00017EB00094E41201EA4F10104DFDC4846F1
:1074E00031462A464346BDE8F09F202A04DB203A75
:1074F00000FA02F1002070479140C2F1200320FA07
:1075000003F319439040704700487047EC21030093
:1075100040EA01039B0703D009E008C9121F08C015
:10752000042AFAD203E011F8013B00F8013B521E95
:10753000F9D27047D2B201E000F8012B491EFBD20C
:1075400070470022F6E710B513460A46044619466E
:10755000FFF7F0FF204610BD421C10F8011B002968
:10756000FBD1801A7047034611F8012B00F8012B5C
:10757000002AF9D118467047202A04DB203A21FA64
:1075800002F00021704721FA02F3D040C2F120023C
:107590009140084319467047064C074D06E0E068E5
:1075A00040F0010394E8070098471034AC42F6D34A
:1075B000FFF72AFE582A0300782A030070B58C18BA
:1075C00010F8015B15F0070301D110F8013B2A11F7
:1075D00006D110F8012B03E010F8016B01F8016BE4
:1075E0005B1EF9D12B0705D40023521E0DD401F8E0
:1075F000013BFAE710F8013BCB1A921C03E013F8A9
:10760000015B01F8015B521EF9D5A142D8D30020DD
:1076100070BD00002DE9F04F81B02DED108B88B0CA
:10762000D0E901CB0488601E03900CEB800E002093
:10763000CDE90143B0EBD30F00F0FA81A0EBD40009
:1076400004F007059FEDF90ADB08069044F00700F7
:107650000CEB800A24F007000BEB80000590E0089B
:1076600007906842049060460C68CEF800404C6871
:10767000CEF804408C68CEF80840CC68CEF80C40B8
:107680000C69CEF810404C69CEF814408C69CEF8E5
:107690001840CC69CEF81C40079CD0ED007AD0EDA4
:1076A000010A90ED027A90ED031A90ED042A90ED14
:1076B000053A90ED064A002C00F04E81DDF8189056
:1076C0004FF00008F0EE401AF0EE402AF0EE403A9B
:1076D000B0EE405AF0EE406AF0EE405AF0EE404A0A
:1076E000B0EE406A0BEB080600EB080408F1200836
:1076F00019F1010996ED00CA94ED07BA94ED088AD4
:1077000096ED01DA94ED099A96ED02EA96ED03FA08
:1077100094ED0AAA6CEE0B8A63EE0CAA61EE0CBA29
:1077200064EE0C9A67EE8C7A71EEA81A67EE0C8AFA
:1077300073EEAA3A76EEAB6A72EEA92A60EE8C9AE4
:1077400036EE276A60EE8D0A61EE0F7A75EEA85A62
:107750006DEE088A74EEA94A6BEE0D9A36EE206A39
:1077600069EE0F0A71EEA81A64EE0D8A72EEA92A6C
:1077700073EEA83A62EE0D8A76EEA86A61EE0D8A83
:1077800075EEA85A67EE0D8A27EE0E7A74EEA84AB7
:107790006EEE098A36EE076A2FEE0A7A71EEA81AA3
:1077A00068EE0E8A36EE276A72EEA82A6BEE0E8A13
:1077B00031EE877A68EE0F1A73EEA83A63EE0E8AFE
:1077C00072EEA00A6BEE0F2A76EEA86A62EE0E8ABF
:1077D00073EEA11A75EEA85A61EE0E8A94ED0B1A9B
:1077E00074EEA84A62EE0C8A22EE0FCA35EE285AD1
:1077F00063EE0D8A23EE0FDA74EE8C4A35EE285ACA
:1078000064EE0E8A24EE0FEA75EE8D5A96ED07FAB5
:1078100035EE285A76EE8E3A35EE225AD6ED042A07
:1078200069EE0F8A68EE0F9A68EE227A22EE22CA7B
:107830002AEE22DA29EE222A62EE816A35EE275AF2
:10784000D6ED057A70EE8D0A23EE22DA71EE821AF9
:1078500094ED0C2A37EE267A6BEE226A64EE222A29
:1078600036EE0C6A74EE8D4A73EEA63A75EEA22AD5
:1078700023EE27DA2AEE273A29EE27CA67EE826A34
:1078800061EE275A71EE831A35EE0C5A96ED06CA50
:1078900094ED0D3A37EE267A68EE276A70EEA50A67
:1078A0006BEE275A64EE277A36EE0D6A73EEA63A2F
:1078B00072EEA52A74EEA74A6CEE036A62EE0C5AC9
:1078C00061EE0C7A2BEE0CEA2AEE0CDA2BEE0FBAF4
:1078D00037EE267A69EE0C6A70EEA50A68EE0C5A4D
:1078E00024EE0CCA94ED0E4A71EEA77A74EE8E4A1D
:1078F00035EE0D5A2AEE0FDA73EEA66A72EEA55A2D
:1079000036EE0C6A74EEA94A6FEE041A76EE8D6AB2
:1079100075EEA85A36EE0B6A77EE211A23EE0F7A2F
:1079200070EE872A21EE0F7A62EE0F0A77EEA03A08
:1079300035EE075AB0EE4A7AF0EE490AF0EE487A90
:107940007FF4D0AE059C5646F0EE487AF0EE490A38
:10795000B0EE4A7A13E000BF00F11C065C46B0EEC0
:10796000406AF0EE404AF0EE405AF0EE406AB0EE67
:10797000405AF0EE403AF0EE402AF0EE401A0EF196
:10798000200E2031C5B3049F94ED009AB0EE608ABA
:10799000F0EE470AB0EE417AB0EE421AB0EE432A5A
:1079A000B0EE443A96ED004A013706F1040604F1C0
:1079B000040429EE04AA23EE09BA22EE09CA21EE34
:1079C00009DA27EE09EA20EE89FA68EE098A67EEFD
:1079D000897A36EE276A71EE8A1A72EE8B2A73EE76
:1079E0008C3A35EE0D5A76EE8E6A75EE8F5A74EE3D
:1079F000A84AF0EE487AC7D182ED006AC2ED014A8A
:107A0000C2ED025AC2ED036A82ED045AC2ED053A94
:107A1000C2ED062AC2ED071A0AF1200A013B02F163
:107A2000200200F120007FF41FAE02E00000000001
:107A30006046029B13F0070928D0019B9FED280A9E
:107A4000C3F100080C684646B0EE401ACEF800407C
:107A5000002400BF05190BEB0407013604F10404F0
:107A600097ED002A95ED003A23EE022A31EE021A34
:107A7000F0D182ED001AB9F1010900F1040002F120
:107A800004020EF1040E01F10401DBD1039B00217D
:107A9000B1EB930F14D09908494200BF026801313D
:107AA000CCF800204268CCF804208268CCF808208A
:107AB000C26800F11000CCF80C200CF1100CEDD1D4
:107AC00013F0030106D0494250F8042B01314CF861
:107AD000042BF9D108B0BDEC108B01B0BDE8F08FDC
:107AE00000000000B0B582600546018004981C4685
:107AF00008446FF0030101EB80011846FFF721FDF8
:107B00006C60B0BD88B009F0EFF9334800680690AA
:107B10003248006805903248C068049009F0EEF9D8
:107B200000273E463D463C4609F01EFF079003F005
:107B3000C5F92CA000F00CFB33A000F009FB03F00A
:107B4000C9F900BF4FF4806107A809F0F9FA09F0FC
:107B5000CBF92148D0F800A02048D0F80090204868
:107B6000D0F80C8009F0CAF90699AAEB0100059932
:107B70000390A9EB01000290049904A8A8EB010B63
:107B800080E8000703F084F9804603985D440744C9
:107B90000298641C064403F091F92B4801785B4677
:107BA000CDE90081DDE90221284800F0D1FA03F097
:107BB00091F90A2CC6D303F081F92B463246394697
:107BC00023A0CDF8008000F0C3FA03F083F900276A
:107BD0003E463D463C46B5E72C2B0020302B00208E
:107BE0005C2C00200D0A4543472076657269666962
:107BF000636174696F6E207461736B20737461725A
:107C00007465640D0A000000445244593D68617275
:107C100064776172652065646765732C2046524104
:107C20004D453D535049206672616D65732C20436C
:107C30004F4E53554D453D627566666572207265BF
:107C40006164730D0A0D0A00EC2A002090220300E3
:107C5000454347564552494659203130733A2044EE
:107C60005244593D256C75204652414D453D256C89
:107C70007520434F4E53554D453D256C752050455D
:107C80004E44494E473D256C750D0A002DE9FC41D7
:107C90000025DFF8948000954FF4807601242F466C
:107CA0000195304605F094F838B1D8F80403204225
:107CB00003D0304605F082F82543361D64007F1C52
:107CC000B6B2082FEDD34FF4BE74204605F080F80D
:107CD00048B1204605F072F845F000456A46022199
:107CE000002004F06DFF15F0FF0F16D001260024D0
:107CF0002E420ED008EB8401D1F81005D1F81015F2
:107D0000C0F30520094AC1F3014152F8242002B111
:107D100090477600641C082CEAD3002D02DA6846EE
:107D200006F0D8FEBDE8FC81006000408817012005
:107D300070B54FF48076304604F01AFC0F4DB40550
:107D400040B1304604F01BFC0120C4F80803296848
:107D5000002088474FF48276304604F009FC002862
:107D60000AD0304604F00BFC0220C4F8080329684E
:107D7000BDE870400120084770BD0000442D002080
:107D800003220021014803F0C1BA000000B0004006
:107D90002DE9F041164E4FF4A071304605F0BCFBC2
:107DA0000025EFF31184402080F31188D6F8047584
:107DB0008100304605F0B0FB09F0D6FD381A20F0FE
:107DC0007F46012E07D909F0C1FD022803D0002605
:107DD00009F0D0FD0543761EFAD225B105494FF0D2
:107DE0008050086040BFE0B280F31188BDE8F081A8
:107DF0000010014004ED00E000F010B970B50E462F
:107E0000144900EB400001EBC0051446E86A183540
:107E100020B101280FD0022805D113E0284600F038
:107E200031F9A04201D2002411E022463146284611
:107E300000F06DF90BE0284600F024F9A042F4D2DE
:107E40000446F2E73146284600F034F9044620465D
:107E500070BD00008C1F0120014800680047000031
:107E60004C2D00200148006800470000542D0020E0
:107E70000149024803F024BAA8180120003002404A
:107E800005F02EBD10B54FF080520023D2E94C1002
:107E90000D2906D18C07C4F80C31C4F81031534CAD
:107EA00023600D2955D1524B1B68524C2360504B17
:107EB0001B1D1B68241D23604D4B08331B68241DAC
:107EC00023604B4B0C331B68241D2360484B10333D
:107ED0001B68241D2360464B14331B68241D23603C
:107EE000434B18331B68434C20342360404B1C33F6
:107EF0001B68241D23603E4B20331B68241D236018
:107F00003B4B24331B68241D2360394B28331B68EB
:107F1000241D2360364B2C331B68241D2360344BF7
:107F200030331B68334C40342360314B34331B688F
:107F3000241D23602E4B38331B68241D23602C4BDB
:107F40003C331B68241D2360294B40331B68241DD0
:107F500023600D2906D128480168C90702D06FF0B7
:107F6000010101602548016841F470010160BFF31F
:107F70004F8FBFF36F8FD2E94C104FF010220D29B5
:107F800007D130B1012804D0D2F8080217492031B6
:107F90000860D2F80002002803DBD2F804020028AF
:107FA0001FDA012006F00EFC1221C2F8001214485C
:107FB0000368002BFCD0C2F8041201680029FCD031
:107FC000002006F0FFFBBFF34F8F0C487C380168A0
:107FD0000C4A01F4E06111430160BFF34F8F00BF11
:107FE000FDE70A490848086010BD00003805004058
:107FF0000404001020C500400004004088ED00E0AB
:1080000000E401400400FA050090D0033C2E00205B
:1080100001480068004700005C2D002010B5124C9C
:1080200002202061606111A0A06104F17800E0618C
:108030004FF4007020620020A06260620BA1A16476
:10804000E06204F51E71E1641021A065C4E914101A
:10805000E06509A1E01DFFF786FA08A12046FFF7B9
:1080600082FA2020A07110BD8C1F01205465726D12
:10807000696E616C0000000052545400534547473C
:10808000455200000269C1688A4203D88068401ADC
:10809000104400E0501A401E7047002809DB00F031
:1080A0001F02012191404009800000F1E020C0F84A
:1080B000801270472DE9F047C46817468946064686
:1080C0004FF000083069A04201D9051B02E0B168F9
:1080D000201A0D1AB0686D1E001BA84200D8054674
:1080E000BD4200D33D4670682A4620444946FFF70A
:1080F0000FFAB0687F1B2C44A844A944A04200D1C9
:108100000024F460002FDDD14046BDE8F0872DE962
:10811000F04104468846D4E90207C51BE16860685F
:1081200016460844B54206D94146FFF7F1F9B81999
:10813000E060BDE8F0812A464146FFF7E9F9761B89
:1081400008EB050132466068FFF7E2F9E660F0E708
:108150000FB4054B10B503A9044A029800F044F887
:1081600010BC5DF814FB00006BAF0200D42D0020A2
:108170000FB47CB50C0009AD01D0611E00E00021F8
:10818000CDE90001064B6A462946089800F02CF814
:10819000002C02D0009A002111707CBC5DF814FB09
:1081A0003F86020002E008C8121F08C1002AFAD167
:1081B00070477047002001E001C1121F002AFBD167
:1081C000704700000121202803DA81400548014062
:1081D00003E0402802DA2038814009B101207047CD
:1081E00000207047FC06FFBD2DE9FF4F8DB00F4604
:1081F0000546002606E025280BD0DDE90F12904742
:108200006D1C761C28780028F5D111B03046BDE8E9
:10821000F08F0024A246A1460122E94900E0044370
:1082200015F8013F203B02FA03F00842F7D1287805
:108230002A2810D06FF02F022878A0F130010929E8
:1082400014D80AEB8A0102EB410144F0020400EB6E
:10825000010A6D1CF0E701CF5FEA000A03D544F480
:108260000054CAF1000A44F002046D1C28782E283C
:1082700017D115F8010F44F004042A280ED06FF02E
:108280002F022878A0F1300109290AD809EB8901C9
:1082900002EB410100EB01096D1CF2E757F8049B6A
:1082A0006D1C28786C280FD006DC4C2817D0682865
:1082B0000DD06A2814D104E0742810D07A280FD188
:1082C0000DE044F400140AE044F4801401E044F4A6
:1082D00040146978814202D104F580146D1C6D1C34
:1082E00028786E281ED00CDC632830D004DC0028EF
:1082F0008BD0582811D19FE0642867D069280CD111
:1083000064E073282DD004DC6F2872D0702804D16B
:1083100094E075286ED078286DD0DDE90F12904773
:10832000761C4BE1C4F30250022806D0032809D082
:10833000042801CF09D0066040E101CFF117C0E960
:1083400000613BE101CF068038E1067036E117F8A5
:10835000040B8DF8000000208DF80100EB46012091
:1083600003E057F804BB4FF0FF3061074FF0000106
:1083700002D40DE008F10101884649450FDA804535
:10838000F8DB1BF808100029F4D108E008F101011E
:1083900088468142FADB1BF808100029F6D1DDE996
:1083A0000F23AAEB08008146214600F031F9304442
:1083B00000EB080604E0DDE90F121BF8010B904703
:1083C000B8F10108F7D221464846F2E00A21C4F389
:1083D00002524FF0000B0891022A04D001CFC117BE
:1083E000032A09D00AE0FF1D27F00707F7E802017A
:1083F00008E02CE01EE01FE000B2C117042A01D102
:1084000040B2C117021E71F1000206DA0023D0EB60
:10841000030063EB01012D2202E0220504D52B228B
:108420008DF82420012203E0E20701D02022F7E7A3
:10843000904653E00A210BE0102109E010214FF093
:10844000000B44F004044FF00809089103E00821F0
:108450004FF0000B0891C4F30252022A04D001CF5E
:108460000021032A06D006E0FF1D27F00707F7E8E2
:10847000020103E080B2042A00D1C0B24FF000082C
:1084800022072BD52A78702A07D0DDF820C08CF07F
:10849000100C5CEA0B0C05D00EE040228DF8242075
:1084A000012208E050EA010306D030238DF8243081
:1084B0008DF8252002229046089B83F0080353EA9A
:1084C0000B030BD150EA010201D1620706D530221D
:1084D0008DF824204FF00108A9F101092A78582AC3
:1084E00004D038A20B9208AA0A920BE03AA2F9E74C
:1084F0005B46089AFEF7C8FF0B9B9B5C0A9A521ECC
:108500000A92137050EA0102F2D10A98ADEB000012
:1085100000F1200B600702D524F4803401E04FF015
:108520000109D94502DDA9EB0B0000E0002000EBBA
:108530000B0141440890AAEB010AE00306D4DDE9EF
:108540000F232146504600F063F806444FF000091F
:1085500008E009A911F80900DDE90F12904709F1B7
:108560000109761CC145F4DBE0030CD5DDE90F23DE
:108570002146504600F04CF8064404E0DDE90F12B5
:1085800030209047761C0899481E08900029F5DC99
:1085900008E00A980A990078491C0A91DDE90F124F
:1085A0009047761CBBF10001ABF1010BF1DC2146D9
:1085B0005046DDE90F2300F019F806446D1C21E652
:1085C00009280100303132333435363738396162A9
:1085D000636465660000000030313233343536376D
:1085E0003839414243444546000000002DE9F0413E
:1085F000044600251E461746880404D405E0394683
:108600002020B0476D1C641EF9D52846BDE8F081D6
:108610002DE9F041044600251E469046C80301D5C9
:10862000302700E02027880404D505E0414638467D
:10863000B0476D1C641EF9D52846BDE8F0814A6834
:10864000002A06D00A68531C0B6010704868401E50
:108650004860704738B5062000F066FA08B100F0AF
:108660005DFB0A2003F094FF112000F05DFA08B1D1
:1086700000F054FB012003F08BFF6946002000F05E
:1086800035FA08B100F04AFB7F489DF80010817070
:108690007EA0FFF75DFD0121084600F083FA08B1D6
:1086A00000F03CFB6946012000F020FA08B100F020
:1086B00035FB754C9DF80020E41C0121A2707AA0C6
:1086C000FFF746FDA021022000F06CFA08B100F08F
:1086D00025FB6946022000F009FA08B100F01EFBF4
:1086E00069489DF80010801D81707AA0FFF730FD69
:1086F0001021032000F056FA08B100F00FFB694684
:10870000032000F0F3F908B100F008FB5E499DF882
:1087100000000F3188701021042000F043FA08B1E6
:1087200000F0FCFA6946042000F0E0F908B100F01E
:10873000F5FA55489DF800100930817070A0FFF7D8
:1087400007FD1021052000F02DFA08B100F0E6FA2F
:108750006946052000F0CAF908B100F0DFFA4A487E
:108760009DF800100C3081706FA0FFF7F1FCEF2135
:10877000062000F017FA08B100F0D0FA694606208A
:1087800000F0B4F908B100F0C9FA3F499DF80000C3
:10879000123188700021072000F004FA08B100F0BF
:1087A000BDFA6946072000F0A1F908B100F0B6FA59
:1087B00035499DF80000153188700021082000F02F
:1087C000F1F908B100F0AAFA6946082000F08EF924
:1087D00008B100F0A3FA2C499DF800001831887008
:1087E000E221092000F0DEF908B100F097FA6946AD
:1087F000092000F07BF908B100F090FA22499DF8B9
:1088000000001B31887003210A2000F0CBF908B169
:1088100000F084FA69460A2000F068F908B100F017
:108820007DFA19499DF800001E3188700C210B203B
:1088300000F0B8F908B100F071FA69460B2000F0B9
:1088400055F908B100F06AFA0F499DF8000021318E
:108850008870A078012801D03DA000E048A0FFF773
:1088600077FC082000F060F908B100F057FA012009
:1088700003F08EFE102000F057F908B100F04EFA18
:10888000012003F085FE38BDF22A00204144533117
:108890003239322049442076616C75653A2030784F
:1088A000253032580D0A000041445331323932200C
:1088B000434F4E464947312077726974653D3078A1
:1088C0002530325820726561643D30782530325849
:1088D0000D0A00004144533132393220434F4E4695
:1088E0004947322077726974653D30784130207293
:1088F0006561643D3078253032580D0A0000000073
:108900004144533132393220434831534554207762
:10891000726974653D3078313020726561643D3034
:1089200078253032580D0A00414453313239322013
:108930004348325345542077726974653D3078312D
:108940003020726561643D3078253032580D0A0060
:1089500041445331323932204552524F523A20432A
:108960004F4E4649473120726561646261636B20F6
:108970006973206E6F7420307830310D0A0000006A
:1089800041445331323932207265676973746572BC
:108990002073657474696E67207265717565737490
:1089A0007320323530205350530D0A00FEB508F0C5
:1089B000DBFF324C0546E078002851D0606D281A64
:1089C000B0F5806F29D3216CE26D891A626C236E39
:1089D000D21AA36C666E9B1BE66CA76EF71B01EBAD
:1089E0008106F60206EB5006B6FBF0F00A26B0FB55
:1089F000F6FC06FB1C0CB0FBF6F0CDE90070CDF8E0
:108A000008C01FA0FFF7A4FB6565206CE065606CE3
:108A10002066A06C6066E06CA066A06D281AB0F5B8
:108A2000205F1CD3216CE26E891A626C236FD21A0C
:108A30004FF4C8334B4303EB5003B3FBF0F0642314
:108A4000B0FBF3F603FB1606B0FBF3F31BA0009696
:108A5000FFF77EFBA565206CE066606C2067FEBDBD
:108A60000120E0706565A565206CE065606C20669E
:108A7000A06C6066E06CA066EDE70000EC2A0020C8
:108A80004144532031733A20445244593D256C757A
:108A9000204652414D453D256C7520494E563D2599
:108AA0006C75204552523D256C75205350533D2521
:108AB0006C752E2530316C750D0A00004144532031
:108AC0003130733A20445244593D256C752046524A
:108AD000414D453D256C75204156473D256C752E11
:108AE0002530326C75205350530D0A001CB54FF0E1
:108AF00000020C00019215D000F01F0040F0200091
:108B00008DF800008DF801208DF80220032301AAC2
:108B10001946684600F010F8002802D19DF80610AA
:108B200021701CBD0E201CBD01B500231A46012179
:108B3000684600F001F808BD2DE9FF41164C0025FC
:108B4000A570C9B2DBB28DE80F0000226946134858
:108B500005F012FA00280FD108F006FF054614268A
:108B60004FF08057DFF8388010E000BF08F0FCFEBF
:108B7000401BB04203D30D2004B0BDE8F081C8F81B
:108B8000007040BFBFF34F8FBFF36F8FA0780028F6
:108B9000ECD00020F0E70000EC2A00205C1D030070
:108BA00004ED00E008B500F01F0040F040008DF833
:108BB000000000208DF801008DF8021003460246E7
:108BC00003216846FFF7B8FF08BD90F8240001288C
:108BD00001D01F207047EE20704710B501220221FE
:108BE000002001F039FB08B1072810D1072202212B
:108BF000012001F031FB08B1072808D100210A2229
:108C0000084601F029FB08B1072800D1002010BD5B
:108C100000B5ABB0AC216846FEF793FC02208DF89E
:108C2000000000218DF8021006208DF803000120BD
:108C30000F4A1492ADF84C004022229244F2506246
:108C400023928DF87C000B4A29928DF87D004FF419
:108C5000C860CDE924016946074800F0CEFB08B1A1
:108C600000F05CF80121044800F0C4FB2BB000BD0B
:108C70008C2B0020DDE70200348E002010B503218C
:108C8000044800F063FC002803D0BDE8104000F069
:108C900045B810BD348E002010B572B604F018FB34
:108CA00004F064F90028FBD111481249401AC408A5
:108CB000012000EB044010A104F072FA1148006892
:108CC000C00700D000BE022000EB04400EA104F05B
:108CD00067FABFF34F8F0B48E43801680E4A01F47E
:108CE000E06111430160BFF34F8F00BFFDE700005B
:108CF000002B0300882A0300466174616C206572B2
:108D0000726F7200F0ED00E053797374656D20723C
:108D100065736574000000000400FA050EB50021BB
:108D20000091CDE901106A4644F20100FFF7B4FF5B
:108D30000EBD10B58268C368934203D002F0E9F813
:108D4000002010BD052010BD29B112B1531E1342E1
:108D500003D0092070470E207047016083800021F6
:108D60008160C1600846704710B58268C3689A1A6E
:108D700083889A4203D802F0D6F8002010BD042060
:108D800010BD0000014801F0E0BE0000882D002069
:108D900010B55AB100684FF0FF3401294261C0E9B3
:108DA000024400D000210161002010BD072010BD49
:108DB00038B5114808235822416800910F490068CE
:108DC00003F0B7F9002815D10D4A69460D4801F0A6
:108DD000C1FE04000ED101210A4801F036FF012333
:108DE000094A1946074801F088FE0649012008395A
:108DF0000870204638BD0000E41E0300441901201D
:108E0000B5F40200882D0020FFFF7F00F8B504466E
:108E1000002617460D468DF80060684600F0D8F829
:108E2000D4E90201C04370EA010005D09DF80000BA
:108E300000F0F2F80020F8BD02F016F94019714177
:108E4000C4E902019DF8000000F0E6F8A76120697E
:108E500000B125612146BDE8F840002007F090B937
:108E600038B5044600208DF80000684600F0B0F8E0
:108E7000D4E90201C04370EA01000DD04FF0FF3089
:108E8000C4E902009DF8000000F0C6F82146BDE8E4
:108E90003840012007F074B99DF8000000F0BCF8DC
:108EA000002038BD70B50A4E01460A48B578FFF774
:108EB00040FF04464DB10020B070711C0122C81D56
:108EC00003F06EFC08B1FFF729FF204670BD0000DB
:108ED000A42D00209C190120F0B5244E89B01F4616
:108EE0000D00044672603FD0A888296882B22048ED
:108EF000FFF72AFF002835D1A889A96882B21C484B
:108F00001030FFF721FF00282CD120221949684694
:108F1000FEF7FEFA60690690207C00B101208DF812
:108F200014008DF81C70607C00B10E208DF81500C7
:108F3000E0680290A068039020680190606800904B
:108F40000A480D4A6946083003F0F6FB002809D1AB
:108F5000B0702068401C05D004490122491CC81D7E
:108F600003F01EFC09B0F0BD0720FBE7A42D002094
:108F70009C190120F81E03002108030010B50146CA
:108F80001048FFF7F1FE040019D10F480F4A01788D
:108F9000515C19B1001D05F06DFB02E00C3005F0CD
:108FA00043FA60B9084907480839FFF7C2FE30B9EB
:108FB000054901220839044803F002FC0446204612
:108FC00010BD0000AC190120AC2D0020302D002078
:108FD00030B5EFF3108172B60D4A9468012324B1C5
:108FE0000370002900D162B630BD93604FF0E023DA
:108FF000D3F88051074C25401560C3F88041D3F861
:10900000844154605A17C3F8842100220270E8E7B3
:10901000BC190120FC06FFBD0B498A68002A11D04B
:1090200000280FD1EFF3108072B60B684FF0E022EA
:10903000C2F800314B68C2F8043100228A6000286F
:1090400000D162B670470000BC19012070B505461A
:1090500008680C46411C04D003F075FE206803F03C
:1090600079FD6068411C02D0002103F057FD29689A
:10907000A069C1F82405607D227D29681043C1F8EC
:109080006C05D4E900122868C0F81425C0F80C1546
:10909000207D012814D1A068411C02D0002103F0DA
:1090A0003DFDE068411C04D003F04DFEE06803F094
:1090B00051FDD4E902122868C0F80825C0F810153F
:1090C00070BD70B5054608680C46411C04D003F01D
:1090D00044FE206803F048FD6068411C02D0002176
:1090E00003F025FD2968A069C1F82405607D217D74
:1090F0002A680843C2F86C05D4E900122868C0F851
:109100000C15C0F81425207D012814D1A068411C3D
:1091100002D0002103F00BFDE068411C04D003F0F5
:109120001CFEE06803F020FDD4E902122868C0F8B4
:109130000825C0F8101570BD10B58478836800222A
:1091400004B1012244780CB142F00202C4780CB19F
:1091500042F0040204790CB142F00802A5240C701C
:109160005A244C7001248C70CC7006240C714A7106
:1091700000788871180EC871180C0872180A4872A5
:109180008B720B23002210460C5C401C624080B2A4
:109190009842F9D3CA7210BD10B504460748C0788A
:1091A0004042204009D007F09FFE3022044920466B
:1091B000FEF7AEF907F0A2FE012010BD702C0020D2
:1091C0006816012070B51500044609D000202860FB
:1091D00034B1206820B1A079800703D0072070BD8A
:1091E0000E2070BD084600F0FDFAC0B2142804D06D
:1091F0002179814203D8042070BD052070BDE2882A
:10920000216800FB02102860002070BD2DE9FC479A
:10921000002517880646158090F82D0014468946CB
:1092200030B13A462146484600F0F0FA051E09D111
:10923000B0784FF00C0A18B32088C846001DB84219
:1092400002D95046BDE8FC87684679DF0028F9D18D
:109250002088032108F8001020881921401C80B2C2
:10926000208008F800102088401C80B2208000EB8D
:109270000801BDF8000007F098FC21880844208010
:10928000F0780222C8B1218896F9033001F1030C6D
:109290004846BC45D5D8425421884FF0010C491CA2
:1092A00089B2218000F801C02188491C89B221803F
:1092B00009F801302088401C20807068B8B12188EE
:1092C00090F9003001F1030C4846BC45B9D842542E
:1092D00021880A22491C89B2218042542188491CD4
:1092E00089B2218009F801302088401C2080308913
:1092F00050B1CDE900474B460622022106F1080095
:1093000007F00AFD051E9DD1308A50B1CDE9004716
:109310004B460722032106F1100007F0FDFC051E55
:1093200090D1308B50B1CDE900474B461522142126
:1093300006F1180007F0F0FC051E83D1306A30B149
:109340003B462246494601F056FA051EDBD1706ABB
:1093500030B13B462246494602F0B2FA051ED2D150
:1093600096F82C0038B13B4622464946304606F076
:1093700015FA051EC7D1307838B13B46224649461A
:10938000304602F083FE051EBDD128465AE718B5C7
:1093900004460020ADF8000013466A46204600F05F
:1093A00006F8002802D0BDF80000204418BD70B5B2
:1093B000E0B1DAB1002402E0045D2C44A4B2651CE3
:1093C0008D4206D21688A642F6D8061976789E42B5
:1093D000F2D18C420AD2A31C005D9BB200B1401EA8
:1093E0000004000C02D01C188C4201D9002070BD72
:1093F000138070BD80F8301070472DE9F0410D00EA
:10940000044606D02CB195F87A000026012803D036
:1094100006E00E20BDE8F08195F89800012821D0E3
:109420004FF00108A6702C2205F17801201DFEF7EF
:109430006FF884F83060D5F8A4006063D5F8A80010
:10944000A0634FF6FF70A4F8240404F58260C4F80A
:109450002004C4F82664A4F82A6484F82C642078D4
:1094600010B104E00720D5E7FF2084F8540004F190
:1094700055072046C4F81074FFF7A7FBA4F814049E
:1094800004F2144239462846FFF7C0FE0028C1D135
:1094900004F23120C4F818042046FFF796FBA4F824
:1094A0001C0404F21C4205F13C00D4F81814FFF728
:1094B000ADFE0028AED184F85180208BA4F848007E
:1094C00084F83C80266484F8506060690021606400
:1094D000454604F13C02781E72DF00289AD12570BF
:1094E00098E710B50288102A1BD0112A20D0262A0E
:1094F0001DD1007A0C46012801D0022817D1A0788E
:109500000521401CB0FBF1F201FB1201204600F0E6
:109510001DF800280BD0A16B002908D0BDE8104031
:109520000847C27B012A02D18088A1F8240410BD1B
:109530000C46002184F82E148088B4F82414884244
:10954000F5D120790028F2D10121DFE72DE9F05F84
:10955000044600780F4698B1A7700025C4F8265439
:10956000A4F82A5484F82C54A079012608B1012FBC
:1095700009D0E07980B1012F05D0022F03D00BE094
:109580000820BDE8F09F616B21B184F82D640820AC
:10959000884701E084F82D5404F2274100200A5C3A
:1095A0000AB1304603E0401C0628F8D300204FF0F3
:1095B00002084FF0030B012F06D0022F0CD0032F0F
:1095C0000FD0042F15D110E0A17929B194F82410FF
:1095D00011B908B130460DE0E17911B108B140464A
:1095E00008E0207A08B1584604E0607A08B1042007
:1095F00000E02846A070616B41B1032801D0042827
:1096000004D1607910B194F82E0498B184F82F54E5
:1096100004F13C0018210746FDF793FF84F83C60F5
:1096200004F12C0005F024FA58B194F82C0084F8C9
:10963000510008E084F8305484F82F6407208847EC
:10964000E6E784F8516094F8240058B104F128004A
:1096500005F00EFA20B194F8280084F8520001E0D9
:1096600084F8526084F85050A27804F2264104F540
:1096700082694FF0060A052A64D2DFE802F07C0313
:109680000F22420084F83160C4F82054C4E9101558
:1096900084F83C808020A4F8480055E084F83180AC
:1096A00094F82420384612B10722027001E080F8B5
:1096B00000B0228A8281C4F820544160E168B96018
:1096C00042E06069B860208BB88194F824003D4680
:1096D0000028204602D084F83CA001E084F83C60D9
:1096E00007F0FCFA50B185F814800421204601F0FF
:1096F00028FC38BB052184F8311021E084F831B012
:109700001EE0E069B860208CB88194F824003D46E2
:109710000028204602D084F83CA001E084F83C6098
:1097200007F0DCFA48B185F814800421204601F0E6
:1097300008FC38B984F831A002E0042084F8310034
:10974000C4F82094A07878B13A4604F15400D4F8D3
:10975000201472DF00287FF414AF94F8301094F8CE
:10976000540073DF0028F6D1616B11B194F8310019
:109770008847002005E784F83150F5E770B504000C
:1097800012D001461C221448FDF7C2FE1248134DA8
:109790000560206850B17ADF002806D12068016892
:1097A00029604068686005E00E2070BD0B487BDFD3
:1097B0000028FAD108484FF6FF711438084A20F8FB
:1097C000041B0549343901600021FFF7E1FA002844
:1097D000EBD0032070BD0000DC160120282D0020F6
:1097E000750C030010B5044600F006F808B12046D9
:1097F00010BD142010BD0000142801D300207047B4
:109800000146014802F0DFBCFC1601207CB505468C
:1098100008880C460930904201D90C207CBD68466E
:109820006DDF0028FAD121880820685420881B2188
:10983000401C80B2208029542088401C80B22080A7
:109840002844DDF801100160BDF8051081802088F2
:10985000801D80B220809DF80010490800D00121B1
:1098600029542088401C208000207CBD38B5054646
:1098700000880021344C212837D013DC12285BD01B
:109880000ADC10281ED0112839D1A16021704FF6B2
:10989000FF7060802DA052E0132831D020282ED1F7
:1098A0002EA04CE0222849D03B283DD0522831D070
:1098B000562824D1A888132176DF08B1FFF72EFAA5
:1098C0002AA03CE00120A060072000F0E7FC08B1DE
:1098D000FFF724FAA98861802A4802F0D1FD002808
:1098E0000DD0BDE83840FFF719BA0091A888694645
:1098F0008FDF08B1FFF712FA23A0FEF729FC38BD6D
:1099000000231A46852160887FDF08B1FFF706FA39
:1099100026A014E000231A4619466088B1DF08B17A
:10992000FFF7FCF92AA00AE0A888132176DF08B126
:10993000FFF7F4F92FA002E034A000E03CA0BDE85E
:109940003840FEF705BC0000802B0020646973637B
:109950006F6E6E6563740D0A000000007363616EC4
:10996000207265706F72740D0A000000424C455FF2
:1099700047415454535F4556545F54494D454F55E4
:10998000540D0A00288E0020424C455F4741505F2D
:109990004556545F5048595F5550444154455F52B5
:1099A0004551554553540D0A00000000424C455F97
:1099B0004741505F4556545F5345435F50415241C4
:1099C0004D535F524551554553540D0A0000000058
:1099D000424C455F47415454535F4556545F535979
:1099E000535F415454525F4D495353494E470D0AFA
:1099F00000000000424C455F47415454435F4556C8
:109A0000545F54494D454F55540D0A00424C455F33
:109A10004741505F4556545F434F4E4E5F50415251
:109A2000414D5F5550444154452E0D0A0000000041
:109A3000424C455F4741505F4556545F5048595F1F
:109A40005550444154452E2E2E2E2E0D0A00000056
:109A500010B51A4C0188606810290ED011292BD13D
:109A6000401E606028D1FFF7B8F8002824D0216894
:109A7000002921D0BDE810400847D0B900210122BB
:109A8000084600F0E9FB08B107280FD107220221A0
:109A9000012000F0E1FB08B1072807D104220221D0
:109AA000002000F0D9FB20B1072802D0216801B1C5
:109AB00088476068401C606010BD0000202D0020B9
:109AC0002DE9F04701883B4E40F2F3194FF6FF7540
:109AD00010291BD011293ED0122954D0502946D12B
:109AE000C188F289841D914241D1618902293ED108
:109AF0008688304601F0DCFA050038D004F10C000D
:109B000000F0AEFAA8B3294630464EE0C17B878804
:109B1000044601292BD1A846284601F0C9FA0500C0
:109B200017D02F8000202872234843464A460168F8
:109B3000C5F80A104068C5F80E0004F1100105F1DF
:109B40000A0001F033FC6872F08900280FD1294621
:109B50002AE0042013E0808801F0AAFA040006D06D
:109B60006068FFF77DF908B105F0E8FD2580BDE8E4
:109B7000F087FFE76868FFF773F90028F7D0BDE8C2
:109B8000F04705F0DBBD87880646384601F090FABD
:109B90000400ECD02B464A4606F1080104F10A0005
:109BA00001F004FC607221463846BDE8F04700F041
:109BB0008FBE0000DC160120282D00202DE9F04F7B
:109BC000044686880188424897B0834610290CD005
:109BD000112950D0103019296AD01A2974D1217A4C
:109BE0000C09042C4DD301224CE0394D083DA868E6
:109BF000C0430B9069680BA802F006FB0B990CA8F8
:109C000000F0DAFD2C220CA96846FDF781FC002744
:109C1000E946A84610E000BF09EB47005FF00005E9
:109C2000B0F804A008EB85005146001D02F0C0FA10
:109C30006D1C1E2DF6D37F1C0098B842ECD8142E54
:109C400005D317B00420BDE8F04FFFF767B83146E1
:109C5000584602F0C3FA314608F1040002F0BEFA99
:109C6000E07B022830D117B03146BDE8F04F1848EC
:109C7000001D02F0B3BA17B03146BDE8F04F02F054
:109C800097BA0022314601F057F9032C01D3012283
:109C900000E000220E4831460C3001F04DF9022C54
:109CA00001D3012200E0002209483146083006E0D5
:109CB000217A002908D1617AC1F3C002314617B078
:109CC000BDE8F04F01F038B917B0BDE8F08F0000E3
:109CD00000170120F0B585B016460F4604001D465A
:109CE00014D004AA19466069FFF76CFA00280BD15A
:109CF000A5F57F40FF380BD0049848B1007848B1F3
:109D00003088F42808D9072005B0F0BD0E20FBE705
:109D10000520F9E70820F7E7002000900190029065
:109D20000390A088ADF8000001208DF80200CDE975
:109D3000026769462846AEDFE6E7000070B5344D9D
:109D400004008EB02DCD08AE86E82D005DD0E9B3BD
:109D50000868A061214608A862DF002853D1207856
:109D60008DF832004FF6F170ADF83000A21C0CA94E
:109D70000120A8DF002846D120216846FDF7E1FB3D
:109D80000220ADF80000207801258DF802008DF842
:109D90000C509DF80D00F426ADF8046040F00C0066
:109DA0008DF81150ADF806508DF80D008DF8125059
:109DB000608804F10C02694600F008FC002822D1FA
:109DC00020216846FDF7BDFB032000E01DE0ADF853
:109DD000000020788DF802008DF80C509DF80D00E1
:109DE0008DF81150ADF8046040F010008DF812505D
:109DF000ADF806508DF80D008DF813506088221DC7
:109E0000694600F0E3FB0EB070BD0E20FBE70000DA
:109E10007C1E030030B587B00446002928D0002CF2
:109E200026D008462188102924D0502928D0572927
:109E30001ED10546A18840696A46FFF7C3F900288C
:109E400016D100980078002812D0A86900280FD0F9
:109E5000182101A8FDF775FB01208DF8040002957B
:109E6000A088ADF80C0000980490A96901A8884763
:109E700007B030BD07B02146BDE8304004F0D6BC85
:109E800007B02146BDE8304004F0B0BD73B5040012
:109E900035D0BDF804000C2831D12078A5282ED16A
:109EA00060785A282BD1A078012828D1E0780128A1
:109EB00025D1224D6888A0F57F41FF3918D0287838
:109EC00000281CD003F01EFDA0B1BDF8040098B11D
:109ED0006B8801AA214605F11000FFF7FBFE014641
:109EE000072816D00CDC002909D004290CD11BE06E
:109EF00013A002E018A00DE01EA0FEF729F97CBD1A
:109F0000082904D0132908D021A0FEF721F96620E2
:109F100007E025A0FEF71CF9F9E72FA0FEF718F9D6
:109F20000A2007F0F3F87CBD30A0FEF711F907F026
:109F300063FA014630A0FEF70BF97CBD802B0020B0
:109F40004E6F2061637469766520636F6E6E656322
:109F500074696F6E0D0A00004E555320736572765A
:109F6000696365206E6F7420726561647979200D74
:109F70000A000000496E76616C6964206461746156
:109F800020706172616D65746572730D0A00000066
:109F900053656E64206661696C65643A203078258B
:109FA00058200D0A00000000496E76616C6964203B
:109FB000706172616D65746572732E2043686563AC
:109FC0006B204E555320696E697469616C697A61C2
:109FD00074696F6E200D0A00424C452073746163F2
:109FE0006B2062757379200D0A0000004E4F204DE2
:109FF000454D2020202020004672656552544F5365
:10A00000206865617020667265653A20256C752050
:10A010006279746573202020202020202020200DCC
:10A020000A0000000D4D90B00024A868012811D14D
:10A03000287878B16846FFF7AFF858B10298A04287
:10A0400008D00CA96846FFF777F80C210CA8FFF799
:10A050001DFF029C332007F059F8E6E7802B002013
:10A06000007800F0010070473EB503F0E1FB08B155
:10A07000FEF754FE002469460120009403F068FABC
:10A0800008B1FEF74BFE684603F0FAFA08B1FEF796
:10A0900045FE012001948DF80400029401A90220DC
:10A0A00067DF002801D0FEF739FE3EBD0EA0FEF7A7
:10A0B0004FF806F081F804F09BFDFFF7D5FF00F0A4
:10A0C0005BFF00F0B9FF05F0ADFBFEF7A1FD00F06E
:10A0D000D9FBFEF7D3FD08A0FEF73AF800F0DEFF4B
:10A0E000662007F013F8F9E7626C655F74687265C3
:10A0F00061640D0A00000000616476657274697322
:10A10000696E672E2E2E0D0A00000000094908B561
:10A11000085C0090684602F097FDD0F80425009B8B
:10A120000121994021EA0203C0F808351140C0F826
:10A130000C1508BD301E03000249085C012102F025
:10A140002ABE0000301E03000249085C002102F014
:10A1500022BE0000301E0300084908B5085C0090CC
:10A16000684602F071FDD0F804050099C84010F06F
:10A17000010000D0012080F0010008BD301E030066
:10A1800010B500242046FFF7D7FF641C042CF9D338
:10A1900010BD10B500242046FFF7D6FF641C042C28
:10A1A000F9D310BD10B50246064B4FF0FF30002129
:10A1B0005C5C944201D1084610BD491C0429F7D3C8
:10A1C00010BD0000341E03002DE9F0470D46814606
:10A1D000FFF7E8FF0446042836D2DFF874801B48F6
:10A1E0001C4EA8F10C0725B3012D0ED0022D2BD14A
:10A1F00004EB440030444578002D25D0B96800298F
:10A2000022D02846BDE8F047084704EB4401755CBE
:10A210000E44717849B10E4A4FF48041093A806882
:10A22000FEF7F4FD08B987F80390B17808F8041038
:10A23000E2E78068FEF714FE04EB4401314418F8AD
:10A2400004008D78A842D7D0BDE8F087381E0300FF
:10A25000BC2C00209816012070B50023042810D2D1
:10A260000D4D00EB4004012A02D101290CD000223F
:10A27000094E00EB4000304461B1012906D00229AB
:10A2800006D00723184670BD0E30C2B22A55F9E732
:10A290004270F7E78270F5E798160120044A0146FC
:10A2A00000201279D20702D0084600F003B87047A8
:10A2B000B02C00202DE9F05F6E4C0546002660783A
:10A2C000B34618B184F801B001F09EF86A4F4FF41C
:10A2D0007A694FF4C87A4FF00108182D69D2DFE887
:10A2E00005F00C1313384754696E727B727BC5847A
:10A2F00084848484B3B6B9BCC5C501F085F83868D8
:10A30000FEF7AEFD06465CE00020FFF725FF0028C3
:10A310004FF0000008D0FFF70FFF022D02D14FF4DD
:10A32000E16008E0484606E0FFF70EFF022D01D18C
:10A33000C82000E05046410CC0034FF47A728018E8
:10A3400041F10001257052000023FDF79DF8014600
:10A350002AE00020FFF700FF00284FF0000004D0A3
:10A36000FFF7EAFE4FF44870E5E7FFF7EDFEDFE7A1
:10A370000020FFF7F1FE00284FF0000002D0FFF7A9
:10A38000DBFECFE7FFF7E0FED4E70020FFF7E4FEB7
:10A3900000284FF0000002D0FFF7CEFE01E0FFF7EB
:10A3A000D3FE257040F6CD4100223868FEF72EFD21
:10A3B000064646E00020FFF7A9FE257008E00020D1
:10A3C00051E025703DE084F801800120FFF79EFEFA
:10A3D000002240F26661E8E784F801800120FFF77F
:10A3E00095FE00224FF40051DFE77868FEF738FD54
:10A3F0000646D5F1110000D02EB10220FFF79CFED9
:10A4000084F802B01DE0012816D980B2C821484363
:10A41000C117C90341EA5041C0034FF47A72801852
:10A4200041F1000152000023FDF72EF80146002201
:10A430007868FEF7EBFC06460220FFF785FE84F8FD
:10A4400002803046BDE8F09F00F0DEFFB9E700F083
:10A45000DBFFB4E700F0D8FF04E000F0D5FF0020F8
:10A46000FFF772FE0120FFF76FFEAAE7FFF791FEEC
:10A47000A7E70000B02C0020381E03002DE9F84F9C
:10A480000546861C00208DF8000091460F464FF0CF
:10A49000010A6846FEF79CFD1B4C04F21C486068EC
:10A4A0003860D4E90101194F401A3968081A0EE0E2
:10A4B0000121404601F0A2FE00F0CCFF01464046DB
:10A4C00001F09CFED4E90101401A3968081A401CC9
:10A4D0008642EDD8B9F1000F03D0052065F389104D
:10A4E00002E0062065F39F5061683A68114004EB72
:10A4F0008101C8606068304460609DF80000FEF72C
:10A500008BFD5046BDE8F88F6C1B0120E42D002028
:10A5100070B50D4604460A2902D10D21FFF7F8FF58
:10A52000A0682268411CA1601554D4E90101814250
:10A5300004D32046BDE8704002F05FB970BD000052
:10A54000044881684068814201D1012070470020A1
:10A55000704700006C1B012005494FF0FF320828AE
:10A5600041F8202002D3084480F8522070470000B0
:10A5700088170120F0B54FF0FF3512B100230826EF
:10A5800001E008230C260C4C05E000BF54F82370B2
:10A590007F1C04D05B1CB342F8D32846F0BD2618BC
:10A5A0005DB286F8305044F82310002AF5D1E11846
:10A5B00081F85200F1E700008817012002490844A1
:10A5C00090F9300070470000881701202DE9F04312
:10A5D0008146887891B090460C4600B901208DF8EC
:10A5E0003E002088ADF83C0000250095607C69465F
:10A5F00005F036F96E46A07C711C05F031F9E07B60
:10A6000000289DF8020002D040F0080001E020F090
:10A6100008008DF80200217C11B140F0100001E02B
:10A6200020F010008DF80200217B11B140F00100F4
:10A6300001E020F001008DF80200217D09B1022126
:10A6400000E0012161F342008DF802001C2102A804
:10A65000FCF777FF607BC10601D4800617D50E9505
:10A660000EAFE07C791C05F0FBF89DF838000797E9
:10A6700020F00F00401C20F0F00010308DF8380062
:10A680009DF83A0020F00600801C8DF83A00607BAF
:10A690008DF80800A07B8DF80900142109A8FCF7AB
:10A6A00050FF0FA8CDE90906A088ADF83000A068DA
:10A6B00020B1E088ADF82C00A0680D90A06998B397
:10A6C00001950088ADF81000A06901AD01A940888E
:10A6D000ADF81200A069406806950390A069007B60
:10A6E00005F0BEF8A069691C407B05F0B9F8A069C7
:10A6F000807A00289DF8060002D040F0080001E0B2
:10A7000020F008008DF80600A169C97A11B140F067
:10A71000100001E020F010008DF80600A169097A10
:10A7200019B140F0010002E00DE020F001008DF8C9
:10A730000600A169897B09B1022100E0012161F3D2
:10A7400042008DF80600E06900B10590434609AA71
:10A7500002A94846AADF11B0BDE8F08370B5084CE5
:10A76000050009D010342168002907D0086820604E
:10A77000496828468847F6E70834F4E770BD0000CA
:10A7800074170120054A012120B1012805D19170DB
:10A79000FFF7E4BF51700020FAE7704774170120FB
:10A7A00010B5D0E90234D1E90220D11AA04101D379
:10A7B000012010BD002010BD73B58CB006460020EE
:10A7C00000900D9880B100246D4621460DA801F03F
:10A7D000FAFC30B1009805EB400084800098401CE2
:10A7E0000090641C142CF0D32C2269463046FCF7F0
:10A7F0008FFE0EB070BD2DE9F04117880646B81DDA
:10A8000014460D46984202D90C20BDE8F0813188EB
:10A81000072206290AD34FF4486C4FF6FF736145AF
:10A8200001D9994202D17088062801D21046ECE77E
:10A83000604501D99842F9D1994203D0984201D09C
:10A840008142F3D80520E85520881221401C80B2AF
:10A85000208029542088401C80B2208041193088F3
:10A8600006F0A3F92188084480B22080411970883D
:10A8700006F09BF92188084420800020C5E7FEF7F8
:10A880004DBA000000B587B01C216846FCF759FEA0
:10A8900000204FF4A031CDE900014FF4F0210291E6
:10A8A00003218DF80C10ADF80E008DF8100006484D
:10A8B0000590064806906846FEF760FF002801D024
:10A8C000FEF72CFA07B000BD11E802007FA80200D5
:10A8D00038B54A7A0F4B62B100220A7259690029D1
:10A8E00006D001228DF80020ADF8020068468847A6
:10A8F00038BD0A7A62B19B684C6802461946204608
:10A90000FEF784FA0028F3D0BDE8384004F016BF03
:10A910005B68F1E7DC16012070B588B006460020C0
:10A9200005900690ADF81410ADF816100190029045
:10A9300001AA05A9304690DF050021D003F078F880
:10A940000346114811493246401AC108012000EB64
:10A95000014004460E4902F02EFCBDF8042012B955
:10A96000BDF8060028B1BDF80630204609A102F066
:10A9700022FCBDF808201AB12046164902F014FC4A
:10A9800008B0284670BD0000882A0300882A03000A
:10A99000D42203005468652072657175657374650F
:10A9A000642054582F5258207061636B6574206C7A
:10A9B000656E67746820697320746F6F206C6F6EAA
:10A9C000672062792025752F2575206F6374657463
:10A9D000732E00002023030030B5304B89B004AC47
:10A9E0000FCB84E80F004FF48041002002F044FCBC
:10A9F00018B1082801D0FEF791F902F0A9FA1C203D
:10AA000002F09EF81C2002F094F902208DF810004C
:10AA100025248DF811401D208DF8120006208DF898
:10AA20001400FF208DF815004FF080600690012083
:10AA30008DF81C0000208DF81D00034617481C25CA
:10AA40008DF81350164A04A9103801F015FE08B10C
:10AA5000FEF764F9192002F073F8192002F0C8F823
:10AA6000142001F095FD192002F063F94FF41670DF
:10AA700001F08EFD032002F063F8032002F0B8F825
:10AA800019200321CDE9021002231D221F210548B0
:10AA9000CDE90045FDF75CFB09B030BD681D030042
:10AAA0000DF90200F02103001F2807D1022905D16A
:10AAB0000348016C491C016401214170704700008A
:10AAC000EC2A002010B50021024801F0A8FB80F319
:10AAD000100010BD881F01204FF480328A400168A9
:10AAE000C1F848230068C0F8082370474FF4A072EB
:10AAF00002EB810189B200F002BA2DE9F04105466E
:10AB00000E464FF4A07000EB860081B228684FF427
:10AB10008034B440984622F07F47C0F80843286844
:10AB2000C0F84843286802F003FD286800EB86005F
:10AB3000C0F840752868C0F84443B8F1000F02D04F
:10AB40002868C0F80443BDE8F0810068D0F8040527
:10AB50007047000070B54379234C44F823204279B4
:10AB6000231D03EBC202224C1579204A121BD40884
:10AB70002DB10825022000EB04401EA130E005683D
:10AB80000A88C5F8082590F904208978002A4FEA38
:10AB9000411104DB02F1E02282F8001405E002F02A
:10ABA0000F0202F1E02282F8141D90F90410012234
:10ABB000002909DB01F01F0502FA05F549098900A2
:10ABC00001F1E021C1F800514179002503EBC101F9
:10ABD0000A71417943F83100032000EB04400EA1D3
:10ABE00002F0DEFA284670BDC02D0020E82A0300DE
:10ABF000882A030052544320696E7374616E636542
:10AC000020616C726561647920696E697469616C38
:10AC1000697A65642E0000005254433A20696E69D7
:10AC20007469616C697A65642E00000090F9040013
:10AC3000002809DB00F01F0201219140400980003B
:10AC400000F1E020C0F8001270470A46022100F02F
:10AC50004DB94FF4827100F052B9006801210160D2
:10AC6000704700680121416070472DE9F05F074699
:10AC70000C464FF4A07000EB84001FFA80FA38688D
:10AC80004FF48036A6409B4622F07F45C0F84863CB
:10AC90003868C0F808633868D0F8048500EB84028F
:10ACA000D2F84095C2F840855146386802F040FC21
:10ACB000A9EB080020F07F40012806D1102002F007
:10ACC00045FF5146386802F033FC3868D0F80485F7
:10ACD000C0F84463A5EB080121F07F4138680129E1
:10ACE00000EB840010D0C0F840553868D0F8041547
:10ACF0006FF07F4C6A1A521E22F07F42ACEB0B03BE
:10AD0000934217D362B118E06D1CC0F84055102073
:10AD100002F01CFF3868D0F8040540450AD10CE069
:10AD200000EB84006D1CC0F840553868D0F804056D
:10AD3000884202D00D20BDE8F09F012231463846FE
:10AD400000F0D4F80020F6E709490120096809B1AC
:10AD5000002070470749CA69002AF9D1044A2832FD
:10AD600012688968491E8A42F3D1022070470000A8
:10AD700058930020B82B00200020274D274C286036
:10AD8000E06000F09BF826A0FDF7E2F900F0A2F8E1
:10AD9000304E02E0012006F0B9F930780028F9D0F1
:10ADA00000F076F8064600F089F831462AA0FDF753
:10ADB000CFF900F08FF8334F4FF4FA7629683868EE
:10ADC000814201D1012023E02F4850F82120E06882
:10ADD000401CE060226060680346401CB0FBF6FC4B
:10ADE000864606FB1CE0D4F808C0604507D027481B
:10ADF00040F82320BEFBF6F006FB10E060604FF445
:10AE0000FA60491CB1FBF0F200FB1210286003202D
:10AE100006F07CF9D2E70000242B00205C2C0020F7
:10AE20006563675F66696C697465722077616974D0
:10AE3000696E6720666F7220696E697469616C69FA
:10AE40007A6174696F6E2073616D706C65730D0A41
:10AE500000000000EC2A00206563675F66696C698A
:10AE600074657220737461727465642C20696E69F4
:10AE70007469616C2070656E64696E673D256C75E0
:10AE80000D0A0000202B0020944D00202CDD002016
:10AE900070B506F029F8074805680748046806F009
:10AEA0002DF8A54201D3281B70BDC4F5FA602844D3
:10AEB00070BD0000202B0020242B002004480068D7
:10AEC000002803D04FF0FF3106F056BC7047000059
:10AED000E82A002004480068002804D000231A460D
:10AEE000194606F01FBB7047E82A00200368C3F824
:10AEF0004413002A02D00068C0F80413704710B54C
:10AF0000006842581AB102F013FB012010BD002066
:10AF100010BD826883881A4003689A5C0A70816851
:10AF2000491C81607047C26883881A40036899543D
:10AF3000C168491CC16070470AB101F04FB901F006
:10AF400037B970B50D460446B0F81414D0F81004A3
:10AF50000122FEF71CFA00B1057004F13C0204F571
:10AF6000826104F1540072DF70BD10B50446C0B2B6
:10AF7000FEF704F8204610BD0EB513A19DF8080099
:10AF800020F00F00401C20F0F00010308DF8080079
:10AF9000112202A87CDF08B1FDF7C0FE002000905E
:10AFA00001901021ADF80400ADF800104FF41670B8
:10AFB0003C21ADF80600ADF8021068467ADF0028A3
:10AFC00001D0FDF7ABFE0EBD746573745F6E7266E3
:10AFD0005F6B6169666162616E0000000C484A88BF
:10AFE00043889A4213D10A88A2F52063773B0ED199
:10AFF0008988C91E8AB28280064807491346401ACA
:10B00000C008032101EB004004A102F0D4B870474E
:10B01000802B0020002B0300882A03004461746108
:10B02000206C656E2069732073657420746F203006
:10B03000782558282564290010B50949094801F0E8
:10B0400065F908B1FDF76AFEF721064801F052F9EB
:10B05000002803D0BDE81040FDF760BE10BD000021
:10B06000DDAF0200148E002010B50B48FFF76DFD18
:10B07000094A083AD2E90434C018D2E9063244F148
:10B080000001C31A71EB020204D24FF080728018E3
:10B0900041F1000110BD0000882D002010B501F025
:10B0A00065FF002803D1BDE8104002F003BA10BDCF
:10B0B0000146034802888A4200D000207047000001
:10B0C000C8160120242804D1022902D101490120F7
:10B0D000C8607047242C00200F4808B50068009015
:10B0E00002F014FE08B1082815D10C490C20C1F853
:10B0F000000703208DF80100094A6946242002F068
:10B100009DFD002807D10121242002F04BFD05A060
:10B11000FDF71EF8002008BD941D03001003005029
:10B12000C5B002004D4158333031303220494E54C1
:10B130002070696E20636F6E666967757265640D55
:10B140000A0000002DE9FC5F0E008346DDE90C4794
:10B15000C6F1000098469246814600D40846012573
:10B1600003E000BF90FBFAF06D1C5045FADAA845E9
:10B1700000D9454624B1002E01DB780700D5641EB6
:10B18000B80702D5B8F1000F0AD0F80708D13CB1D2
:10B19000A54205D220215846641EFFF7B9F9F6E70B
:10B1A000002E02DA4E462D2102E0780703D52B212E
:10B1B0005846FFF7ADF907F0030002280BD1B8F1AC
:10B1C000000F08D13CB1A54205D230215846641E7B
:10B1D000FFF79EF9F6E7CDE9004743465246314670
:10B1E000584605F0EDFCBDE8FC9F000070B50D462B
:10B1F000044600684FF4887102F045FC4FF49071EA
:10B20000206802F040FC4FF49271206802F03BFC91
:10B210004FF4A271206802F036FC4FF4AC71206844
:10B2200002F031FC20681249C0F804132068690755
:10B2300040F30730090E002804DB00F1E02080F81D
:10B24000001405E000F00F0000F1E02080F8141D6C
:10B25000206840F30730002809DB00F01F020121BD
:10B2600091404009800000F1E020C0F8001170BD5D
:10B2700010034200024600201268530713D502F063
:10B280000300012802D002280CD105E0C2F383108C
:10B290000B68801C184404E00223086803EB9252F8
:10B2A0001044086001207047034A13680A460146AB
:10B2B0000248FCF7AFB900006C2C0020FCE4002031
:10B2C000F8B50E4604464FF48C7102F090FB00284E
:10B2D0001AD00025C4F81851D4F818010090F07F56
:10B2E0003446FF2806D0A17F11B101F08BFC01E0AC
:10B2F00001F03DFD65772572D4E9002101B004F12C
:10B300000800BDE8F0401047F8BD00002DE9F04707
:10B310009146884604464FF480354FF4A0760027C6
:10B32000DFF884A016E000BFD4F8040328420DD053
:10B33000A05958B1C4F84853C4F8085331462046C0
:10B3400002F0F0F85AF82810F8B28847361D6D0060
:10B35000B6B27F1C4F45E7D3D4F804034FF4807195
:10B3600010F0010F09D0D4F8000130B1204602F0EE
:10B37000D9F85AF8281004208847D4F804034FF469
:10B38000827110F0020F0CD0D4F80401002808D00C
:10B39000204602F0C7F85AF82810BDE8F04705200B
:10B3A0000847BDE8F0870000782D0020F0B58488BC
:10B3B000A518944200D82246A41AC288D6189A42E8
:10B3C00000D81346D21A4B880788BB420CD340885A
:10B3D000834209D88888A04206D3A84204D8C888E6
:10B3E000904201D3B04201D90020F0BD0120F0BD50
:10B3F0000268134602E08A4204D01268002AFAD199
:10B400000B600160704700000A4810B5807860B199
:10B41000002401E0022C06D02046FEF78DFE641CBD
:10B42000042CF7D310BD0324F6E7BDE81040FEF767
:10B43000A7BE0000B02C0020F72101801721418019
:10B44000002101714171FB2181711B21C171704784
:10B45000704700002DE9FF410026244800F0CBFE94
:10B460002248001F074600F0C6FE214C2149A06873
:10B4700000900D6800E000986946284004EB8000C9
:10B480000C30FFF7F7FE0028F5D101AA009901EA78
:10B49000050304EB8303491CDB6842F82030401CA1
:10B4A00000910228F2D3019800F0030001280BD08C
:10B4B000022810D10198032101EB90500099BDF8AA
:10B4C0000A6001EB900005E00198BDF80A60C0F346
:10B4D000831008440090384600F08AFE08B10098B6
:10B4E000A06004B03046BDE8F0810000841F012058
:10B4F0006C1B0120E42D00201CB505F0FBF9584E13
:10B5000000254FF4FA784FF47A4756A0FCF720FE56
:10B510004446711C38468847641EFAD16D1CEDB252
:10B52000052DF2D353A0FCF713FE012005F090FF88
:10B530005549086028B955A0FCF70AFE0420FDF71C
:10B54000EDFB00240920CDE900044FF4C07523462B
:10B550002A4655A1574806F0CDF9012806D056A035
:10B56000FCF7F6FD0420FDF7D9FB02E059A0FCF73B
:10B57000EFFD0620CDE900044FF48076002332462B
:10B580005AA15E4806F0B6F9012806D05CA0FCF787
:10B59000DFFD0420FDF7C2FB02E061A0FCF7D8FD4F
:10B5A0000427CDE9007400232A4664A1664806F00A
:10B5B000A1F9012806D065A0FCF7CAFD0420FDF71B
:10B5C000ADFB02E068A0FCF7C3FD0820CDE9000454
:10B5D00000232A466AA16E4806F08CF9012806D09D
:10B5E0006CA0FCF7B5FD0420FDF798FB02E071A00C
:10B5F000FCF7AEFD0720CDE900040023324674A11C
:10B60000764806F077F9012806D075A0FCF7A0FD72
:10B610000420FDF783FB02E07AA0FCF799FDCDE959
:10B620000074002332467FA1814806F063F90128A7
:10B6300006D080A0FCF78CFD0420FDF76FFB02E034
:10B6400084A0FCF785FD05F0D7FE014688A0FCF735
:10B650007FFD05F061FE90A0FCF77AFDFEE700009B
:10B66000301D030068656C6C6F20776F726C640D21
:10B670000A000000656E74657220696E74206D6149
:10B68000696E200D0A000000E82A00207072696EC1
:10B69000745F6D757465782063726561746520668A
:10B6A00061696C65640D0A00626C655F746872653F
:10B6B00061640000ADA002000D0A424C4520746197
:10B6C000736B206E6F7420637265617465642E0DF8
:10B6D0000A0000000D0A424C45207461736B206320
:10B6E0007265617465642E0D0A000000626C655F0E
:10B6F00073656E645F7468726561640025A0020002
:10B700000D0A424C452073656E64207461736B2092
:10B710006E6F7420637265617465642E0D0A00009B
:10B720000D0A424C452073656E64207461736B2072
:10B73000637265617465642E0D0A000073706F3268
:10B740005F74687265616400FDFC02000D0A53704D
:10B750006F32207461736B206E6F74206372656149
:10B760007465642E0D0A00000D0A53706F32207448
:10B7700061736B20637265617465642E0D0A00004D
:10B78000616473313239325F7468726561640000DC
:10B7900019F902000D0A41445331323932207461E3
:10B7A000736B206E6F7420637265617465642E0D17
:10B7B0000A0000000D0A41445331323932207461CD
:10B7C000736B20637265617465642E0D0A0000005E
:10B7D0006563675F66696C697465720079AD0200C4
:10B7E0000D0A4543472066696C7465722074617365
:10B7F0006B206E6F7420637265617465642E0D0A30
:10B80000000000000D0A4543472066696C746572AC
:10B81000207461736B20637265617465642E0D0A18
:10B82000000000006563675F636F756E7400000061
:10B83000057B02000D0A45434720636F756E742037
:10B840007461736B206E6F742063726561746564DC
:10B850002E0D0A000D0A45434720636F756E742054
:10B860007461736B20637265617465642E0D0A00E8
:10B87000467265652068656170206265666F7265F5
:10B88000207363686564756C65723A20256C752059
:10B8900062797465730D0A004672656552544F53A0
:10B8A000207363686564756C6572206661696C6598
:10B8B0006420746F2073746172740D0A00000000BC
:10B8C00070B5144682880E4605462088111D014435
:10B8D000921C994201D8FE2A01D90C2070BD521C3D
:10B8E00032542088FF21401C80B2208031542088AF
:10B8F000401C80B220808119288805F056F92188E3
:10B90000084480B22080AA8842B1A96841B130447D
:10B91000FBF7FEFD2088A98808442080002070BD28
:10B92000072070BD10B50021042000F081F900212E
:10B93000052000F07DF90021BDE81040062000F050
:10B9400077B91CB500208DF800008DF804000122A5
:10B95000694600F00FF9012201A9104600F00AF92A
:10B960001CBD000010B5040029D006221449072090
:10B9700000F000F920B19FED130A84ED000A1CE0ED
:10B980000F4801784278090441EA0221827803795C
:10B990001143C1F31101C27800EE101A120440796C
:10B9A000B8EE400A42EA03220243C2F3110084EDDA
:10B9B000000A00EE100AB8EE400A84ED010A10BD3C
:10B9C000442C00200000000038B50A4C0A4B0B4AFA
:10B9D000206800901D21A3F11800FCF783F8064BA6
:10B9E000206874330090054A1D21A3F18000FCF704
:10B9F00079F838BD6C2C002014E50020BC1D030034
:10BA000070B59FED200A0024264688B3032937D35A
:10BA1000002307E000EB83025B1CD2ED000A9BB21F
:10BA200030EE800A8B42F5D300EE901A0022B8EE79
:10BA3000601AC0EE010A1FE000EB820393ED000ADA
:10BA4000B4EEE00AF1EE10FA15DD93ED010AB4EE62
:10BA5000E00AF1EE10FA0ED85EB1101B80B2A0F130
:10BA6000100186290CD240F6B831B1FBF0F070BD60
:10BA700006E014460126AAB2531C1D468B42DBD3B6
:10BA80000020F4E70000000010B59FED360A002802
:10BA900067D0002965D0022A63D390ED002AD1ED4A
:10BAA000001A0123F0EE420AB0EE611A26E000BF50
:10BAB00000EB8304D4ED002AF4EEC22AF1EE10FA72
:10BAC00001DDB0EE622AF4EEE02AF1EE10FA01D2C6
:10BAD000F0EE620A01EB8304D4ED002AF4EEE12AD1
:10BAE000F1EE10FA01DDF0EE621AF4EEC12AF1EE89
:10BAF00010FA01D2B0EE621A5B1C9BB29342D7D30C
:10BB000071EEC12A32EE602A62EEA01AB5EEC02AAA
:10BB1000F1EE10FA25D9F5EEC02AF1EE10FA20D98F
:10BB2000F5EEC00AF1EE10FA1BD9B5EEC01AF1EE2F
:10BB300010FA16D9F5EEC01AF1EE10FA11D062EE35
:10BB4000010A9FED0A1A80EEA10ADFED070A60EEF6
:10BB5000200A60EE800A40EE010A9FED050A30EEF1
:10BB6000800A10BD00000000713D34C2FED4F241D5
:10BB7000A4B0BD4277B581B014460D0013D094B186
:10BB800001200346009001AA5721104800F0CCFD87
:10BB900006000AD002469DF804100DA0FCF7D8FA62
:10BBA000304604B070BD0720FBE708485721001D50
:10BBB0002A46234602F0B4FA040005D002469DF856
:10BBC00004100FA0FCF7C4FA2046EAE79C1D03000E
:10BBD0004D4158333031303220726561642D5458F4
:10BBE000206661696C6564207265673D3078253038
:10BBF0003258206572723D3078256C580D0A00006D
:10BC00004D4158333031303220726561642D5258C5
:10BC1000206661696C6564207265673D3078253007
:10BC20003258206572723D3078256C580D0A00003C
:10BC30007CB58DF80400054600208DF805100090B5
:10BC4000022301AA5721064800F06EFD040004D02B
:10BC50000246294603A0FCF77BFA20467CBD000083
:10BC60009C1D03004D4158333031303220777269CA
:10BC70007465206661696C6564207265673D307823
:10BC800025303258206572723D3078256C580D0A87
:10BC90000000000070B5274C00204021E070092012
:10BCA000FFF7C6FF08B124A03FE00A2005F02EFAF6
:10BCB000E0210220FFF7BCFF00283AD10021032039
:10BCC000FFF7B6FF002834D1FFF72CFE4F210820E4
:10BCD000FFF7AEFF00282CD12A210A20FFF7A8FF8A
:10BCE000002826D100210C20FFF7A2FF002820D138
:10BCF00000210D20FFF79CFF00281AD18021092088
:10BD0000FFF796FF002814D1FFF71BFEFFF75CFE3C
:10BD10004FF4966529460E48FBF713FC29460D485B
:10BD2000FBF70FFC0120E0700BA0BDE87040FCF7B2
:10BD30000FBA70BD242C00204D41583330313032C1
:10BD4000207265736574206661696C65640D0A0014
:10BD5000CCD300207CD800204D41583330313032D4
:10BD600020636F6E666967757265643A2053523D51
:10BD7000323030204649464F5F4156473D34204CD3
:10BD800045443D302073687574646F776E0D0A000A
:10BD90002DE9F041DFF8E0800446002798F8030021
:10BDA00086B03E46802530B1052C48D2DFE804F04D
:10BDB000080741434500082006B0BDE8F08103258F
:10BDC00080210920FFF734FF0028F5D1052005F078
:10BDD0009DF939460C20FFF72BFF0028ECD13146A6
:10BDE0000D20FFF725FF0028E6D1FFF79BFDFFF7A9
:10BDF000A8FD0021C8F80C1029460920FFF718FFFC
:10BE00000028D9D105F0B0FD054605F06DF888F899
:10BE10000040C8F81850D8F81410491CC8F814107D
:10BE200005F06CF8052C16D2DFE804F00B0D0F11AD
:10BE300013003F27C3E73F26C1E73F27FBE7072063
:10BE4000BAE70EA008E00EA006E011A004E013A0DF
:10BE500002E014A000E015A08DE8A1000521CDE9C5
:10BE6000036198F801202346D8F810101148FCF718
:10BE70006FF90020A0E70000242C00204F46460068
:10BE80004449474954414C5F4F4E4C590000000013
:10BE90005245445F4F4E4C590000000049525F4FDD
:10BEA0004E4C5900424F544800000000554E4B4E36
:10BEB0004F574E003822030038B5134C11482179F2
:10BEC000455C05F011F82079607005F017F82846F8
:10BED000FFF75EFF40B10090227921692B460BA04D
:10BEE000FCF736F9002038BD05F03EFDE0613C204E
:10BEF000009022792169052313A0521CFCF728F930
:10BF0000012038BD971D0300242C0020584D4152BC
:10BF10004B20737769746368206661696C6564207F
:10BF20006379636C653D256C752070686173653D50
:10BF30002575206D6F64653D2575206572723D30F5
:10BF400078256C580D0A000058535441474520632A
:10BF500079636C653D256C752070686173653D255E
:10BF6000752F2575206475726174696F6E5F733DFE
:10BF700025750D0A0000000010B5104C60790028EE
:10BF80001BD105F0F1FC0246E069101AB0F5704FC4
:10BF900013D32079401CC0B22071052809D3012099
:10BFA0006071042020712169BDE8104004A0FCF7F5
:10BFB000CFB8BDE81040FFF77FBF10BD242C002094
:10BFC00058454E44206379636C653D256C7520743B
:10BFD00069636B3D256C750D0A0000002DE9F04783
:10BFE000C5881E1DB6FBF5F78946B6FBF5F104467C
:10BFF00005FB176C407916686843DDF820A0F71838
:10C00000001F874200D9C61A166001E02468491E45
:10C010000029FBD1A5EB0C078846B74216D818E0DB
:10C0200004EB0C00001D09EB0803BAF1000F3A46BF
:10C0300002D00146184600E01946FBF769FA246869
:10C04000F61B4FF0000CB844B54201D9374600E06A
:10C050002F46002EE4D1BDE8F087000030B502463F
:10C0600051B101F01DF90021074C08E034F82130EE
:10C070001568AB4202D11160002030BD491C8142DD
:10C08000F4D3052030BD000000000000F8B50F46D5
:10C09000017814460546012901D1687830B120881D
:10C0A000821C9A4232D8012902D006E00720F8BD4E
:10C0B00069780144891C994228D8181A801E86B2D2
:10C0C000ADF800602188B81C084469467DDF00286F
:10C0D000EDD12978022904D06878BDF8002090427B
:10C0E00005D3BDF80000B04201D809200AE00820BD
:10C0F000012905D16978B14202D8ADF8001001E0FC
:10C10000ADF80060BDF80010FE2901D90C20F8BD83
:10C110002288491CB9542188491C89B2218078544D
:10C120002088401C2080BDF800100844208000209A
:10C13000F8BD10B531B1B2FBF3F403FB14241CB10C
:10C14000092010BD0E2010BD0160002141608160FA
:10C150008281C381084610BD70B50C460546FBF7C9
:10C16000ABF8002802D021882868084470BD10B5BB
:10C170000A8849888A4203D1FBF7E0F8012010BD04
:10C18000002010BD70B50C460546FBF7BAF8002834
:10C1900002D061882868084470BD10B50A884988B3
:10C1A0008A4203D1FBF7A4F8012010BD002010BD86
:10C1B00001F01F0301229A40D243490900EB81009C
:10C1C000114600F021B84A0950F8220001F01F0280
:10C1D00001219140084000D00120704701F01F0369
:10C1E00001229A40490900EB8100114600F01CB879
:10C1F000002100F00FB8012100F016B808B56A461A
:10C20000FBF7F1F8009808BD08B56A46FBF7D1F8CE
:10C21000009808BD08B56A46FBF7CBF808BD08B51D
:10C220006A46FBF7ADF808BD08B56A46FBF7B4F8F7
:10C23000009808BD08B56A46FBF7E2F8009808BD0B
:10C2400038B5044600258DF800506846FCF7C0FE5E
:10C2500021686268086890420ED9401E0860017823
:10C26000238AE26801FB0325227A2168101AC0B2F2
:10C270000A79824200D208719DF80000FCF7CCFEDA
:10C28000284638BD38B5054600208DF800000C461C
:10C290006846FCF79DFEE868298A201AB0FBF1F198
:10C2A0002A681068431C136001709DF80000FCF7B9
:10C2B000B3FE38BD10B530B1017A42680368891AFF
:10C2C000C9B21A6006E00E2010BD03681A68541C3B
:10C2D0001C601170491EC9B2F7D2006800210171BB
:10C2E000084610BDC20800F007030120895C984091
:10C2F0000840704728B1A1F11702E12A03D30720B3
:10C3000070470E20704701800020704710B560B163
:10C310000161F72120F8021B20F8021BFB2100F825
:10C32000021BFFF789F8002010BD0E2010BD000091
:10C33000F0B5858893B00C46002D39D101880026D0
:10C340003F4F24293BD006DC102909D011290CD0FD
:10C35000232958D14FE03A290BD0552953D129E050
:10C360000146204602F098FA4DE0A01DFFF764F860
:10C3700049E02246408934F8061F814200D8084629
:10C380006080172800D217206080106970B1607932
:10C3900060B1D7E90001CDE90301ADF80E50608826
:10C3A000ADF81000136903A910469847667126710D
:10C3B00013B0F0BD0146204602F0C2FA23E0011D91
:10C3C0002C2206A8FBF7A4F8BDF81800BDF81C2025
:10C3D00004EBC0014A732269AAB1D7E90423CDE96D
:10C3E0000423ADF81200487B8DF814002269204622
:10C3F00004A9904707E0017A207B884200D20146D9
:10C400002846FEF789FAA07A0028D1D0E18828468C
:10C41000A5DF012580B11128CAD001F009FB024631
:10C420000848094913B0401AC00805EB0040BDE8B0
:10C43000F04006A100F0B8BEA672E572B8E70000B1
:10C44000641E0300882A0300882A030073645F6265
:10C450006C655F67617474635F65786368616E675C
:10C46000655F6D74755F72657175657374282920D9
:10C4700072657475726E65642025732E000000006D
:10C4800020B10278DE2A03D0082070470E207047C2
:10C4900041800020704760B159B10278DE2A0AD08D
:10C4A00009684160DE2101704FF6FF714180002074
:10C4B00070470E207047082070477FB50546002959
:10C4C0004DD0002D4BD008780C46DE2847D1A888E7
:10C4D0006188884202D1204604F00CFC288801289B
:10C4E00025D002283BD011283AD0512837D135F831
:10C4F000040F6188884232D1A978A81C02292ED164
:10C50000017A042903D0062901D0052927D1002169
:10C51000009102228DF8002001914FF4C072029127
:10C520000391ADF80420007A05280FD010E0297A95
:10C530002046012913D1A988428891420FD10121B7
:10C54000017204B0BDE8704004F0D4BBADF8041033
:10C5500028886946B0DF002801D0616888477FBD20
:10C56000A88861888842FAD14FF6FF7060807FBD4D
:10C5700000F180400068002800D00120704708B515
:10C5800000F18040002101600068009008BD0000BB
:10C590002DE9F041040007D0044E4FF47A47751C92
:10C5A0003846A847641EFAD1BDE8F081501D03004B
:10C5B00070B50D4C0125207808B185260EE00020CD
:10C5C000A06060602061E060084801F081FA0646E2
:10C5D00001F098F908B901F065FA257001F05AFAEE
:10C5E00000B1A570304670BD7417012085A7020008
:10C5F00038B500258DF800506846FCF7E9FC084C7A
:10C60000E068401EE060E06828B901F043FA10B924
:10C6100001F07CFAA5709DF80000FCF7FDFC38BD28
:10C6200074170120F8B5134D0446A878002648B1C8
:10C6300014B16168012088478DF800606846FCF7F6
:10C64000C7FC0EE08DF800606846FCF7C1FC24B121
:10C65000084821461030FEF7CBFEE86808B901F023
:10C6600045FAE868401CE8609DF80000FCF7D4FC3F
:10C67000F8BD0000741701202DE9FF411C46037826
:10C68000164D174E45F82320103545F82340F0CEBF
:10C690008DE8F0000C788DF800404C788DF8014062
:10C6A0008C788DF80240CC788DF803400C798DF8A9
:10C6B00005404C798DF806408C6802940C7B8DF80F
:10C6C0000C40497B8DF80D1002B1064A6946001DE9
:10C6D00001F09CFB04B0BDE8F0810000401801208F
:10C6E0009C1E030009FC02002DE9F0410646047877
:10C6F0000B4815460F4640F82420083040F82430F7
:10C70000487B10B1084603F061FD0DB1054A00E019
:10C71000002223463946301DBDE8F04101F080BCBF
:10C72000642D00203D03030038B5001D049C0094D7
:10C7300001F00EFD38BD0000F0B50546047815483F
:10C7400089B0164640F82420124A08690832A2F13E
:10C750000C0742F82400487F385520226846FAF733
:10C76000D7FE04942878385C48B10EB10A4A00E03C
:10C7700000226946281D01F06FFE09B0F0BD0EB120
:10C78000064A00E00022694605F10C0001F018FDA0
:10C79000F3E70000342D0020690A0300C5080300F8
:10C7A00030B40378054CE35C1BB130BC001D01F0D4
:10C7B00089BE30BC0C3001F06DBD0000302D002072
:10C7C00030B40378054CE35C1BB130BC001D01F0B4
:10C7D000FBBE30BC0C3001F0D3BD0000302D00207A
:10C7E0000FB408B50399002904D004AA00926A4640
:10C7F00000F00FF801B05DF814FB10B58268044634
:10C80000002A05D0D4E90403216898470020A060DD
:10C8100010BD2DE9FC4791460C00804676D014F8F7
:10C82000011B39B125290ED04046FDF771FE207855
:10C830000028F4D198F80C00002867D04046BDE8E5
:10C84000FC47FFF7DABF0020012221782B291BD0FB
:10C850002D2902D0302908D102E040F0010001E08A
:10C8600040F00200641C002AEFD100252A290ED0D6
:10C870002178A1F130020A2A11D205EB850201EBE1
:10C880004205641C303DF1E740F00400EAE7D9F8C6
:10C8900000100B1DC9F800300968641C0D44217894
:10C8A00000232E290BD114F8011FA1F130020A2A0E
:10C8B00005D203EB830201EB4203303BF3E76C2923
:10C8C0000DD068290BD0692921D00BDC252918D07F
:10C8D000582931D063290ED0642915D117E014F8F6
:10C8E000011FECE7702969D0732932D075291BD05C
:10C8F000782909D120E0D9F80000011DC9F80010FD
:10C9000001784046FDF704FE641C90E76CE0D9F81E
:10C9100000100A1DC9F800200968CDE900500A225C
:10C920004046FEF70FFCEFE7D9F800100A1DC9F8E2
:10C93000002009680A2206E0D9F800100A1DC9F88B
:10C94000002009681022CDE90050404604F038F973
:10C95000DAE7D9F8001000270A1DC9F800200E6890
:10C96000C00705D112E04046761C7F1CFDF7D0FDC4
:10C9700031780029F7D104E0202140466D1EFDF7F3
:10C98000C7FDBD42C0D9002DF6D1BDE74EB130463E
:10C99000FAF7E2FD074604E0202140466D1EFDF750
:10C9A000B7FDBD4206D9002DF6D103E04046761C06
:10C9B000FDF7AEFD31780029F8D1A5E7D9F80000E0
:10C9C000011DC9F80010056830214046FDF7A0FDA3
:10C9D00078214046FDF79CFD08200021CDE90001AB
:10C9E000034610222946B0E7BDE8FC872DE9FF4148
:10C9F0001C46DDE90A7815460E46684600F016F931
:10CA000046EA450141EA840141EA072242EA084137
:10CA1000009A00EB8200C0F80017BDE8FF812DE905
:10CA2000FF411C46DDE90A7815460E46684600F0CF
:10CA300019F946EA450141EA840141EA072242EA3E
:10CA40000841009A00EB8200C0F80017BDE8FF81A2
:10CA50002DE9FF411C46DDE90A7815460E46684679
:10CA600000F00EF946EA450141EA840141EA072255
:10CA700042EA0841009A00EB8200C0F80017BDE8C6
:10CA8000FF812DE9FF411C46DDE90A7815460E4677
:10CA9000684600F003F946EA450141EA840141EAAB
:10CAA000072242EA0841009A00EB8200C0F8001712
:10CAB000BDE8FF812DE9FF411C46DDE90A781546F6
:10CAC0000E46684600F0F8F846EA450141EA84015E
:10CAD00041EA072242EA0841009A00EB8200C0F8CE
